:020000040000FA
:041800006CEF16F083
:08180800056ED8CF06F0E0CF19
:1018100007F00001E9CF0DF0EACF08F0E1CF09F0C1
:10182000E2CF0AF0D9CF0BF0DACF0CF0F3CF14F0FF
:10183000F4CF15F0FACF16F000C00FF001C010F091
:1018400002C011F003C012F004C013F09DA22CEFEF
:101850000CF09EB21BEF14F09DAA32EF0CF09EBA72
:10186000DAEF13F0A0AA38EF0CF0A1BAA5EF13F04D
:101870000FC000F010C001F011C002F012C003F060
:1018800013C004F00E8E0DC0E9FF08C0EAFF09C0C6
:10189000E1FF0AC0E2FF0BC0D9FF0CC0DAFF14C0A1
:1018A000F3FF15C0F4FF16C0FAFF055007C0E0FFB4
:1018B00006C0D8FF1000F76AC60FF66E180EF722A2
:1018C0000900F550120004030100000000000000B0
:1018D000000000000000F76AE60FF66E180EF7220F
:1018E0000900F55012000400010000000000000093
:1018F000000000000000F76A060FF66E190EF722CE
:101900000900F550120040000800400000000000EF
:1019100000000000000000000000000000000000C7
:101920000000000000000DAE03D0F2CF0EF0F29EDA
:10193000F76A480FF66E190EF7220900F5500DAE42
:1019400002D00EBEF28E12004000000040000000E7
:101950000000000000000000000000000000000087
:101960000000000000000000F76A780FF66E190E04
:10197000F7220900F550120009024300020100C0DD
:1019800032090400000102020100052400100104D4
:101990002402020524060001052401000107058137
:1019A000030800FA09040100020A0000000705020A
:1019B000024000FA070582024000FA00F76ACC0FE5
:1019C000F66E190EF7220900F55012000200F76AB0
:1019D000DE0FF66E190EF7220900F5501200120103
:1019E000100102000040D8040100000101020001C2
:1019F000F76A000FF66E1A0EF7220900F550120072
:101A0000040309040A03410055005200450028035D
:101A1000410075007200650042006F0061007200B5
:101A2000640020005500730062002D005300650023
:101A3000720069006500F2CF0EF0F29EF76A500F57
:101A4000F66E1A0EF7220900F5500EBEF28E120045
:101A50000D0A0A2D41757265426F61726420A14CB6
:101A600069737461210D0A00F2CF0EF0F29EF76ADD
:101A7000820FF66E1A0EF7220900F5500EBEF28E96
:101A800012000D0A41555245424F540D0A5F5F5FE7
:101A90005F5F5F5F0D0A0D0A496E696369616E647D
:101AA0006F2E2E2E0D0A0000F2CF0EF0F29EF76A76
:101AB000C20FF66E1A0EF7220900F5500EBEF28E16
:101AC00012005B44656C6179203530206D735D0DCB
:101AD0000A00F2CF0EF0F29EF76AEC0FF66E1A0EC5
:101AE000F7220900F5500EBEF28E12005B4F6B5DBF
:101AF0000D0A0000F2CF0EF0F29EF76A0E0FF66E9E
:101B00001B0EF7220900F5500EBEF28E12002D5565
:101B10005342204344430D0A0000F2CF0EF0F29EE0
:101B2000F76A340FF66E1B0EF7220900F5500EBE51
:101B3000F28E12002D4C65642056657264650D0AA4
:101B40000000F2CF0EF0F29EF76A5C0FF66E1B0EED
:101B5000F7220900F5500EBEF28E1200280C010685
:101B6000F2CF0EF0F29EF76A7A0FF66E1B0EF72296
:101B70000900F5500EBEF28E1200A1A1486F6C61F3
:101B8000206D756E646F21210D0A0000F2CF0EF0FA
:101B9000F29EF76AA60FF66E1B0EF7220900F550AB
:101BA0000EBEF28E120041555245426F740D202038
:101BB00020202020202020576F726B696E67210043
:101BC0006D9269946894B0EF13F06A6A6892B9EF05
:101BD00013F02D6A2C6A250E2B6E800E2A6E2E6A4B
:101BE0002F6A080E306E806B7B93326A316A7C6B91
:101BF0007D917B81000C9D6B9D5101080AE3036A76
:101C00009D51280FE96E000E0320EA6EEF6A9D2BAE
:101C1000F3D7DFDF1A6A010E1B6E196A000C010E82
:101C2000A66FA6510F080EE3700EA625016E0F0ECB
:101C3000036ED8B0032A01C0E9FF03C0EAFFEF6AD0
:101C4000A62BEFD71E6A1D6A000C400E0401016F1F
:101C5000050E036F026B880E006F046B050E076F95
:101C6000400E066F0001000C6A6A686A9F0E6B6E78
:101C7000390E696E6E6ABFDFD2DF160E706E68A60F
:101C800002D06896FCD76D98E0DF030E1F6EBFEFA1
:101C900013F0698468986D82C5EF13F0689CCBEFF0
:101CA00013F070A002D0D1DF7090689AD1EF13F0DA
:101CB000A1C020F0000CFF0E206E000C9F6B27527D
:101CC00035E09F513F0832E31C5005E0020A0DE069
:101CD000010A15E01ED0036A2650F2CFA1F0F29E51
:101CE00043DEA1BFF28EA06F14D0036A2650F2CF5C
:101CF000A1F0F29E7DDEA1BFF28EA06F0AD0036A32
:101D00002650F2CFA1F0F29E62DEA1BFF28EA06F4C
:101D100000D0262A27069F519F2B036A400FE96EA9
:101D2000050E0320EA6EA0C0EFFFC9D7275204E1D9
:101D30009F51400801E0196A9FC0A1F0B9DF000C73
:101D4000266A1C6A05010351010A000105E0030A25
:101D500008E0010A09E01FD0120E276E030E1C6E68
:101D60001CD0430E276E19D0020E1C6E036A0501AB
:101D70000251210FE96E000E0320EA6EEFCF26F02C
:101D8000036A2650F2CF9EF0F29E000131DE9EBF24
:101D9000F28E276E02D08FDF0CD00501075305E1CC
:101DA0002750065D02E206C527F0010E196E0001FC
:101DB00085DFF3EF0FF09E5304E1040E1F6E2FDF5B
:101DC000C1D0050E1F6EA16F800EA06F010E9F6F18
:101DD0009F510F08D8A0B6D0A26B036A9F51F2CFD3
:101DE000A6F0F29E78DDA6BFF28E000A51E0040E46
:101DF000A26FD8909F35036AF2CFA6F0F29E93DDD2
:101E00000900F5CF03F0A6BFF28EA36F03C0A4F0C4
:101E10009F51080DF350010F016E040E036ED8B0F0
:101E2000032A01C0E9FF03C0EAFFA3C0EFFF9F51EF
:101E3000080DF350020F016E040E036ED8B0032A92
:101E400001C0E9FF03C0EAFFA1C0ECFFED52A0C052
:101E5000EFFFD8909F35036AF2CFA6F0F29E63DDC4
:101E60000900F5CF03F0A6BFF28EA0270350A123EF
:101E7000880EA56FA4B1A581A4B3A5839F51080DB9
:101E8000F3CF01F0040E01C0E9FFEA6EA5C0EFFF39
:101E9000036A9F51F2CFA6F0F29E0DDDA6BFF28E2F
:101EA000000A31E0A2839F51080DF350060F016E26
:101EB000040E036ED8B0032A01C0E9FF03C0EAFF95
:101EC000A1C0ECFFED52A0C0EFFFD8909F35036A90
:101ED000F2CFA6F0F29E0FDD0900F5CF03F0A6BF0A
:101EE000F28EA0270350A1239F51080DF350040F39
:101EF000016E040E036ED8B0032A01C0E9FF03C0CF
:101F0000EAFF400EEF6EA251060802E10E0EA26F2C
:101F1000036A9F51F2CFA6F0F29ECDDCA6BFF28EEF
:101F2000020801E0A289700E9F25016E0F0E036E5C
:101F3000D8B0032A01C0E9FF03C0EAFFA2C0EFFF47
:101F40009F2B46D7EDEF0FF00501015100010DE089
:101F5000010A14E0020A1EE0060A27E0030A2CE048
:101F60000E0A2BE0010A2FE03CD01BC040F5050112
:101F7000416B020E0001A16F9BDE35D00501022DE1
:101F800006D0010E1B160001A16B92DE02D00001EB
:101F900092DE29D00501022D05D01B820001A16B24
:101FA00087DE02D0000187DE1ED0020E196E02C548
:101FB00024F0A16B7DDE17D0C3D61AC040F5010E08
:101FC000A16F76DE10D005010251010808E302C5B9
:101FD0001AF002C59EF00001EED6A16B69DE000189
:101FE00002D069DE00D06BEF11F01AC09EF005013F
:101FF0000151000105E00A0A0BE0010A2BE03CD088
:102000000501406B416B020E0001A16F51DE36D01D
:102010009E531EE0010E9E5D036AF2CFA0F0F29E79
:10202000CDDCA0BFF28E016E0501045DD8A002D008
:1020300000010ED0036A0451280FE96E000E032040
:10204000EA6EEFCF40F5010E0001A16F31DE01D045
:1020500032DE14D09E530EE0036A05010451280FAE
:10206000E96E000E0320EA6E02C5EFFF0001A16BCE
:102070001FDE01D020DE02D01EDE00D06BEF11F09B
:102080009F919EBF9F819E9F9FA110D0036A9E51EA
:10209000F2CFA0F0F29E0FDCA0BFF28E000A02E1A8
:1020A000000E01D0010E016E10D00FD0036A9E51B8
:1020B000F2CFA0F0F29E0FDCA0BFF28E000A02E188
:1020C000000E01D0010E016E00D0D7EF10F09F91ED
:1020D0009EBF9F819E9F9FA110D09E51080DF350DF
:1020E000040F016E040E036ED8B0032A01C0E9FF8D
:1020F00003C0EAFF880EEF6E09D09E51080DF3CFA2
:1021000001F0040E01C0E9FFEA6EEF6AE6EF10F09D
:102110009F919EBF9F819E9F9FA110D09E51080DB1
:10212000F350040F016E040E036ED8B0032A01C0F1
:10213000E9FF03C0EAFF840EEF6E0AD09E51080D3E
:10214000F3CF01F0040E01C0E9FFEA6E840EEF6EDA
:10215000ECEF10F09F919EBF9F819E9F9FA110D09A
:102160009E51080DF350040F016E040E036ED8B09B
:10217000032A01C0E9FF03C0EAFFEFCFA0F00AD0B5
:102180009E51080DF3CF01F0040E01C0E9FFEA6E85
:10219000EFCFA0F0A0AF02D0A0B502D0000E01D0CA
:1021A000010E016EF6EF10F004C59EF069D70152E2
:1021B00029E005010151010A000105E0020A09E0D8
:1021C000030A0DE01DD004C59EF081D7A16B70DD20
:1021D00019D004C59EF09CD7A16B6ADD13D0050110
:1021E000406B416B04C59EF00001B4D7015204E07E
:1021F000010E0501406F0001020EA16F59DD02D0F2
:102200005ADD00D06BEF11F0FE0E206E000C0501C0
:10221000042D01D002D0045348E1015100010BE02C
:10222000010A0DE0210A1CE0010A1FE0030A2EE06A
:10223000010A31E037D0010E816FE6DF35D0050E9F
:10224000EA6E400EE96EE26A330EE16E080E016E30
:10225000E6CFEEFF012EFCD706C5A1F029DD24D084
:10226000020E816F7B83D0DF1FD0050EEA6E400E19
:10227000E96EE26A2A0EE16E070E016EE6CFEEFF0E
:10228000012EFCD7070EA16F13DD0ED002C580F022
:10229000A16B0EDD09D002C532F003C531F0A16B90
:1022A00007DD02D008DD00D0050100016BEF11F061
:1022B000196A050100517F0B000107E0010A06E0E1
:1022C000030A05E0230A04E004D03ED68ED66CD77C
:1022D0009ED7F1DC00D050EF13F09E51080DF3CFE4
:1022E00001F0040E01C0E9FFEA6EEFCFA0F09F51AC
:1022F000020806E1A0AD02D09F6B02D0010E9F6FD5
:102300009F51030812E1840EA06F9E51080DF350F7
:10231000040F016E040E036ED8B0032A01C0E9FF5A
:1023200003C0EAFF840EEF6E09D09F2D03D0C80EC4
:10233000A06F04D09F5302E1880EA06F036A010EC4
:10234000026E9E51006E05E0D89002360336002ED4
:10235000FBD70250FF0A006EFF0E031A00501D1635
:1023600003501E16D8909E35036AF2CFA3F0F29E5A
:1023700093EC0CF00900F5CF03F0A3BFF28EA16F30
:1023800003C0A2F09E51080DF350010F016E040E20
:10239000036ED8B0032A01C0E9FF03C0EAFFA1C061
:1023A000EFFFA2B1A081A2B3A0839E51080DF3CF8D
:1023B00001F0040E01C0E9FFEA6EA0C0EFFF000CBF
:1023C000AA51080DF350040F016E040E036ED8B02D
:1023D000032A01C0E9FF03C0EAFFEFCFAEF0AEBFB2
:1023E0005BD0AA51080DF350050F016E040E036E69
:1023F000D8B0032A01C0E9FF03C0EAFFABC0EFFF7A
:10240000AD51020816E1AA51080DF350040F016EF8
:10241000040E036ED8B0032A01C0E9FF03C0EAFF2F
:10242000EFCFAEF0AEAD02D0AD6B02D0010EAD6F0E
:1024300013D0AD51040810E1AA51080DF3CF01F0FB
:10244000040E01C0E9FFEA6EEFCFAEF0AEAD03D0EF
:10245000010EAD6F01D0AD6BAD2D03D0C80EAE6FC8
:1024600004D0AD5302E1880EAE6FACB1AE81ACB317
:10247000AE83AA51080DF350040F016E040E036ED3
:10248000D8B0032A01C0E9FF03C0EAFFAEC0EFFFE6
:10249000010E016E03D000D0000E016E000C8151C0
:1024A000010A03E0030A12E022D0EA6A330EE96E61
:1024B000050EE26EE16A080E016EE6CFEEFF012E18
:1024C000FCD7A16B58EC0EF0816B15D0EA6A2A0E8E
:1024D000E96E050EE26EE16A070E016EE6CFEEFFD1
:1024E000012EFCD7816BA16B58EC0EF004D0816BF0
:1024F00025EC0EF000D09DEF12F09F51080DF35027
:10250000010F016E040E036ED8B0032A01C0E9FF6B
:1025100003C0EAFF036AEFCF01F003C002F096EFB9
:1025200012F07D817F6B020E9F6FE7D701C07EF0B6
:10253000A2EF12F09E5302E1B2D714D09E510208CE
:1025400002E1EFD70FD0036A010E026E9E51006EBA
:1025500005E0D89002360336002EFBD702501D123C
:1025600003501E12000C9FC06EFF9F5303E0040E29
:102570001F6E02D0020E1F6EC3EF12F01A6A196AA4
:1025800024C09FF0F0D73AEF13F09F51080DF3509D
:10259000040F016E040E036ED8B0032A01C0E9FFD8
:1025A00003C0EAFFEFCFA7F0A7BF3FD09F51080DB0
:1025B000F350060F016E040E036ED8B0032A01C05B
:1025C000E9FF03C0EAFFECCF03F0ED52EFCFA8F034
:1025D00003C0A9F0A66BA56BA651A35D1AE303E1A6
:1025E000A251A55D16E2A0C0E9FFA1C0EAFFEFCFAE
:1025F000ACF0A9C0EAFFA8C0E9FFACC0EFFFA82B70
:10260000D8B4A92BA02BD8B4A12BA52BD8B4A62B1A
:10261000E3D79FC0AAF0A3C0ACF0A2C0ABF0A4C0A7
:10262000ADF0CEDE015003D000D0000E016E000CE4
:102630007C530DE07B91020E9F6FA16B3B0EA06F50
:10264000A36B7CC0A2F0020EA46F9FDF7C6B000C1A
:102650007C5302E0EDDF01D07B813FEF13F09E530E
:102660000AE1192C03D05EEC0EF004D019500208D8
:1026700001E184D704D09E51020801E1E9D7000CA2
:102680006C309D6F9D339D331F0E9D176C523BE147
:10269000040100513C0B34081BE1046B000108D617
:1026A000203C05D09E6B030E9F6F17DE0ED09E6BF5
:1026B000020E9F6F12DE2050FE0807E0AA6BAC6B83
:1026C00020C0ABF0040EAD6F7BDE6D9819D0040115
:1026D00000513C0B040815E100019E6B2BDF9E6B43
:1026E000020E9F6FFADD2050FE080AE0203C01D068
:1026F00007D0AA6BAC6B20C0ABF0010EAD6F60DEF3
:10270000040120D000016C50040812E1FF0E206E7D
:102710009E6BA5DF203C01D008D0AA6BAC6B20C01B
:10272000ABF0020EAD6F4CDE02D025EC0EF009D0FE
:102730006CB404D09DC09EF0FDDE03D09DC09EF021
:102740008EDF04010001D6EF13F01F5201E12FD0FC
:1027500068522DE068A404D069A402D0E0EF0DF027
:102760006DA201D024D068A204D069A202D0E5EF06
:102770000DF068A004D069A002D034EF0EF068A874
:1027800004D069A802D049EF0EF068AC04D069AC5F
:1027900002D04EEF0EF068AA04D069AA02D051EF21
:1027A0000EF068A604D069A602D06AD76896A19AEE
:1027B00038EF0CF09EAAFED7AECF9DF09D530BE0F4
:1027C0009D3D01D008D094948B749DC082F09D51A2
:1027D0001B08D8B4FF009E9A38EF0CF08C9C959C97
:1027E0008C9E959E8C9895988C9A959A000C8C9CB2
:1027F000959C8C8E959E8C9895988C8A959A000CB9
:102800008C8C959C8C9E959E8C8895988C9A959A8C
:10281000000C8C8C959C8C9E959E8C9895988C8A9F
:10282000959A000C8C9C959C8C8E959E8C88959886
:102830008C9A959A000C8551845D01E2CFDF855119
:10284000FE0812E2856B8351FB0F0DE2050F38EF96
:1028500014F0CDDF08D0D4DF06D0DBDF04D0E2DF18
:1028600002D0BCDF00D001D0852B9E9238EF0CF057
:10287000E824F76AF7368B0FF66E280EF7220A0067
:10288000F550FA6E0800F550F96E62285228562865
:102890005A285E28EA6A880EE96EEF500EE00F0EA5
:1028A000016E006A002EFED7012EFBD78F0E006E40
:1028B000002EFED70000EF2EF2D7000C6D6A696A79
:1028C000080E6F6E94503009946E1F6A186AF2BE3B
:1028D000188EF29EFBEC0DF018BEF28E1E6A1D6A79
:1028E00095EF14F0186AF2BE188EF29EFBEC0DF014
:1028F00018BEF28E6D6A140E6F6E696A6D86010ED7
:102900001F6E86EF14F06DB601D0ECD71F2C0BD0E4
:102910006DBA09D0686A696AA08AC00EF212110EF7
:10292000696E020E1F6E000CC9D7EDDF1F50020842
:10293000FCE1D0EF14F08A91F2BE8A81F29E7C51C4
:102940003F0802E23F0E7C6F7C517C2B036A3B0FF9
:10295000E96E000E0320EA6E89C0EFFFF29E8AB195
:10296000F28E7BA107D0186AF2BE188EF29E60DE4E
:1029700018BEF28ECCEF14F07C513F080AE27BA126
:1029800007D0186AF2BE188EF29E52DE18BEF28E82
:10299000F3D788C089F0CFD7000CE9EC0DF0C4D78D
:1029A0007BB306D0FA0E886F75DF94948B74F8D7DA
:1029B000876B87511BEC0DF0872B006E886FDCDF77
:1029C000170E875DF6E11EEF15F0866B876B87515A
:1029D00034EC0DF0872B006E00509EA8FED7AD6E34
:1029E000240E875DF4E1876B875154EC0DF0872B43
:1029F000006E00509EA8FED7AD6E0F0E875DF4E10D
:102A0000320E886F47DF876B875169EC0DF0872B9B
:102A1000006E00509EA8FED7AD6E060E875DF4E1F5
:102A2000876B87517AEC0DF0872B006E00509EA8C3
:102A3000FED7AD6E0A0E875DF4E1AFD7876B875185
:102A40008DEC0DF0872B006E00509EA8FED7AD6E6A
:102A50000C0E875DF4E1F18EC150C00B0F09C16E01
:102A6000C290F29CF29EF2BEFDD7C69A949E9380CD
:102A70009392000EC66EC76E9698D56ACD6ACA6EDE
:102A8000000ECB6EB150480BB16E070EB46E925073
:102A9000270E006E002EFED700D0B450A19CB56A60
:102AA0009D8AC00EF2128EEF16F08FB102D08A9A74
:102AB00001D08A8A939A8FB302D08A9801D08A88EB
:102AC00093988FB502D08A9601D08A8693968FB755
:102AD00002D08A9401D08A849394030E006E002E53
:102AE000FED700D0939C8A8C070E006E002EFED776
:102AF00000D0939C8A9C000C939E8A9EEF0E006EE1
:102B0000002EFED700D08C5303E0939E8A8E02D015
:102B1000939E8A9E0000939C8A9C8D398E6F0F0E27
:102B20008E178EC08FF0C1DF8D510F0B8E6F8F6FA0
:102B3000BCDF000C939E8A9E939C8A9C0F0E886F2C
:102B4000A9DE866B8651020808E3030E8F6FADDFA6
:102B5000050E886F9FDE862BF5D7020E8F6FA5DFDF
:102B6000866B8651030812E3036A8651F2CF87F021
:102B7000F29EA1EC0DF087BFF28E886F8C6B8D6F8B
:102B8000BBDF050E886F86DE862BEBD78FEF16F046
:102B9000D89086350C098711896F8C6B8D6FACDFEF
:102BA00092EF16F0892D01D003D0400E8A6F01D02C
:102BB0008A6B010E885D8A278A5180098B6F8C6B26
:102BC0008D6F9ADF04EF16F087510C0A05E0010AB9
:102BD0000BE0050A0EE012D08C6B010E8D6F8CDFBE
:102BE000020E886F57DE10D0010E886F020E896FBB
:102BF000D9D78C6B100E8D6F7FDF06D0010E8C6FD6
:102C000087C08DF079DF00D09AEF16F07DB101D04A
:102C1000FDD77F517F2B036A880FE96E050E0320D5
:102C2000EA6EEFCF87F07E517F5D0CE37D91186AED
:102C3000F2BE188EF29E020E9E6F9F6F6DEC11F029
:102C400018BEF28E87C001F027EF16F0DFD701C063
:102C500086F0865309E0863D01D006D086C082F01A
:102C600086511B08D8B4FF00A1EF16F08251550A17
:102C700017E0200A15E0020A1FE0200A1DE0240ADE
:102C80001DE0200A1BE0370A1BE0200A19E0250A94
:102C900019E0200A17E0300A17E0200A15E016D0E4
:102CA000866B8651B0EC0DF0862B006E886F64DE6B
:102CB000100E865DF6E10AD09ADD08D0A1DD06D0BF
:102CC000A8DD04D0AFDD02D089DD00D082C088F05D
:102CD00053DE826BA4EF16F0F86AD09E0D8EEA6A7E
:102CE000E96AB886E10EAF6E040EB06EA60EAC6E49
:102CF000900EAB6EC150C00B0F09C16E070EB46EC3
:102D00001F6A216A040E226E0E0E236E276A7C6BE8
:102D1000816B826B836B846B856B57D60BD7866B0D
:102D2000876B36D7866B8651C6EC0DF0862B006E0E
:102D3000876F4AD7190E865DF6E1E5DD7DA101D0EA
:102D400085D7825301E092D7640E886FA3DD9494F7
:062D50008B74F3D70300B1
:020000040030CA
:0E00000020C23E1E008381000FC00FE00F40A3
:00000001FF
;PIC18F4550
