:020000040000FA
:041800003CEF1FF0AA
:08180800056ED8CF06F0E0CF19
:1018100007F00001E9CF0DF0EACF08F0E1CF09F0C1
:10182000E2CF0AF0D9CF0BF0DACF0CF0F3CF14F0FF
:10183000F4CF15F0FACF16F000C00FF001C010F091
:1018400002C011F003C012F004C013F09DA22CEFEF
:101850000CF09EB26EEF16F09DAA32EF0CF09EBA1D
:101860002DEF16F0A0AA38EF0CF0A1BAF8EF15F0A2
:101870000FC000F010C001F011C002F012C003F060
:1018800013C004F00E8E0DC0E9FF08C0EAFF09C0C6
:10189000E1FF0AC0E2FF0BC0D9FF0CC0DAFF14C0A1
:1018A000F3FF15C0F4FF16C0FAFF055007C0E0FFB4
:1018B00006C0D8FF1000F76AC60FF66E180EF722A2
:1018C0000900F550120004030100000000000000B0
:1018D000000000000000F76AE60FF66E180EF7220F
:1018E0000900F55012000400010000000000000093
:1018F000000000000000F76A060FF66E190EF722CE
:101900000900F550120040000800400000000000EF
:1019100000000000000000000000000000000000C7
:101920000000000000000DAE03D0F2CF0EF0F29EDA
:10193000F76A480FF66E190EF7220900F5500DAE42
:1019400002D00EBEF28E12004000000040000000E7
:101950000000000000000000000000000000000087
:101960000000000000000000F76A780FF66E190E04
:10197000F7220900F550120009024300020100C0DD
:1019800032090400000102020100052400100104D4
:101990002402020524060001052401000107058137
:1019A000030800FA09040100020A0000000705020A
:1019B000024000FA070582024000FA00F76ACC0FE5
:1019C000F66E190EF7220900F55012000200F76AB0
:1019D000DE0FF66E190EF7220900F5501200120103
:1019E000100102000040D8040100000101020001C2
:1019F000F76A000FF66E1A0EF7220900F550120072
:101A0000040309040A03410055005200450028035D
:101A1000410075007200650042006F0061007200B5
:101A2000640020005500730062002D005300650023
:101A3000720069006500F2CF0EF0F29EF76A500F57
:101A4000F66E1A0EF7220900F5500EBEF28E120045
:101A50000D0A41555245424F540D0A5F5F5F5F5F6B
:101A60005F5F0D0A0D0A496E696369616E646F2ECE
:101A70002E2E0D0A0000F2CF0EF0F29EF76A900FA4
:101A8000F66E1A0EF7220900F5500EBEF28E120005
:101A90005B44656C6179203530206D735D0D0A0003
:101AA000F2CF0EF0F29EF76ABA0FF66E1A0EF72218
:101AB0000900F5500EBEF28E12005B4F6B5D0D0AF1
:101AC0000000F2CF0EF0F29EF76ADC0FF66E1A0EEF
:101AD000F7220900F5500EBEF28E12002D4C6564FF
:101AE0002056657264650D0A0000F2CF0EF0F29E7A
:101AF000F76A040FF66E1B0EF7220900F5500EBEB2
:101B0000F28E12002D555342204344430D0A00002B
:101B1000F2CF0EF0F29EF76A2A0FF66E1B0EF72236
:101B20000900F5500EBEF28E12002D5350492020B0
:101B300020202020202020205B4F46465D0D0A00FB
:101B4000F2CF0EF0F29EF76A5A0FF66E1B0EF722D6
:101B50000900F5500EBEF28E12002D505350202079
:101B600020202020202020205B4F46465D0D0A00CB
:101B7000F2CF0EF0F29EF76A8A0FF66E1B0EF72276
:101B80000900F5500EBEF28E12002D54696D65727B
:101B900030202020202020205B4F46465D0D0A008B
:101BA000F2CF0EF0F29EF76ABA0FF66E1B0EF72216
:101BB0000900F5500EBEF28E12002D54696D65724B
:101BC00031202020202020205B4F46465D0D0A005A
:101BD000F2CF0EF0F29EF76AEA0FF66E1B0EF722B6
:101BE0000900F5500EBEF28E12002D54696D65721B
:101BF00032202020202020205B4F46465D0D0A0029
:101C0000F2CF0EF0F29EF76A1A0FF66E1C0EF72254
:101C10000900F5500EBEF28E12002D54696D6572EA
:101C200033202020202020205B4F46465D0D0A00F7
:101C3000F2CF0EF0F29EF76A4A0FF66E1C0EF722F4
:101C40000900F5500EBEF28E12002D436F6D7061CB
:101C50007261646F722020205B4F46465D0D0A0062
:101C6000F2CF0EF0F29EF76A7A0FF66E1C0EF72294
:101C70000900F5500EBEF28E12002D4144430D0AAC
:101C80000000F2CF0EF0F29EF76A9C0FF66E1C0E6B
:101C9000F7220900F5500EBEF28E12002D4C445270
:101CA0007320636F6E6669677572616461730D0A94
:101CB0000000F2CF0EF0F29EF76ACC0FF66E1C0E0B
:101CC000F7220900F5500EBEF28E1200280C010614
:101CD000F2CF0EF0F29EF76AEA0FF66E1C0EF722B4
:101CE0000900F5500EBEF28E120056656C3A2025A2
:101CF000750D0A00F2CF0EF0F29EF76A0E0FF66E27
:101D00001D0EF7220900F5500EBEF28E12004E6134
:101D1000766567612E206175746F6E6F6D6100006E
:101D2000F2CF0EF0F29EF76A3A0FF66E1D0EF72212
:101D30000900F5500EBEF28E12002A2A2A214164B3
:101D4000656C616E7465212A2A2A0000F2CF0EF0BC
:101D5000F29EF76A660FF66E1D0EF7220900F55027
:101D60000EBEF28E120021557073216F6273746182
:101D7000632E697A64610000F2CF0EF0F29EF76A7A
:101D8000920FF66E1D0EF7220900F5500EBEF28E70
:101D9000120021557073216F62737461632E646346
:101DA00068610000F2CF0EF0F29EF76ABE0FF66E89
:101DB0001D0EF7220900F5500EBEF28E12003C53A4
:101DC000493A25633E3C53443A25633E0000F2CF36
:101DD0000EF0F29EF76AE80FF66E1D0EF72209006C
:101DE000F5500EBEF28E12003C43493A25633E3C4C
:101DF00043443A25633E0000F2CF0EF0F29EF76AAC
:101E0000120FF66E1E0EF7220900F5500EBEF28E6E
:101E100012003C50553A483E0000F2CF0EF0F29EC0
:101E2000F76A340FF66E1E0EF7220900F5500EBE4B
:101E3000F28E12003C50553A4C3E0000F2CF0EF0AC
:101E4000F29EF76A560FF66E1E0EF7220900F55045
:101E50000EBEF28E12003C42493A483E0000F2CFDC
:101E60000EF0F29EF76A780FF66E1E0EF72209004A
:101E7000F5500EBEF28E12003C42493A4C3E000034
:101E8000F2CF0EF0F29EF76A9A0FF66E1E0EF72250
:101E90000900F5500EBEF28E12003C42443A483E14
:101EA0000000F2CF0EF0F29EF76ABC0FF66E1E0E27
:101EB000F7220900F5500EBEF28E12003C42443A61
:101EC0004C3E0000F2CF0EF0F29EF76ADE0FF66E87
:101ED0001E0EF7220900F5500EBEF28E12005F5F53
:101EE0005F5F5F5F4D454E555F5F5F5F5F5F0D00FA
:101EF000F2CF0EF0F29EF76A0A0FF66E1F0EF7226F
:101F00000900F5500EBEF28E1200206C6472206142
:101F1000206C63642020202020200000F2CF0EF0EF
:101F2000F29EF76A360FF66E1F0EF7220900F55083
:101F30000EBEF28E12004F4B204C44522041204CDA
:101F40004344202020200000F2CF0EF0F29EF76ADA
:101F5000620FF66E1F0EF7220900F5500EBEF28ECC
:101F6000120020636E792061206C636420202020A1
:101F700020200000F2CF0EF0F29EF76A8E0FF66E70
:101F80001F0EF7220900F5500EBEF28E12004F4BC5
:101F900020434E592041204C434420202020000063
:101FA000F2CF0EF0F29EF76ABA0FF66E1F0EF7220E
:101FB0000900F5500EBEF28E1200206E6176656744
:101FC0006163696F6E206175746F0000F2CF0EF06F
:101FD000F29EF76AE60FF66E1F0EF7220900F55023
:101FE0000EBEF28E12004F4B204E415645474143E4
:101FF000494F4E2020200000F2CF0EF0F29EF76AEB
:10200000120FF66E200EF7220900F5500EBEF28E6A
:1020100012002062757363616C757A202020202085
:1020200020200000F2CF0EF0F29EF76A3E0FF66E0F
:10203000200EF7220900F5500EBEF28E12004F4B13
:102040002042555343414C555A2020202020000067
:102050006D926994689403EF16F06A6A68920CEFC7
:1020600016F02D6A2C6A250E2B6E800E2A6E2E6AB3
:102070002F6A080E306E806B7B93326A316A7C6BFC
:102080007D917B81000CB36BB35101080AE3036AB5
:10209000B351280FE96E000E0320EA6EEF6AB32BEE
:1020A000F3D7DFDF1A6A010E1B6E196A000C010EEE
:1020B000BC6FBC510F080EE3700EBC25016E0F0EF5
:1020C000036ED8B0032A01C0E9FF03C0EAFFEF6A3C
:1020D000BC2BEFD71E6A1D6A000C400E0401016F75
:1020E000050E036F026B880E006F046B050E076F01
:1020F000400E066F0001000C6A6A686A9F0E6B6EE4
:10210000390E696E6E6ABFDFD2DF160E706E68A67A
:1021100002D06896FCD76D98E0DF030E1F6E12EFB9
:1021200016F0698468986D8218EF16F0689C1EEFAF
:1021300016F070A002D0D1DF7090689A24EF16F0EC
:10214000B7C020F0000CFF0E206E000CB56B2752BC
:1021500036E0B5513F0833E31C5005E0020A0EE0BB
:10216000010A16E01FD0036A2650F2CFB7F0F29EA4
:10217000B4EC0CF0B7BFF28EB66F14D0036A2650E1
:10218000F2CFB7F0F29E34DCB7BFF28EB66F0AD052
:10219000036A2650F2CFB7F0F29E19DCB7BFF28E79
:1021A000B66F00D0262A2706B551B52B036A400F1B
:1021B000E96E050E0320EA6EB6C0EFFFC8D72752BE
:1021C00004E1B551400801E0196AB5C0B7F0B8DFC5
:1021D000000C266A1C6A05010351010A000105E092
:1021E000030A08E0010A09E020D0120E276E030E50
:1021F0001C6E1DD0430E276E1AD0020E1C6E036A91
:1022000005010251210FE96E000E0320EA6EEFCFA7
:1022100026F0036A2650F2CFB4F0F29E0001F8ECEB
:102220000CF0B4BFF28E276E02D08DDF0CD005010A
:10223000075305E12750065D02E206C527F0010EAF
:10224000196E000183DF43EF12F0B45304E1040E72
:102250001F6E2DDFC7D0050E1F6EB76F800EB66FD5
:10226000010EB56FB5510F08D8A0BCD0B86B036A8A
:10227000B551F2CFBCF0F29E6BEC0CF0BCBFF28E0D
:10228000000A53E0040EB86FD890B535036AF2CF58
:10229000BCF0F29E93EC0CF00900F5CF03F0BCBF4C
:1022A000F28EB96F03C0BAF0B551080DF350010FAB
:1022B000016E040E036ED8B0032A01C0E9FF03C00B
:1022C000EAFFB9C0EFFFB551080DF350020F016EE0
:1022D000040E036ED8B0032A01C0E9FF03C0EAFF71
:1022E000B7C0ECFFED52B6C0EFFFD890B535036A2A
:1022F000F2CFBCF0F29E93EC0CF00900F5CF03F0A6
:10230000BCBFF28EB6270350B723880EBB6FBAB19D
:10231000BB81BAB3BB83B551080DF3CF01F0040EF6
:1023200001C0E9FFEA6EBBC0EFFF036AB551F2CF0F
:10233000BCF0F29E5BEC0CF0BCBFF28E000A32E007
:10234000B883B551080DF350060F016E040E036EED
:10235000D8B0032A01C0E9FF03C0EAFFB7C0ECFF11
:10236000ED52B6C0EFFFD890B535036AF2CFBCF09E
:10237000F29E7BEC0CF00900F5CF03F0BCBFF28EAF
:10238000B6270350B723B551080DF350040F016E63
:10239000040E036ED8B0032A01C0E9FF03C0EAFFB0
:1023A000400EEF6EB851060802E10E0EB86F036AD8
:1023B000B551F2CFBCF0F29E5BEC0CF0BCBFF28EDC
:1023C000020801E0B889700EB525016E0F0E036E8C
:1023D000D8B0032A01C0E9FF03C0EAFFB8C0EFFF8D
:1023E000B52B40D73DEF12F00501015100010DE082
:1023F000010A14E0020A1EE0060A27E0030A2CE0A4
:102400000E0A2BE0010A2FE03CD01BC040F505016D
:10241000416B020E0001B76F93DE35D00501022D2E
:1024200006D0010E1B160001B76B8ADE02D0000138
:102430008ADE29D00501022D05D01B820001B76B71
:102440007FDE02D000017FDE1ED0020E196E02C5B3
:1024500024F0B76B75DE17D0BCD61AC040F5010E5C
:10246000B76F6EDE10D005010251010808E302C506
:102470001AF002C5B4F00001E8D6B76B61DE0001C6
:1024800002D061DE00D0BEEF13F01AC0B4F0050137
:102490000151000105E00A0A0BE0010A2CE03DD0E1
:1024A0000501406B416B020E0001B76F49DE37D06A
:1024B000B4531FE0010EB45D036AF2CFB6F0F29E92
:1024C000DEEC0CF0B6BFF28E016E0501045DD8A003
:1024D00002D000010ED0036A0451280FE96E000EED
:1024E0000320EA6EEFCF40F5010E0001B76F28DE42
:1024F00001D029DE14D0B4530EE0036A0501045163
:10250000280FE96E000E0320EA6E02C5EFFF0001FE
:10251000B76B16DE01D017DE02D015DE00D0BEEF9D
:1025200013F0B591B4BFB581B49FB5A111D0036AC2
:10253000B451F2CFB6F0F29E5BEC0CF0B6BFF28E67
:10254000000A02E1000E01D0010E016E11D010D080
:10255000036AB451F2CFB6F0F29E6BEC0CF0B6BF4A
:10256000F28E000A02E1000E01D0010E016E00D0D1
:102570002AEF13F0B591B4BFB581B49FB5A110D0C7
:10258000B451080DF350040F016E040E036ED8B061
:10259000032A01C0E9FF03C0EAFF880EEF6E09D0ED
:1025A000B451080DF3CF01F0040E01C0E9FFEA6E4B
:1025B000EF6A39EF13F0B591B4BFB581B49FB5A1FF
:1025C00010D0B451080DF350040F016E040E036EC9
:1025D000D8B0032A01C0E9FF03C0EAFF840EEF6E02
:1025E0000AD0B451080DF3CF01F0040E01C0E9FF89
:1025F000EA6E840EEF6E3FEF13F0B591B4BFB58174
:10260000B49FB5A110D0B451080DF350040F016E62
:10261000040E036ED8B0032A01C0E9FF03C0EAFF2D
:10262000EFCFB6F00AD0B451080DF3CF01F0040E8D
:1026300001C0E9FFEA6EEFCFB6F0B6AF02D0B6B593
:1026400002D0000E01D0010E016E49EF13F004C557
:10265000B4F067D7015229E005010151010A0001D8
:1026600005E0020A09E0030A0DE01DD004C5B4F03C
:1026700081D7B76B65DD19D004C5B4F09CD7B76BB3
:102680005FDD13D00501406B416B04C5B4F0000160
:10269000B4D7015204E0010E0501406F0001020EA3
:1026A000B76F4EDD02D04FDD00D0BEEF13F0FE0E4F
:1026B000206E000C0501042D01D002D0045348E126
:1026C000015100010BE0010A0DE0210A1CE0010AA2
:1026D0001FE0030A2EE0010A31E037D0010E816FBE
:1026E000E6DF35D0050EEA6E400EE96EE26A330E83
:1026F000E16E080E016EE6CFEEFF012EFCD706C597
:10270000B7F01EDD24D0020E816F7B83D0DF1FD097
:10271000050EEA6E400EE96EE26A2A0EE16E070EC1
:10272000016EE6CFEEFF012EFCD7070EB76F08DD76
:102730000ED002C580F0B76B03DD09D002C532F0C0
:1027400003C531F0B76BFCDC02D0FDDC00D0050125
:102750000001BEEF13F0196A050100517F0B000163
:1027600007E0010A06E0030A05E0230A04E004D0BA
:102770003BD68BD66CD79ED7E6DC00D0A3EF15F006
:10278000B451080DF3CF01F0040E01C0E9FFEA6E69
:10279000EFCFB6F0B551020806E1B6AD02D0B56B89
:1027A00002D0010EB56FB551030812E1840EB66F69
:1027B000B451080DF350040F016E040E036ED8B02F
:1027C000032A01C0E9FF03C0EAFF840EEF6E09D0BF
:1027D000B52D03D0C80EB66F04D0B55302E1880EF4
:1027E000B66F036A010E026EB451006E05E0D89018
:1027F00002360336002EFBD70250FF0A006EFF0E92
:10280000031A00501D1603501E16D890B435036AE3
:10281000F2CFB9F0F29E93EC0CF00900F5CF03F083
:10282000B9BFF28EB76F03C0B8F0B451080DF350C2
:10283000010F016E040E036ED8B0032A01C0E9FF38
:1028400003C0EAFFB7C0EFFFB8B1B681B8B3B68333
:10285000B451080DF3CF01F0040E01C0E9FFEA6E98
:10286000B6C0EFFF000CC051080DF350040F016E0D
:10287000040E036ED8B0032A01C0E9FF03C0EAFFCB
:10288000EFCFC4F0C4BF5BD0C051080DF350050FAB
:10289000016E040E036ED8B0032A01C0E9FF03C025
:1028A000EAFFC1C0EFFFC351020816E1C051080D95
:1028B000F350040F016E040E036ED8B0032A01C05A
:1028C000E9FF03C0EAFFEFCFC4F0C4AD02D0C36B91
:1028D00002D0010EC36F13D0C351040810E1C051E0
:1028E000080DF3CF01F0040E01C0E9FFEA6EEFCF4F
:1028F000C4F0C4AD03D0010EC36F01D0C36BC32DB0
:1029000003D0C80EC46F04D0C35302E1880EC46F55
:10291000C2B1C481C2B3C483C051080DF350040FC7
:10292000016E040E036ED8B0032A01C0E9FF03C094
:10293000EAFFC4C0EFFF010E016E03D000D0000E0D
:10294000016E000C8151010A03E0030A12E022D05B
:10295000EA6A330EE96E050EE26EE16A080E016E58
:10296000E6CFEEFF012EFCD7B76BA0EC10F0816B29
:1029700015D0EA6A2A0EE96E050EE26EE16A070ECC
:10298000016EE6CFEEFF012EFCD7816BB76BA0EC9A
:1029900010F004D0816B6DEC10F000D0F0EF14F06B
:1029A000B551080DF350010F016E040E036ED8B03F
:1029B000032A01C0E9FF03C0EAFF036AEFCF01F079
:1029C00003C002F0E9EF14F07D817F6B020EB56F5A
:1029D000E7D701C07EF0F5EF14F0B45302E1B2D7AF
:1029E00014D0B451020802E1EFD70FD0036A010EF0
:1029F000026EB451006E05E0D89002360336002E08
:102A0000FBD702501D1203501E12000CB5C06EFF02
:102A1000B55303E0040E1F6E02D0020E1F6E16EFB8
:102A200015F01A6A196A24C0B5F0F0D78DEF15F0C9
:102A3000B551080DF350040F016E040E036ED8B0AB
:102A4000032A01C0E9FF03C0EAFFEFCFBDF0BDBF1D
:102A50003FD0B551080DF350060F016E040E036E02
:102A6000D8B0032A01C0E9FF03C0EAFFECCF03F0AE
:102A7000ED52EFCFBEF003C0BFF0BC6BBB6BBC51DF
:102A8000B95D1AE303E1B851BB5D16E2B6C0E9FFD8
:102A9000B7C0EAFFEFCFC2F0BFC0EAFFBEC0E9FF98
:102AA000C2C0EFFFBE2BD8B4BF2BB62BD8B4B72B08
:102AB000BB2BD8B4BC2BE3D7B5C0C0F0B9C0C2F0B3
:102AC000B8C0C1F0BAC0C3F0CEDE015003D000D010
:102AD000000E016E000C7C530DE07B91020EB56F71
:102AE000B76B3B0EB66FB96B7CC0B8F0020EBA6F15
:102AF0009FDF7C6B000C7C5302E0EDDF01D07B811B
:102B000092EF15F0B4530AE1192C03D0A6EC10F0A3
:102B100004D01950020801E184D704D0B45102084E
:102B200001E1E9D7000C6C30B36FB333B3331F0E40
:102B3000B3176C523BE1040100513C0B34081BE11C
:102B4000046B000108D6203C05D0B46B030EB56FB2
:102B500017DE0ED0B46B020EB56F12DE2050FE08E9
:102B600007E0C06BC26B20C0C1F0040EC36F7BDEF8
:102B70006D9819D0040100513C0B040815E10001C7
:102B8000B46B2BDFB46B020EB56FFADD2050FE087C
:102B90000AE0203C01D007D0C06BC26B20C0C1F05E
:102BA000010EC36F60DE040120D000016C500408E8
:102BB00012E1FF0E206EB46BA5DF203C01D008D0DF
:102BC000C06BC26B20C0C1F0020EC36F4CDE02D0DE
:102BD0006DEC10F009D06CB404D0B3C0B4F0FDDEDD
:102BE00003D0B3C0B4F08EDF0401000129EF16F06A
:102BF0001F5201E12FD068522DE068A404D069A4CF
:102C000002D028EF10F06DA201D024D068A204D029
:102C100069A202D02DEF10F068A004D069A002D004
:102C20007CEF10F068A804D069A802D091EF10F0F2
:102C300068AC04D069AC02D096EF10F068AA04D05A
:102C400069AA02D099EF10F068A604D069A602D054
:102C50006AD76896A19A38EF0CF09EAAFED7AECF3D
:102C6000B3F0B3530BE0B33D01D008D094948B7410
:102C7000B3C082F0B3511B08D8B4FF009E9A38EF5E
:102C80000CF08C9C959C8C9E959E8C9895988C9A1B
:102C9000959A000C8C9C959C8C8E959E8C98959802
:102CA0008C8A959A000C8C8C959C8C9E959E8C8819
:102CB00095988C9A959A000C8C8C959C8C9E959EE0
:102CC0008C9895988C8A959A000C8C9C959C8C8EEF
:102CD000959E8C8895988C9A959A000C8551845D68
:102CE00001E2CFDF8551FE0812E2856B8351FB0FB5
:102CF0000DE2050F8BEF16F0CDDF08D0D4DF06D044
:102D0000DBDF04D0E2DF02D0BCDF00D001D0852BB6
:102D10009E9238EF0CF0E824F76AF736310FF66E22
:102D20002D0EF7220A00F550FA6E0800F550F96EE4
:102D3000082DF82CFC2C002D042DEA6AA80EE96E53
:102D4000EF500EE00F0E016E006A002EFED7012E2E
:102D5000FBD78F0E006E002EFED70000EF2EF2D7AD
:102D6000000C6D6A696A080E6F6E94503009946E9B
:102D70001F6A186AF2BE188EF29E43EC10F018BE5D
:102D8000F28E1E6A1D6AE8EF16F0186AF2BE188EFF
:102D9000F29E43EC10F018BEF28E6D6A140E6F6E48
:102DA000696A6D86010E1F6ED9EF16F06DB601D0FF
:102DB000ECD71F2C0BD06DBA09D0686A696AA08A5B
:102DC000C00EF212110E696E020E1F6E000CC9D7F2
:102DD000EDDF1F500208FCE1F1EF16F031EC10F0CE
:102DE000F6D776EF17F09591F2BE9581F29E7C5161
:102DF0003F0802E23F0E7C6F7C517C2B036A3B0F45
:102E0000E96E000E0320EA6E94C0EFFFF29E95B1CA
:102E1000F28E7BA107D0186AF2BE188EF29E5BDE9E
:102E200018BEF28E24EF17F07C513F080AE27BA116
:102E300007D0186AF2BE188EF29E4DDE18BEF28ED2
:102E4000F3D793C094F0CFD7000C8F6B906B905159
:102E50001BEC0DF0902B006E00509EA8FED7AD6EBF
:102E6000240E905DF4E1906B90513BEC0DF0902BB3
:102E7000006E00509EA8FED7AD6E0F0E905DF4E17F
:102E8000320EA86F5ADF906B905150EC0DF0902BE2
:102E9000006E00509EA8FED7AD6E060E905DF4E168
:102EA0008F6B8F51090807E394948B74640EA86F9D
:102EB00044DF8F2BF6D7906B905161EC0DF0902B87
:102EC000006E00509EA8FED7AD6E0C0E905DF4E132
:102ED000906B905175EC0DF0902B006E00509EA8F9
:102EE000FED7AD6E0A0E905DF4E178D7F18EC15039
:102EF000C00B0F09C16EC150C00B0F09C16EC2904B
:102F0000F29CF29EF2BEFDD7C69A949E9380939255
:102F1000000EC66EC76E906B905188EC0DF0902B32
:102F2000006E936F81DF150E905DF6E19698906BC1
:102F30009051A0EC0DF0902B006E936F75DF150E85
:102F4000905DF6E1D56A906B9051B8EC0DF0902B46
:102F5000006E936F69DF150E905DF6E1CD6A906BA0
:102F60009051D0EC0DF0902B006E936F5DDF150E3D
:102F7000905DF6E1000ECA6E000ECB6E906B905124
:102F8000E8EC0DF0902B006E936F4EDF150E905D08
:102F9000F6E1B150480BB16E906B905100EC0EF021
:102FA000902B006E936F40DF150E905DF6E1070EDB
:102FB000B46E9250270E006E002EFED700D0B45093
:102FC000A19C906B905118EC0EF0902B006E936FBB
:102FD0002BDF150E905DF6E1B56A9D8AC00EF212E8
:102FE00065EF1FF0AFB102D08A9A01D08A8A939A16
:102FF000AFB302D08A9801D08A889398AFB502D037
:103000008A9601D08A869396AFB702D08A9401D06F
:103010008A849394030E006E002EFED700D0939CFA
:103020008A8C070E006E002EFED700D0939C8A9CDF
:10303000000C939E8A9EEF0E006E002EFED700D0ED
:10304000AC5303E0939E8A8E02D0939E8A9E00002A
:10305000939C8A9CAD39AE6F0F0EAE17AEC0AFF029
:10306000C1DFAD510F0BAE6FAF6FBCDF000C939E95
:103070008A9E939C8A9C0F0EA86F5FDE8F6B8F5188
:10308000020808E3030EAF6FADDF050EA86F55DE33
:103090008F2BF5D7020EAF6FA5DF8F6B8F51030813
:1030A00012E3036A8F51F2CF90F0F29E59EC0EF0CA
:1030B00090BFF28E916FAC6BAD6FBBDF050EA86F4A
:1030C0003CDE8F2BEBD7000CD8908F350C0990117C
:1030D000926FAC6BAD6FADDF72EF18F0C8DF8F6B26
:1030E000906BF2D767EF1FF07DB101D0FDD77F5114
:1030F0007F2B036A880FE96E050E0320EA6EEFCF7F
:1031000090F07E517F5D0CE37D91186AF2BE188EBF
:10311000F29E020EB46FB56FC0EC13F018BEF28EC3
:1031200090C001F095EF18F0DFD701C08FF08F53FA
:103130000BE08F3D01D008D094948B748FC082F047
:103140008F511B08D8B4FF00000CA851016AA75D7D
:1031500003E2A7C000F00CD0006A080EA96FA737E1
:103160000036A851005CD8B0006E0136A92FF7D701
:10317000000C015091C0A7F0640EA86FE6DF00C0FC
:1031800091F00150300E07E192A30CD092B70AD013
:1031900092B9200E03D0929792999281012601C094
:1031A00093F042DE91C0A7F00A0EA86FCEDF00C0F8
:1031B00091F00150300E06E192B708D092A106D0EE
:1031C00092B9200E012601C093F02EDE300E912719
:1031D00091C093F029DE06EF19F08F518425FF0886
:1031E00005E08F51842502E08F518427906B905128
:1031F00068EC0EF0902B006E936F16DE050E905D5E
:10320000F6E184C091F01B0E926FB3D70D0E936F51
:103210000BDE0A0E936F08DE000C8FC084F0010EE7
:10322000836F9CEF19F0846B836B9CEF19F094947F
:103230008B748251310A25E0030A2AE0010A2FE04B
:10324000070A34E0010A39E0030A3EE0410A43E09C
:10325000040A43E0170A43E0050A43E0100A43E08A
:103260001F0A43E0030A44E0170A45E0020A44E06B
:103270001E0A43E0010A45E00C0A47E0070A48E05D
:1032800048D0872D02D0876B02D0010E876F54D0B3
:10329000882D02D0886B02D0010E886F4DD0892D09
:1032A00002D0896B02D0010E896F46D08A2D02D0E0
:1032B0008A6B02D0010E8A6F3FD08B2D02D08B6BB0
:1032C00002D0010E8B6F38D0862D02D0866B02D0D3
:1032D000010E866F31D0DEDC2FD0E5DC2DD0ECDCAA
:1032E0002BD0F3DC29D0CDDC27D0929A897A24D058
:1032F00096908D7021D020D01FD0FB0E8F6F6DDF88
:103300001BD0050E8F6F69DF17D0C80E8F6F85D762
:103310008AD74E0E936F88DD520E936F85DD3A0E7D
:10332000936F82DD82C093F07FDD0D0E936F7CDDA5
:103330000A0E936F79DD00D0826B000C37DD7DA122
:1033400004D0F2DE825301E072DF69EF1FF0925188
:10335000070B006E9231016E013201321F0E011611
:1033600001509425E96E000E9521EA6E016A012A4A
:10337000002A01D00136002EFDD7935303E00150FF
:10338000EF1203D0011E0150EF16BEEF20F0925154
:10339000070B006E9231016E013201321F0E0116D1
:1033A00001509325E96E000E9421EA6EEFCF01F0F3
:1033B000002A01D00132002EFDD7C6EF20F0A92D42
:1033C00001D003D0400EAA6F01D0AA6B010EA85DF8
:1033D000AA27AA518009AB6FAC6BAD6F2ADE000C37
:1033E000A7510C0A05E0010A0BE0050A0FE013D013
:1033F000AC6B010EAD6F1DDE020EA86F9EDC11D00E
:10340000010EA86F020EA96FDADF0BD0AC6B100EA5
:10341000AD6F0FDE06D0010EAC6FA7C0ADF009DEB8
:1034200000D0000CC150C00B0D09C16EC080C0821D
:10343000C084C09EC280A56BA55130EC0EF0A52BB8
:10344000006E00509EA8FED7AD6E060EA55DF4E19D
:10345000A56BA55141EC0EF0A52B006E00509EA867
:10346000FED7AD6E140EA55DF4E1000C016A026A90
:10347000006A036AA35102E1A25118E0100EA46F82
:10348000D890A037A13700360336A351035C02E180
:10349000A251005C07E3A251005ED8A00306A3512D
:1034A000035ED88001360236A42FEAD7000C015003
:1034B000A5C0A7F0640EA86F48DE00C0A5F00150BB
:1034C000300E07E1A6A30CD0A6B70AD0A6B9200EED
:1034D00003D0A697A699A681012601C0A7F080DF98
:1034E000A5C0A7F00A0EA86F30DE00C0A5F00150FD
:1034F000300E06E1A6B708D0A6A106D0A6B9200EC8
:10350000012601C0A7F06CDF300EA527A5C0A7F0EB
:1035100067DF000C87DF928880B8CCD0010EA86FDF
:10352000A96F4DDF010EA56FA535006E0036FC0EAC
:103530000016C250C30B0010C26EC282C2B2FED7C8
:10354000C4CFA5F0A5C001F001C091F0906B91C06F
:103550008FF090C0A1F08FC0A0F0A36B160EA26FE9
:1035600085DF02C090F001C08FF0926B92510B0882
:103570001AE3905303E192518F5D0AE3036A92517B
:10358000930FE96E000E0320EA6EDB0EEF6E09D09A
:10359000036A9251930FE96E000E0320EA6E2D0E1E
:1035A000EF6E922BE3D79F6B91C0A5F0030EA66F31
:1035B0007EDF7C0EA76F14DFEA6A930EE96E000EC1
:1035C000EF100FE0EACFA1F0E9CFA0F0EFCFA7F026
:1035D00007DFA1C0EAFFA0C0E9FFE92AD8B4EA2AC0
:1035E000EED70D0EA76FFCDEA56BA535006E00367D
:1035F000FC0E0016C250C30B0010C26EC282C2B2D3
:10360000FED7C4CFA5F0A5C001F001C091F0906B2A
:1036100091C08FF090C0A1F08FC0A0F0A36B160EE8
:10362000A26F24DF02C090F001C08FF0926B925124
:103630000B081AE3905303E192518F5D0AE3036A8A
:103640009251930FE96E000E0320EA6EDB0EEF6ECF
:1036500009D0036A9251930FE96E000E0320EA6EBF
:103660002D0EEF6E922BE3D79F6B91C0A5F0030E4A
:10367000A66F1DDF7C0EA76FB3DEEA6A930EE96EBC
:10368000000EEF100FE0EACFA1F0E9CFA0F0EFCFEE
:10369000A7F0A6DEA1C0EAFFA0C0E9FFE92AD8B4DE
:1036A000EA2AEED70D0EA76F9BDE280EA86F9DECC1
:1036B00016F031D742EF21F0B5DE928880B8CDD038
:1036C000010EA86FA96F7BDE020EA56FA535006EF7
:1036D0000036FC0E0016C250C30B0010C26EC28230
:1036E000C2B2FED7C4CFA5F0A5C001F001C091F0D1
:1036F000906B91C08FF090C0A1F08FC0A0F0A36B31
:10370000160EA26FB3DE02C090F001C08FF0926B74
:1037100092510B081AE3905303E192518F5D0AE333
:10372000036A9251930FE96E000E0320EA6EDB0EDE
:10373000EF6E09D0036A9251930FE96E000E0320D9
:10374000EA6E2D0EEF6E922BE3D79F6B91C0A5F022
:10375000030EA66FACDE7C0EA76F42DEEA6A930E04
:10376000E96E000EEF100FE0EACFA1F0E9CFA0F074
:10377000EFCFA7F035DEA1C0EAFFA0C0E9FFE92A3C
:10378000D8B4EA2AEED70D0EA76F2ADE030EA56F76
:10379000A535006E0036FC0E0016C250C30B00109B
:1037A000C26EC282C2B2FED7C4CFA5F0A5C001F0DE
:1037B00001C091F0906B91C08FF090C0A1F08FC0CC
:1037C000A0F0A36B160EA26F51DE02C090F001C0F4
:1037D0008FF0926B92510B081AE3905303E19251D0
:1037E0008F5D0AE3036A9251930FE96E000E032086
:1037F000EA6EDB0EEF6E09D0036A9251930FE96E09
:10380000000E0320EA6E2D0EEF6E922BE3D79F6B16
:1038100091C0A5F0030EA66F4ADE7C0EA76FE0DD17
:10382000EA6A930EE96E000EEF100FE0EACFA1F006
:10383000E9CFA0F0EFCFA7F0D3DDA1C0EAFFA0C091
:10384000E9FFE92AD8B4EA2AEED70D0EA76FC8DD42
:10385000280EA86F9DEC16F030D781EF21F0010EF5
:10386000915F0CE3EA6A910EE96EEF5007E0020EF9
:10387000006E002EFED700D0EF2EF9D7000C906B13
:10388000906B905195080CE394908B80C80E916FCB
:10389000E6DF94908B90C80E916FE1DF902BF1D70B
:1038A000000C010EA86FA96F8ADD906B90517AEC25
:1038B0000EF0902B006EA76F93DD100E905DF6E179
:1038C0008F6B8F51090807E3DADF640EA86F9DEC58
:1038D00016F08F2BF6D7928880A801D0FCD792885B
:1038E00080B87BD0010EA86F020EA96F68DD906BC7
:1038F000905190EC0EF0902B006EA76F71DD100EC2
:10390000905DF6E1929A898A96908D80D6EC16F0B9
:103910004AEC16F0928480A42ED0010EA86F020EFD
:10392000A96F4DDD906B9051A6EC0EF0902B006EC0
:10393000A76F56DD100E905DF6E1929A899A41ECE0
:1039400016F09DDF640EA86F9DEC16F098DF53EC27
:1039500016F0020E906F960EA86F9DEC16F0902F49
:10396000FAD75CEC16F0020E906F960EA86F9DECE5
:1039700016F0902FFAD7928680A62ED0010EA86F4F
:10398000020EA96F1CDD906B9051BCEC0EF0902BD9
:10399000006EA76F25DD100E905DF6E196908D907C
:1039A00041EC16F06CDF640EA86F9DEC16F067DF3B
:1039B00053EC16F0020E906F960EA86F9DEC16F069
:1039C000902FFAD765EC16F0020E906F960EA86F46
:1039D0009DEC16F0902FFAD782D741EC16F0928822
:1039E00080A801D0FCD7C0EF21F08E0E006EA6C0DB
:1039F00001F0A5C002F0036A015209E102C001F022
:103A0000026A080E005E015202E1006A08D0D890F6
:103A100001BE04D0023601360006F9D7019E000C23
:103A2000A551D8B4A5D0B16FA951D8B4A1D0B15F78
:103A300005E37F0EB127D8B09BD006D0810EB15FD1
:103A4000D8A096D0D8B494D0B1C000F0016A026A70
:103A5000036AB06BA6C0AFF0AF8FA7C0AEF0A8C02E
:103A6000ADF0190EB16FAC51AD5F0DE2010EAE5F5E
:103A70000AE2AF5F08E2B05F06E2B02BAF2BAE2BDD
:103A8000AC51AD2728D0AB51AE5F12E2010EAF5F53
:103A90000FE2B05F0DE2B02BAF2BAB51AE27AC51B4
:103AA000AD2719E3AE2B17E1AF2B15E1B02B13D0E7
:103AB000AA518009AF5F0EE2010EB05F0BE2B02B9E
:103AC000AA518009AF27AB51AE27E9E3AF2BE7E15D
:103AD000B02BE5D70380B12F01D00BD0D890AD37F4
:103AE000AE37AF37B037D890033602360136B2372B
:103AF000BAD7B2A106D0D890013202320332B23323
:103B000002D0000635E0B2BF1ED0D890AD37AE3738
:103B1000AF37B037AC51AD5F07E2010EAE5F04E2E4
:103B2000AF5F02E2B05F1AE3AB51AE5F05E2010E98
:103B3000AF5F02E2B05F12E3AA518009AF5F03E218
:103B4000010EB05F0BE3032A09E1022A07E1012A13
:103B500005E1002A0DE0013202320332A6C0B1F0C5
:103B6000AA51B11BB1AF02D0018E06D0019E04D084
:103B7000006A016A026A036A000CA6C0ADF0AA518D
:103B8000AD1BADAF05D0D894D890A6BFD8802FD0AC
:103B9000A6C0ADF0A9C0AEF0A551AE5F06E0ADAFD6
:103BA00026D0D850010AD86E22D0AAC0AEF0A651B5
:103BB000AE5F06E0ADAF1BD0D850010AD86E17D06B
:103BC000ABC0AEF0A751AE5F06E0ADAF10D0D8509D
:103BD000010AD86E0CD0ACC0AEF0A851AE5F06E0C2
:103BE000ADAF05D0D850010AD86E01D0D890000CE6
:103BF000928880A801D0FCD715DC928880B838D193
:103C0000D6EC16F0010EA56FA535006E0036FC0E41
:103C10000016C250C30B0010C26EC282C2B2FED7E1
:103C2000C4CFA5F0A5C001F001C08FF0A56BA535EC
:103C3000006E0036FC0E0016C250C30B0010C26EA0
:103C4000C282C2B2FED7C4CFA5F0A5C001F001C0A8
:103C500090F0010EA86FA96FDFEC19F0A66B8FC072
:103C6000A5F0C3DE03C0A4F002C0A3F001C0A2F01F
:103C700000C0A1F0A4C0A8F0A3C0A7F0A2C0A6F005
:103C8000A1C0A5F0AC6BAB6B300EAA6F830EA96F11
:103C9000C7DE03C0A4F002C0A3F001C0A2F000C0C0
:103CA000A1F0936B93510B082CE3A66B93C0A5F086
:103CB0009CDE03C0A8F002C0A7F001C0A6F000C0BF
:103CC000A5F0A4C0ACF0A3C0ABF0A2C0AAF0A1C004
:103CD000A9F053DF01E20AE1036A9351940FE96E00
:103CE000000E0320EA6EDB0EEF6E09D0036A9351DB
:103CF000940FE96E000E0320EA6E2D0EEF6E932BEB
:103D0000D1D7A06B8FC0A5F0030EA66F57EC1AF0A9
:103D10007C0EA76FF0EC19F0EA6A940EE96E000EC3
:103D2000EF1010E0EACFA6F0E9CFA5F0EFCFA7F0B3
:103D3000F0EC19F0A6C0EAFFA5C0E9FFE92AD8B463
:103D4000EA2AEDD70D0EA76FF0EC19F0A66B90C024
:103D5000A5F04BDE03C0A4F002C0A3F001C0A2F0A6
:103D600000C0A1F0A4C0A8F0A3C0A7F0A2C0A6F014
:103D7000A1C0A5F0AC6BAB6B300EAA6F830EA96F20
:103D80004FDE03C0A4F002C0A3F001C0A2F000C047
:103D9000A1F0936B93510B082CE3A66B93C0A5F095
:103DA00024DE03C0A8F002C0A7F001C0A6F000C046
:103DB000A5F0A4C0ACF0A3C0ABF0A2C0AAF0A1C013
:103DC000A9F0DBDE01E20AE1036A9351940FE96E88
:103DD000000E0320EA6EDB0EEF6E09D0036A9351EA
:103DE000940FE96E000E0320EA6E2D0EEF6E932BFA
:103DF000D1D7A06B90C0A5F0030EA66F57EC1AF0B8
:103E00007C0EA76FF0EC19F0EA6A940EE96E000ED2
:103E1000EF1010E0EACFA6F0E9CFA5F0EFCFA7F0C2
:103E2000F0EC19F0A6C0EAFFA5C0E9FFE92AD8B472
:103E3000EA2AEDD70D0EA76FF0EC19F090518F5DC7
:103E4000A56FA55119080DE28F51905D05E2929A78
:103E5000898A5CEC16F004D096908D8065EC16F0A3
:103E600006D0929A899A96908D904AEC16F0C5D613
:103E700041EC16F0FFEF21F0F86AD09E0D8EEA6A51
:103E8000E96AB886E10EAF6E040EB06EA60EAC6E97
:103E9000900EAB6EC150C00B0F09C16E070EB46E11
:103EA0001F6A216A040E226E0E0E236E276A7C6B37
:103EB000816B826B836B846B856B866B876B886B86
:103EC000896B8A6B8B6B25EF17F06EEF18F09EEF06
:103ED00019F07DA106D094EC18F0825302E017ECA3
:103EE00019F0872D4CD0010EA56FA535006E003658
:103EF000FC0E0016C250C30B0010C26EC282C2B2CA
:103F0000FED7C4CFA5F0A5C001F001C08CF0A56B11
:103F1000A535006E0036FC0E0016C250C30B001013
:103F2000C26EC282C2B2FED7C4CFA5F0A5C001F056
:103F300001C08DF08F6B8F51D2EC0EF08F2B006E85
:103F4000936F14EC17F0040E8F5DF5E18CC093F0C5
:103F500014EC17F0060E906F9051D2EC0EF0902BEF
:103F6000006E936F14EC17F00B0E905DF5E18DC0B1
:103F700093F014EC17F03E0E936F14EC17F0882DAD
:103F80004DD0020EA56FA535006E0036FC0E001652
:103F9000C250C30B0010C26EC282C2B2FED7C4CFE1
:103FA000A5F0A5C001F001C08CF0030EA56FA535EA
:103FB000006E0036FC0E0016C250C30B0010C26E1D
:103FC000C282C2B2FED7C4CFA5F0A5C001F001C025
:103FD0008DF08F6B8F51E7EC0EF08F2B006E936F8F
:103FE00014EC17F0040E8F5DF5E18CC093F014EC27
:103FF00017F0060E906F9051E7EC0EF0902B006ECC
:10400000936F14EC17F00B0E905DF5E18DC093F0FB
:1040100014EC17F03E0E936F14EC17F0892D54D06A
:10402000928880A80DD08F6B8F51FCEC0EF08F2BF7
:10403000006E936F14EC17F0060E8F5DF5E10CD057
:104040008F6B8F510DEC0FF08F2B006E936F14EC74
:1040500017F0060E8F5DF5E1928480A40DD08F6B72
:104060008F511EEC0FF08F2B006E936F14EC17F036
:10407000060E8F5DF5E10CD08F6B8F512FEC0FF09A
:104080008F2B006E936F14EC17F0060E8F5DF5E129
:10409000928680A60DD08F6B8F5140EC0FF08F2B46
:1040A000006E936F14EC17F0060E8F5DF5E10CD0E7
:1040B0008F6B8F5151EC0FF08F2B006E936F14ECC0
:1040C00017F0060E8F5DF5E18A2D42D0C150C00B6E
:1040D000C16EC080C082C084C09EC2808E6B8E5173
:1040E000010831E3300E8E258F6F8EC0A5F0A53507
:1040F000006E0036FC0E0016C250C30B0010C26EDC
:10410000C282C2B2FED7C4CFA5F0A5C001F001C0E3
:1041100090F03C0E936F14EC17F0410E936F14EC7B
:1041200017F08FC093F014EC17F03A0E936F14EC65
:1041300017F090C093F014EC17F03E0E936F14EC50
:1041400017F08E2BCCD7C150C00B0F09C16EC29097
:104150008B2D3DD08E6B8E51010839E3300E8E25AC
:104160008F6F8EC090F07C0E8EC092F0010E936F18
:104170000F0E956F920E946FA7EF19F090C092F00A
:104180000F0E946F800E936FC7EF19F0000E01B001
:10419000010E960DF350320F926F3C0E936F14EC9C
:1041A00017F0410E936F14EC17F08FC093F014ECDE
:1041B00017F03A0E936F14EC17F092C093F014ECD2
:1041C00017F03E0E936F14EC17F08E2BC4D7862D8C
:1041D0000CD04AEC16F0FA0EA86F9DEC16F041ECEC
:1041E00016F0FA0EA86F9DEC16F0928880A809D1FF
:1041F000928880A801D0FCD7010EA86FA96FDFECD0
:1042000019F08F6B8F5162EC0FF08F2B006EA76F40
:10421000F0EC19F0110E8F5DF5E18F6B8F5178EC9A
:104220000FF08F2B006EA76FF0EC19F0100E8F5D62
:10423000F5E18E6B8E5109080BE3640EA86F9DECBF
:1042400016F0928880A802D00A0E8E6F8E2BF2D7BD
:10425000928880A817D0010EA86FA96FDFEC19F023
:104260008F6B8F518EEC0FF08F2B006EA76FF0ECE1
:1042700019F0100E8F5DF5E1928880A801D0FCD76F
:104280008AEF1AF0010EA86FA96FDFEC19F08F6B9F
:104290008F5162EC0FF08F2B006EA76FF0EC19F0CE
:1042A000110E8F5DF5E18F6B8F51A4EC0FF08F2B0A
:1042B000006EA76FF0EC19F0100E8F5DF5E1040EA3
:1042C0008F6FFA0EA86F9DEC16F08F2FFAD7928899
:1042D00080A817D0010EA86FA96FDFEC19F08F6BC3
:1042E0008F51BAEC0FF08F2B006EA76FF0EC19F026
:1042F000100E8F5DF5E1928880A801D0FCD75CEFAD
:104300001BF0010EA86FA96FDFEC19F08F6B8F51B6
:1043100062EC0FF08F2B006EA76FF0EC19F0110E0E
:104320008F5DF5E18F6B8F51D0EC0FF08F2B006E0E
:10433000A76FF0EC19F0100E8F5DF5E1040E8F6F92
:10434000FA0EA86F9DEC16F08F2FFAD7928880A8EE
:1043500017D0010EA86FA96FDFEC19F08F6B8F518A
:10436000E6EC0FF08F2B006EA76FF0EC19F0100E3B
:104370008F5DF5E1928880A801D0FCD751EF1CF049
:10438000010EA86FA96FDFEC19F08F6B8F5162ECF3
:104390000FF08F2B006EA76FF0EC19F0110E8F5DF0
:1043A000F5E18F6B8F51FCEC0FF08F2B006EA76F38
:1043B000F0EC19F0100E8F5DF5E1040E8F6FFA0E20
:1043C000A86F9DEC16F08F2FFAD7928880A817D08F
:1043D000010EA86FA96FDFEC19F08F6B8F5112ECF3
:1043E00010F08F2B006EA76FF0EC19F0100E8F5DA0
:1043F000F5E1928880A801D0FCD7F8EF1DF037ECEA
:0644000018F065D5030071
:020000040030CA
:0E00000020C23E1E008381000FC00FE00F40A3
:00000001FF
;PIC18F4550
