:020000040000FA
:041800005DEF1CF08C
:08180800056ED8CF06F0E0CF19
:1018100007F00001E9CF0DF0EACF08F0E1CF09F0C1
:10182000E2CF0AF0D9CF0BF0DACF0CF0F3CF14F0FF
:10183000F4CF15F0FACF16F000C00FF001C010F091
:1018400002C011F003C012F004C013F09DA22CEFEF
:101850000CF09EB257EF16F09DAA32EF0CF09EBA34
:1018600016EF16F0A0AA38EF0CF0A1BAE1EF15F0D0
:101870000FC000F010C001F011C002F012C003F060
:1018800013C004F00E8E0DC0E9FF08C0EAFF09C0C6
:10189000E1FF0AC0E2FF0BC0D9FF0CC0DAFF14C0A1
:1018A000F3FF15C0F4FF16C0FAFF055007C0E0FFB4
:1018B00006C0D8FF1000F76AC60FF66E180EF722A2
:1018C0000900F550120004030100000000000000B0
:1018D000000000000000F76AE60FF66E180EF7220F
:1018E0000900F55012000400010000000000000093
:1018F000000000000000F76A060FF66E190EF722CE
:101900000900F550120040000800400000000000EF
:1019100000000000000000000000000000000000C7
:101920000000000000000DAE03D0F2CF0EF0F29EDA
:10193000F76A480FF66E190EF7220900F5500DAE42
:1019400002D00EBEF28E12004000000040000000E7
:101950000000000000000000000000000000000087
:101960000000000000000000F76A780FF66E190E04
:10197000F7220900F550120009024300020100C0DD
:1019800032090400000102020100052400100104D4
:101990002402020524060001052401000107058137
:1019A000030800FA09040100020A0000000705020A
:1019B000024000FA070582024000FA00F76ACC0FE5
:1019C000F66E190EF7220900F55012000200F76AB0
:1019D000DE0FF66E190EF7220900F5501200120103
:1019E000100102000040D8040100000101020001C2
:1019F000F76A000FF66E1A0EF7220900F550120072
:101A0000040309040A03410055005200450028035D
:101A1000410075007200650042006F0061007200B5
:101A2000640020005500730062002D005300650023
:101A3000720069006500F2CF0EF0F29EF76A500F57
:101A4000F66E1A0EF7220900F5500EBEF28E120045
:101A50000D0A0A2D41757265426F61726420A14CB6
:101A600069737461210D0A00F2CF0EF0F29EF76ADD
:101A7000820FF66E1A0EF7220900F5500EBEF28E96
:101A800012000D0A41555245424F540D0A5F5F5FE7
:101A90005F5F5F5F0D0A0D0A496E696369616E647D
:101AA0006F2E2E2E0D0A0000F2CF0EF0F29EF76A76
:101AB000C20FF66E1A0EF7220900F5500EBEF28E16
:101AC00012005B44656C617920333030206D735DAA
:101AD0000D0A0000F2CF0EF0F29EF76AEE0FF66EDE
:101AE0001A0EF7220900F5500EBEF28E12005B4F5F
:101AF0006B5D0D0A0000F2CF0EF0F29EF76A100F38
:101B0000F66E1B0EF7220900F5500EBEF28E120083
:101B10002D4C65642056657264650D0A0000F2CF95
:101B20000EF0F29EF76A380FF66E1B0EF7220900D0
:101B3000F5500EBEF28E12002D5553422043444301
:101B40000D0A0000F2CF0EF0F29EF76A5E0FF66EFD
:101B50001B0EF7220900F5500EBEF28E12002D501A
:101B6000756C6C2075702773204F46460D0A000077
:101B7000F2CF0EF0F29EF76A8A0FF66E1B0EF72276
:101B80000900F5500EBEF28E12002D496E7465727A
:101B900072757063696F6E2053455249450D0A0096
:101BA000F2CF0EF0F29EF76ABA0FF66E1B0EF72216
:101BB0000900F5500EBEF28E12002D496E7465724A
:101BC00072757063696F6E657320676C6F62616CAC
:101BD00065730D0A0000F2CF0EF0F29EF76AF00F67
:101BE000F66E1B0EF7220900F5500EBEF28E1200A3
:101BF000A14C69737461210D0A0D0A00F2CF0EF039
:101C0000F29EF76A160FF66E1C0EF7220900F550C9
:101C10000EBEF28E12002D4144430D0A0000F2CF99
:101C20000EF0F29EF76A380FF66E1C0EF7220900CE
:101C3000F5500EBEF28E12002D4C44527320636F8D
:101C40006E6669677572616461730D0A0000F2CF98
:101C50000EF0F29EF76A680FF66E1C0EF72209006E
:101C6000F5500EBEF28E1200280C0106F2CF0EF0D7
:101C7000F29EF76A860FF66E1C0EF7220900F550E9
:101C80000EBEF28E12002D54494D455232205B4F4C
:101C90004E5D0D0A0000F2CF0EF0F29EF76AB00F13
:101CA000F66E1C0EF7220900F5500EBEF28E1200E1
:101CB0002D436F6E74726F6C2064652076656C6F57
:101CC0006369646164205B4F4E5D0D0A0000F2CFD2
:101CD0000EF0F29EF76AE80FF66E1C0EF72209006E
:101CE000F5500EBEF28E120056656C3A2025750D29
:101CF0000A00F2CF0EF0F29EF76A0C0FF66E1D0E80
:101D0000F7220900F5500EBEF28E12002D436F6EC1
:101D10006669677572616E646F206C6564730D0A25
:101D20000000F2CF0EF0F29EF76A3C0FF66E1D0E29
:101D3000F7220900F5500EBEF28E12002D4C65649C
:101D400020697A7175696572646F0D0A0000F2CFBF
:101D50000EF0F29EF76A680FF66E1D0EF72209006C
:101D6000F5500EBEF28E12002D4C65642064657233
:101D70006563686F0D0A0000F2CF0EF0F29EF76AFD
:101D8000920FF66E1D0EF7220900F5500EBEF28E70
:101D900012003C53493A25633E3C53443A25633E86
:101DA0000000F2CF0EF0F29EF76ABC0FF66E1D0E29
:101DB000F7220900F5500EBEF28E12003C43493A5C
:101DC00025633E3C43443A25633E0000F2CF0EF0CB
:101DD000F29EF76AE60FF66E1D0EF7220900F55027
:101DE0000EBEF28E12003C50553A483E0000F2CF33
:101DF0000EF0F29EF76A080FF66E1E0EF72209002B
:101E0000F5500EBEF28E12003C50553A4C3E00008A
:101E1000F2CF0EF0F29EF76A2A0FF66E1E0EF72230
:101E20000900F5500EBEF28E12003C42493A483E7F
:101E30000000F2CF0EF0F29EF76A4C0FF66E1E0E07
:101E4000F7220900F5500EBEF28E12003C42493ACC
:101E50004C3E0000F2CF0EF0F29EF76A6E0FF66E67
:101E60001E0EF7220900F5500EBEF28E12003C4203
:101E7000443A483E0000F2CF0EF0F29EF76A900F0F
:101E8000F66E1E0EF7220900F5500EBEF28E1200FD
:101E90003C42443A4C3E0000F2CF0EF0F29EF76A0C
:101EA000B20FF66E1E0EF7220900F5500EBEF28E2E
:101EB00012005F5F5F5F5F5F4D454E555F5F5F5F25
:101EC0005F5F0D00F2CF0EF0F29EF76ADE0FF66E46
:101ED0001E0EF7220900F5500EBEF28E1200206C85
:101EE00064722061206C6364202020202020000088
:101EF000F2CF0EF0F29EF76A0A0FF66E1F0EF7226F
:101F00000900F5500EBEF28E12004F4B204C445289
:101F10002041204C4344202020200000F2CF0EF02E
:101F2000F29EF76A360FF66E1F0EF7220900F55083
:101F30000EBEF28E120020636E792061206C636405
:101F40002020202020200000F2CF0EF0F29EF76A21
:101F5000620FF66E1F0EF7220900F5500EBEF28ECC
:101F600012004F4B20434E592041204C4344202027
:101F700020200000F2CF0EF0F29EF76A8E0FF66E70
:101F80001F0EF7220900F5500EBEF28E1200206ED1
:101F9000617665676163696F6E206175746F0000BB
:101FA000F2CF0EF0F29EF76ABA0FF66E1F0EF7220E
:101FB0000900F5500EBEF28E12004F4B204E4156D6
:101FC00045474143494F4E2020200000F2CF0EF0FC
:101FD000F29EF76AE60FF66E1F0EF7220900F55023
:101FE0000EBEF28E12002062757363616C757A20EA
:101FF0002020202020200000F2CF0EF0F29EF76A71
:10200000120FF66E200EF7220900F5500EBEF28E6A
:1020100012004F4B2042555343414C555A2020202B
:10202000202000006D9269946894ECEF15F06A6AC4
:102030006892F5EF15F02D6A2C6A250E2B6E800E36
:102040002A6E2E6A2F6A080E306E806B7B93326A7E
:10205000316A7C6B7D917B81000CAB6BAB510108CD
:102060000AE3036AAB51280FE96E000E0320EA6E03
:10207000EF6AAB2BF3D7DFDF1A6A010E1B6E196A0A
:10208000000C010EB46FB4510F080EE3700EB425AE
:10209000016E0F0E036ED8B0032A01C0E9FF03C022
:1020A000EAFFEF6AB42BEFD71E6A1D6A000C400EE0
:1020B0000401016F050E036F026B880E006F046B45
:1020C000050E076F400E066F0001000C6A6A686A11
:1020D0009F0E6B6E390E696E6E6ABFDFD2DF160E11
:1020E000706E68A602D06896FCD76D98E0DF030E8C
:1020F0001F6EFBEF15F0698468986D8201EF16F092
:10210000689C07EF16F070A002D0D1DF7090689A3B
:102110000DEF16F0AFC020F0000CFF0E206E000C8B
:10212000AD6B275235E0AD513F0832E31C5005E05E
:10213000020A0DE0010A15E01ED0036A2650F2CF14
:10214000AFF0F29E11DCAFBFF28EAE6F14D0036A17
:102150002650F2CFAFF0F29E4BDCAFBFF28EAE6FE7
:102160000AD0036A2650F2CFAFF0F29E30DCAFBF48
:10217000F28EAE6F00D0262A2706AD51AD2B036A32
:10218000400FE96E050E0320EA6EAEC0EFFFC9D71F
:10219000275204E1AD51400801E0196AADC0AFF02B
:1021A000B9DF000C266A1C6A05010351010A00010F
:1021B00005E0030A08E0010A09E020D0120E276EAC
:1021C000030E1C6E1DD0430E276E1AD0020E1C6E1D
:1021D000036A05010251210FE96E000E0320EA6E29
:1021E000EFCF26F0036A2650F2CFACF0F29E00014A
:1021F000F8EC0CF0ACBFF28E276E02D08EDF0CD064
:102200000501075305E12750065D02E206C527F0E8
:10221000010E196E000184DF2CEF12F0AC5304E1C3
:10222000040E1F6E2EDFC7D0050E1F6EAF6F800E1F
:10223000AE6F010EAD6FAD510F08D8A0BCD0B06B22
:10224000036AAD51F2CFB4F0F29E6BEC0CF0B4BF68
:10225000F28E000A53E0040EB06FD890AD35036AD9
:10226000F2CFB4F0F29E93EC0CF00900F5CF03F03E
:10227000B4BFF28EB16F03C0B2F0AD51080DF35090
:10228000010F016E040E036ED8B0032A01C0E9FFEE
:1022900003C0EAFFB1C0EFFFAD51080DF350020FCC
:1022A000016E040E036ED8B0032A01C0E9FF03C01B
:1022B000EAFFAFC0ECFFED52AEC0EFFFD890AD35F6
:1022C000036AF2CFB4F0F29E93EC0CF00900F5CF64
:1022D00003F0B4BFF28EAE270350AF23880EB36F66
:1022E000B2B1B381B2B3B383AD51080DF3CF01F0F6
:1022F000040E01C0E9FFEA6EB3C0EFFF036AAD51FF
:10230000F2CFB4F0F29E5BEC0CF0B4BFF28E000A98
:1023100032E0B083AD51080DF350060F016E040E8C
:10232000036ED8B0032A01C0E9FF03C0EAFFAFC0C3
:10233000ECFFED52AEC0EFFFD890AD35036AF2CF9F
:10234000B4F0F29E7BEC0CF00900F5CF03F0B4BFC3
:10235000F28EAE270350AF23AD51080DF350040F9A
:10236000016E040E036ED8B0032A01C0E9FF03C05A
:10237000EAFF400EEF6EB051060802E10E0EB06F9C
:10238000036AAD51F2CFB4F0F29E5BEC0CF0B4BF37
:10239000F28E020801E0B089700EAD25016E0F0EBD
:1023A000036ED8B0032A01C0E9FF03C0EAFFB0C042
:1023B000EFFFAD2B40D726EF12F0050101510001D0
:1023C0000DE0010A14E0020A1EE0060A27E0030AF3
:1023D0002CE00E0A2BE0010A2FE03CD01BC040F598
:1023E0000501416B020E0001AF6F94DE35D005018F
:1023F000022D06D0010E1B160001AF6B8BDE02D042
:1024000000018BDE29D00501022D05D01B820001C1
:10241000AF6B80DE02D0000180DE1ED0020E196E8E
:1024200002C524F0AF6B76DE17D0BCD61AC040F5DB
:10243000010EAF6F6FDE10D005010251010808E3F5
:1024400002C51AF002C5ACF00001E8D6AF6B62DE3F
:10245000000102D062DE00D0A7EF13F01AC0ACF08A
:1024600005010151000105E00A0A0BE0010A2CE018
:102470003DD00501406B416B020E0001AF6F4ADE9B
:1024800037D0AC531FE0010EAC5D036AF2CFAEF063
:10249000F29EDEEC0CF0AEBFF28E016E0501045D23
:1024A000D8A002D000010ED0036A0451280FE96EB3
:1024B000000E0320EA6EEFCF40F5010E0001AF6F72
:1024C00029DE01D02ADE14D0AC530EE0036A0501E8
:1024D0000451280FE96E000E0320EA6E02C5EFFFDB
:1024E0000001AF6B17DE01D018DE02D016DE00D07F
:1024F000A7EF13F0AD91ACBFAD81AC9FADA111D0F2
:10250000036AAC51F2CFAEF0F29E5BEC0CF0AEBFC2
:10251000F28E000A02E1000E01D0010E016E11D010
:1025200010D0036AAC51F2CFAEF0F29E6BEC0CF01F
:10253000AEBFF28E000A02E1000E01D0010E016E64
:1025400000D013EF13F0AD91ACBFAD81AC9FADA146
:1025500010D0AC51080DF350040F016E040E036E41
:10256000D8B0032A01C0E9FF03C0EAFF880EEF6E6E
:1025700009D0AC51080DF3CF01F0040E01C0E9FF02
:10258000EA6EEF6A22EF13F0AD91ACBFAD81AC9F64
:10259000ADA110D0AC51080DF350040F016E040E24
:1025A000036ED8B0032A01C0E9FF03C0EAFF840E1E
:1025B000EF6E0AD0AC51080DF3CF01F0040E01C04C
:1025C000E9FFEA6E840EEF6E28EF13F0AD91ACBF19
:1025D000AD81AC9FADA110D0AC51080DF350040FEC
:1025E000016E040E036ED8B0032A01C0E9FF03C0D8
:1025F000EAFFEFCFAEF00AD0AC51080DF3CF01F0F7
:10260000040E01C0E9FFEA6EEFCFAEF0AEAF02D02C
:10261000AEB502D0000E01D0010E016E32EF13F004
:1026200004C5ACF067D7015229E005010151010A48
:10263000000105E0020A09E0030A0DE01DD004C50F
:10264000ACF081D7AF6B66DD19D004C5ACF09CD778
:10265000AF6B60DD13D00501406B416B04C5ACF07E
:102660000001B4D7015204E0010E0501406F0001E2
:10267000020EAF6F4FDD02D050DD00D0A7EF13F098
:10268000FE0E206E000C0501042D01D002D0045373
:1026900048E1015100010BE0010A0DE0210A1CE0B4
:1026A000010A1FE0030A2EE0010A31E037D0010ED3
:1026B000816FE6DF35D0050EEA6E400EE96EE26A04
:1026C000330EE16E080E016EE6CFEEFF012EFCD751
:1026D00006C5AFF01FDD24D0020E816F7B83D0DFF3
:1026E0001FD0050EEA6E400EE96EE26A2A0EE16E18
:1026F000070E016EE6CFEEFF012EFCD7070EAF6F7F
:1027000009DD0ED002C580F0AF6B04DD09D002C533
:1027100032F003C531F0AF6BFDDC02D0FEDC00D03F
:1027200005010001A7EF13F0196A050100517F0BA5
:10273000000107E0010A06E0030A05E0230A04E0BD
:1027400004D03BD68BD66CD79ED7E7DC00D08CEF7D
:1027500015F0AC51080DF3CF01F0040E01C0E9FFF4
:10276000EA6EEFCFAEF0AD51020806E1AEAD02D099
:10277000AD6B02D0010EAD6FAD51030812E1840EB6
:10278000AE6FAC51080DF350040F016E040E036ED2
:10279000D8B0032A01C0E9FF03C0EAFF840EEF6E40
:1027A00009D0AD2D03D0C80EAE6F04D0AD5302E1F9
:1027B000880EAE6F036A010E026EAC51006E05E02A
:1027C000D89002360336002EFBD70250FF0A006E67
:1027D000FF0E031A00501D1603501E16D890AC357C
:1027E000036AF2CFB1F0F29E93EC0CF00900F5CF42
:1027F00003F0B1BFF28EAF6F03C0B0F0AC51080D63
:10280000F350010F016E040E036ED8B0032A01C00D
:10281000E9FF03C0EAFFAFC0EFFFB0B1AE81B0B3D4
:10282000AE83AC51080DF3CF01F0040E01C0E9FFF7
:10283000EA6EAEC0EFFF000CB851080DF350040F64
:10284000016E040E036ED8B0032A01C0E9FF03C075
:10285000EAFFEFCFBCF0BCBF5BD0B851080DF3501E
:10286000050F016E040E036ED8B0032A01C0E9FF04
:1028700003C0EAFFB9C0EFFFBB51020816E1B8512F
:10288000080DF350040F016E040E036ED8B0032A36
:1028900001C0E9FF03C0EAFFEFCFBCF0BCAD02D03E
:1028A000BB6B02D0010EBB6F13D0BB51040810E10B
:1028B000B851080DF3CF01F0040E01C0E9FFEA6E34
:1028C000EFCFBCF0BCAD03D0010EBB6F01D0BB6B32
:1028D000BB2D03D0C80EBC6F04D0BB5302E1880EE1
:1028E000BC6FBAB1BC81BAB3BC83B851080DF35008
:1028F000040F016E040E036ED8B0032A01C0E9FF75
:1029000003C0EAFFBCC0EFFF010E016E03D000D090
:10291000000E016E000C8151010A03E0030A12E06F
:1029200022D0EA6A330EE96E050EE26EE16A080E05
:10293000016EE6CFEEFF012EFCD7AF6B8AEC10F0F4
:10294000816B15D0EA6A2A0EE96E050EE26EE16A25
:10295000070E016EE6CFEEFF012EFCD7816BAF6B49
:102960008AEC10F004D0816B57EC10F000D0D9EF56
:1029700014F0AD51080DF350010F016E040E036EFB
:10298000D8B0032A01C0E9FF03C0EAFF036AEFCF12
:1029900001F003C002F0D2EF14F07D817F6B020ED4
:1029A000AD6FE7D701C07EF0DEEF14F0AC5302E16B
:1029B000B2D714D0AC51020802E1EFD70FD0036AAE
:1029C000010E026EAC51006E05E0D890023603365F
:1029D000002EFBD702501D1203501E12000CADC07A
:1029E0006EFFAD5303E0040E1F6E02D0020E1F6E89
:1029F000FFEF14F01A6A196A24C0ADF0F0D776EF31
:102A000015F0AD51080DF350040F016E040E036E66
:102A1000D8B0032A01C0E9FF03C0EAFFEFCFB5F049
:102A2000B5BF3FD0AD51080DF350060F016E040E37
:102A3000036ED8B0032A01C0E9FF03C0EAFFECCF60
:102A400003F0ED52EFCFB6F003C0B7F0B46BB36B49
:102A5000B451B15D1AE303E1B051B35D16E2AEC00B
:102A6000E9FFAFC0EAFFEFCFBAF0B7C0EAFFB6C0E8
:102A7000E9FFBAC0EFFFB62BD8B4B72BAE2BD8B452
:102A8000AF2BB32BD8B4B42BE3D7ADC0B8F0B1C0E3
:102A9000BAF0B0C0B9F0B2C0BBF0CEDE015003D086
:102AA00000D0000E016E000C7C530DE07B91020EF5
:102AB000AD6FAF6B3B0EAE6FB16B7CC0B0F0020E72
:102AC000B26F9FDF7C6B000C7C5302E0EDDF01D026
:102AD0007B817BEF15F0AC530AE1192C03D090EC0D
:102AE00010F004D01950020801E184D704D0AC5191
:102AF000020801E1E9D7000C6C30AB6FAB33AB33AC
:102B00001F0EAB176C523BE1040100513C0B340823
:102B10001BE1046B000108D6203C05D0AC6B030E12
:102B2000AD6F17DE0ED0AC6B020EAD6F12DE205013
:102B3000FE0807E0B86BBA6B20C0B9F0040EBB6F9B
:102B40007BDE6D9819D0040100513C0B040815E19F
:102B50000001AC6B2BDFAC6B020EAD6FFADD2050C9
:102B6000FE080AE0203C01D007D0B86BBA6B20C049
:102B7000B9F0010EBB6F60DE040120D000016C5083
:102B8000040812E1FF0E206EAC6BA5DF203C01D0E3
:102B900008D0B86BBA6B20C0B9F0020EBB6F4CDE28
:102BA00002D057EC10F009D06CB404D0ABC0ACF03C
:102BB000FDDE03D0ABC0ACF08EDF0401000112EFEC
:102BC00016F01F5201E12FD068522DE068A404D006
:102BD00069A402D012EF10F06DA201D024D068A237
:102BE00004D069A202D017EF10F068A004D069A049
:102BF00002D066EF10F068A804D069A802D07BEF7D
:102C000010F068AC04D069AC02D080EF10F068AA74
:102C100004D069AA02D083EF10F068A604D069A698
:102C200002D06AD76896A19A38EF0CF09EAAFED718
:102C3000AECFABF0AB530BE0AB3D01D008D09494DA
:102C40008B74ABC082F0AB511B08D8B4FF009E9AC6
:102C500038EF0CF08C9C959C8C9E959E8C9895984A
:102C60008C9A959A000C8C9C959C8C8E959E8C9839
:102C700095988C8A959A000C8C8C959C8C9E959E30
:102C80008C8895988C9A959A000C8C8C959C8C9E2F
:102C9000959E8C9895988C8A959A000C8C9C959C06
:102CA0008C8E959E8C8895988C9A959A000C85515F
:102CB000845D01E2CFDF8551FE0812E2856B83510E
:102CC000FB0F0DE2050F74EF16F0CDDF08D0D4DF57
:102CD00006D0DBDF04D0E2DF02D0BCDF00D001D0C1
:102CE000852B9E9238EF0CF0E824F76AF736030F35
:102CF000F66E2D0EF7220A00F550FA6E0800F55018
:102D0000F96EDA2CCA2CCE2CD22CD62CEA6AA30E61
:102D1000E96EEF500EE00F0E016E006A002EFED736
:102D2000012EFBD78F0E006E002EFED70000EF2E77
:102D3000F2D7000C8F6B906B905134EC0DF0902B10
:102D4000006E00509EA8FED7AD6E240E905DF4E19B
:102D5000906B905154EC0DF0902B006E00509EA89B
:102D6000FED7AD6E100E905DF4E1020E906F960EE0
:102D7000A36FCCDF902FFBD7906B90516AEC0DF0D6
:102D8000902B006E00509EA8FED7AD6E060E905D93
:102D9000F4E18F6B8F51090807E394948B74320E22
:102DA000A36FB4DF8F2BF6D7906B90517BEC0DF0B7
:102DB000902B006E00509EA8FED7AD6E0C0E905D5D
:102DC000F4E1906B90518FEC0DF0902B006E005061
:102DD0009EA8FED7AD6E0A0E905DF4E1F18E906B69
:102DE0009051A2EC0DF0902B006E00509EA8FED7E3
:102DF000AD6E100E905DF4E1C150C00B0F09C16EB5
:102E0000F29CF29EF2BEFDD7C150C00B0F09C16EFD
:102E1000C290C69A949E93809392000EC66EC76E1F
:102E20009698D190800ED56E850ECD6E000ECA6E2E
:102E3000000ECB6EB150480BB16E070EB46E9250BF
:102E4000270E006E002EFED700D0B450A19CB56AAC
:102E5000F18E9D8A906B9051B8EC0DF0902B006E26
:102E600000509EA8FED7AD6E150E905DF4E1C00E29
:102E7000F212906B9051D0EC0DF0902B006E005040
:102E80009EA8FED7AD6E1A0E905DF4E1906B905146
:102E9000EBEC0DF0902B006E00509EA8FED7AD6EAF
:102EA0000B0E905DF4E186EF1CF08F6B8F5179EC87
:102EB0000EF08F2B006E00509EA8FED7AD6E140E44
:102EC0008F5DF4E1968096829684929A898A8F6BC0
:102ED0008F5191EC0EF08F2B006E00509EA8FED704
:102EE000AD6E100E8F5DF4E196908D808F6B8F51DB
:102EF000A7EC0EF08F2B006E00509EA8FED7AD6E93
:102F00000E0E8F5DF4E188EF1CF0AAB102D08A9A10
:102F100001D08A8A939AAAB302D08A9801D08A886B
:102F20009398AAB502D08A9601D08A869396AAB7BA
:102F300002D08A9401D08A849394030E006E002EEE
:102F4000FED700D0939C8A8C070E006E002EFED711
:102F500000D0939C8A9C000C939E8A9EEF0E006E7C
:102F6000002EFED700D0A75303E0939E8A8E02D096
:102F7000939E8A9E0000939C8A9CA839A96F0F0E8D
:102F8000A917A9C0AAF0C1DFA8510F0BA96FAA6F9A
:102F9000BCDF000C939E8A9E939C8A9C0F0EA36FAD
:102FA000B5DE8F6B8F51020808E3030EAA6FADDF09
:102FB000050EA36FABDE8F2BF5D7020EAA6FA5DF30
:102FC0008F6B8F51030812E3036A8F51F2CF90F099
:102FD000F29E27EC0EF090BFF28E916FA76BA86F58
:102FE000BBDF050EA36F92DE8F2BEBD7000CD890C2
:102FF0008F350C099011926FA76BA86FADDF05EFAD
:1030000018F0C8DF8F6B906BF2D78AEF1CF06D6AF7
:10301000696A080E6F6E94503009946E1F6A186AC0
:10302000F2BE188EF29E2DEC10F018BEF28E1E6AC3
:103030001D6A3EEF18F0186AF2BE188EF29E2DEC53
:1030400010F018BEF28E6D6A140E6F6E696A6D868E
:10305000010E1F6E2FEF18F06DB601D0ECD71F2CAC
:103060000BD06DBA09D0686A696AA08AC00EF212E4
:10307000110E696E020E1F6E000CC9D7EDDF1F50D6
:103080000208FCE179EF18F09591F2BE9581F29E6D
:103090007C513F0802E23F0E7C6F7C517C2B036A1F
:1030A0003B0FE96E000E0320EA6E94C0EFFFF29E24
:1030B00095B1F28E7BA107D0186AF2BE188EF29EEF
:1030C000F3DC18BEF28E75EF18F07C513F080AE26F
:1030D0007BA107D0186AF2BE188EF29EE5DC18BEFE
:1030E000F28EF3D793C094F0CFD7000C1BEC10F006
:1030F000C4D77BB301D0FDD71A520BE08F6B8F5131
:103100001BEC0DF08F2B006E936FDFDF170E8F5DC2
:10311000F6E18CEF1CF0000E0609CA6E500ECB6E65
:103120009D828F6B8F5136EC0EF08F2B006E936F5C
:10313000CCDF0E0E8F5DF6E18F6B8F514BEC0EF0F6
:103140008F2B006E936FC1DF1C0E8F5DF6E18EEF4B
:103150001CF07DB101D0FDD77F517F2B036A880F12
:10316000E96E050E0320EA6EEFCF90F07E517F5D91
:103170000CE37D91186AF2BE188EF29E020EAC6FBF
:10318000AD6FA9EC13F018BEF28E90C001F0CAEF3B
:1031900018F0DFD701C08FF08F530BE08F3D01D0C7
:1031A00008D094948B748FC082F08F511B08D8B4D0
:1031B000FF0093EF1CF0A351016AA25D03E2A2C0DD
:1031C00000F00CD0006A080EA46FA2370036A3519D
:1031D000005CD8B0006E0136A42FF7D7000C015068
:1031E00091C0A2F0640EA36FE6DF00C091F0015021
:1031F000300E07E192A30CD092B70AD092B9200EFC
:1032000003D0929792999281012601C093F05DDFDD
:1032100091C0A2F00A0EA36FCEDF00C091F0015062
:10322000300E06E192B708D092A106D092B9200ED6
:10323000012601C093F049DF300E912791C093F031
:1032400044DF3CEF19F08F518425FF0805E08F51D2
:10325000842502E08F518427906B905167EC0EF02B
:10326000902B006E936F31DF050E905DF6E184C008
:1032700091F01B0E926FB3D70D0E936F26DF0A0EDF
:10328000936F23DF000C8FC084F0010E836FD2EFA9
:1032900019F0846B836BD2EF19F094948B74825184
:1032A000310A25E0030A2AE0010A2FE0070A34E088
:1032B000010A39E0030A3EE0410A43E0040A43E020
:1032C000170A43E0050A43E0100A43E01F0A43E0FF
:1032D000030A44E0170A45E0020A44E01E0A43E0FC
:1032E000010A45E00C0A47E0070A48E048D0872D6C
:1032F00002D0876B02D0010E876F54D0882D02D088
:10330000886B02D0010E886F4DD0892D02D0896B59
:1033100002D0010E896F46D08A2D02D08A6B02D06E
:10332000010E8A6F3FD08B2D02D08B6B02D0010E25
:103330008B6F38D0862D02D0866B02D0010E866F3F
:1033400031D091DC2FD098DC2DD09FDC2BD0A6DCA7
:1033500029D080DC27D0929A897A24D096908D70DB
:1033600021D020D01FD0FB0E8F6F6DDF1BD0050E3C
:103370008F6F69DF17D0C80E8F6F85D78AD74E0E33
:10338000936FA3DE520E936FA0DE3A0E936F9DDE15
:1033900082C093F09ADE0D0E936F97DE0A0E936F44
:1033A00094DE00D0826B96EF1CF09251070B006EFA
:1033B0009231016E013201321F0E01160150942527
:1033C000E96E000E9521EA6E016A012A002A01D0F9
:1033D0000136002EFDD7935303E00150EF1203D0C6
:1033E000011E0150EF16E3EF1DF09251070B006E26
:1033F0009231016E013201321F0E011601509325E8
:10340000E96E000E9421EA6EEFCF01F0002A01D0A0
:103410000132002EFDD7EAEF1DF0A42D01D003D01C
:10342000400EA56F01D0A56B010EA35DA527A55188
:103430008009A66FA76BA86F8FDD000CA2510C0A44
:1034400005E0010A0BE0050A0FE013D0A76B010E9F
:10345000A86F82DD020EA36F59DC11D0010EA36F9D
:10346000020EA46FDADF0BD0A76B100EA86F74DD0D
:1034700006D0010EA76FA2C0A8F06EDD00D0000C30
:10348000C150C00B0D09C16EC080C082C084C09EF7
:10349000C280A06BA051FEEC0DF0A02B006E00507E
:1034A0009EA8FED7AD6E060EA05DF4E1A06BA05104
:1034B0000FEC0EF0A02B006E00509EA8FED7AD6E54
:1034C000140EA05DF4E1000C016A026A006A036A4E
:1034D000A35102E1A25118E0100EA46FD890A037BA
:1034E000A13700360336A351035C02E1A251005C10
:1034F00007E3A251005ED8A00306A351035ED88063
:1035000001360236A42FEAD7000C0150A0C0A2F069
:10351000640EA36F50DE00C0A0F00150300E07E132
:10352000A1A30CD0A1B70AD0A1B9200E03D0A197B6
:10353000A199A181012601C0A2F080DFA0C0A2F064
:103540000A0EA36F38DE00C0A0F00150300E06E175
:10355000A1B708D0A1A106D0A1B9200E012601C0B3
:10356000A2F06CDF300EA027A0C0A2F067DF000C35
:1035700087DF928880B8CCD0010EA36FA46F4DDF97
:10358000010EA06FA035006E0036FC0E0016C25072
:10359000C30B0010C26EC282C2B2FED7C4CFA0F06D
:1035A000A0C001F001C091F0906B91C08FF090C06D
:1035B000A1F08FC0A0F0A36B160EA26F85DF02C032
:1035C00090F001C08FF0926B92510B081AE3905368
:1035D00003E192518F5D0AE3036A9251930FE96E02
:1035E000000E0320EA6EDB0EEF6E09D0036A9251E3
:1035F000930FE96E000E0320EA6E2D0EEF6E922BF4
:10360000E3D79F6B91C0A0F0030EA16F7EDF7C0E0D
:10361000A26F14DFEA6A930EE96E000EEF100FE05E
:10362000EACFA1F0E9CFA0F0EFCFA2F007DFA1C071
:10363000EAFFA0C0E9FFE92AD8B4EA2AEED70D0EC6
:10364000A26FFCDEA06BA035006E0036FC0E0016EB
:10365000C250C30B0010C26EC282C2B2FED7C4CF2A
:10366000A0F0A0C001F001C091F0906B91C08FF06C
:1036700090C0A1F08FC0A0F0A36B160EA26F24DF44
:1036800002C090F001C08FF0926B92510B081AE3C8
:10369000905303E192518F5D0AE3036A9251930FB5
:1036A000E96E000E0320EA6EDB0EEF6E09D0036AAE
:1036B0009251930FE96E000E0320EA6E2D0EEF6E0D
:1036C000922BE3D79F6B91C0A0F0030EA16F1DDF7B
:1036D0007C0EA26FB3DEEA6A930EE96E000EEF1065
:1036E0000FE0EACFA1F0E9CFA0F0EFCFA2F0A6DE85
:1036F000A1C0EAFFA0C0E9FFE92AD8B4EA2AEED7C0
:103700000D0EA26F9BDE280EA36F86EC16F031D74C
:1037100065EF1EF0B5DE928880B8CDD0010EA36FA4
:10372000A46F7BDE020EA06FA035006E0036FC0E8B
:103730000016C250C30B0010C26EC282C2B2FED7C6
:10374000C4CFA0F0A0C001F001C091F0906B91C077
:103750008FF090C0A1F08FC0A0F0A36B160EA26FE7
:10376000B3DE02C090F001C08FF0926B92510B0853
:103770001AE3905303E192518F5D0AE3036A925179
:10378000930FE96E000E0320EA6EDB0EEF6E09D098
:10379000036A9251930FE96E000E0320EA6E2D0E1C
:1037A000EF6E922BE3D79F6B91C0A0F0030EA16F39
:1037B000ACDE7C0EA26F42DEEA6A930EE96E000E6A
:1037C000EF100FE0EACFA1F0E9CFA0F0EFCFA2F029
:1037D00035DEA1C0EAFFA0C0E9FFE92AD8B4EA2A91
:1037E000EED70D0EA26F2ADE030EA06FA035006E7D
:1037F0000036FC0E0016C250C30B0010C26EC2820F
:10380000C2B2FED7C4CFA0F0A0C001F001C091F0B9
:10381000906B91C08FF090C0A1F08FC0A0F0A36B0F
:10382000160EA26F51DE02C090F001C08FF0926BB5
:1038300092510B081AE3905303E192518F5D0AE312
:10384000036A9251930FE96E000E0320EA6EDB0EBD
:10385000EF6E09D0036A9251930FE96E000E0320B8
:10386000EA6E2D0EEF6E922BE3D79F6B91C0A0F006
:10387000030EA16F4ADE7C0EA26FE0DDEA6A930EB2
:10388000E96E000EEF100FE0EACFA1F0E9CFA0F053
:10389000EFCFA2F0D3DDA1C0EAFFA0C0E9FFE92A83
:1038A000D8B4EA2AEED70D0EA26FC8DD280EA36F9A
:1038B00086EC16F030D7A3EF1EF0F86AD09E0D8E7E
:1038C000EA6AE96AB886E10EAF6E040EB06EA60E23
:1038D000AC6E900EAB6EC150C00B0F09C16E070EDF
:1038E000B46E1F6A216A040E226E0E0E236E276AC2
:1038F0007C6B816B826B836B846B856B866B876B58
:10390000886B896B8A6B8B6B9AEF16F055EF17F00B
:1039100001EF18F076EF18F08BEF18F02CEC18F0A0
:103920007DA104D036D4825301E0B7D4872D4CD08A
:10393000010EA06FA035006E0036FC0E0016C250BE
:10394000C30B0010C26EC282C2B2FED7C4CFA0F0B9
:10395000A0C001F001C08CF0A06BA035006E003655
:10396000FC0E0016C250C30B0010C26EC282C2B25F
:10397000FED7C4CFA0F0A0C001F001C08DF08F6BC6
:103980008F51BCEC0EF08F2B006E936F65EC18F02E
:10399000040E8F5DF5E18CC093F065EC18F0060E17
:1039A000906F9051BCEC0EF0902B006E936F65EC15
:1039B00018F00B0E905DF5E18DC093F065EC18F0FA
:1039C0003E0E936F65EC18F0882D4DD0020EA06F5F
:1039D000A035006E0036FC0E0016C250C30B00105E
:1039E000C26EC282C2B2FED7C4CFA0F0A0C001F0A6
:1039F00001C08CF0030EA06FA035006E0036FC0EE7
:103A00000016C250C30B0010C26EC282C2B2FED7F3
:103A1000C4CFA0F0A0C001F001C08DF08F6B8F511A
:103A2000D1EC0EF08F2B006E936F65EC18F0040E46
:103A30008F5DF5E18CC093F065EC18F0060E906F89
:103A40009051D1EC0EF0902B006E936F65EC18F056
:103A50000B0E905DF5E18DC093F065EC18F03E0E15
:103A6000936F65EC18F0892D54D0928880A80DD002
:103A70008F6B8F51E6EC0EF08F2B006E936F65EC21
:103A800018F0060E8F5DF5E10CD08F6B8F51F7ECBF
:103A90000EF08F2B006E936F65EC18F0060E8F5DA5
:103AA000F5E1928480A40DD08F6B8F5108EC0FF05C
:103AB0008F2B006E936F65EC18F0060E8F5DF5E1AD
:103AC0000CD08F6B8F5119EC0FF08F2B006E936F12
:103AD00065EC18F0060E8F5DF5E1928680A60DD09C
:103AE0008F6B8F512AEC0FF08F2B006E936F65EC6C
:103AF00018F0060E8F5DF5E10CD08F6B8F513BEC0B
:103B00000FF08F2B006E936F65EC18F0060E8F5D33
:103B1000F5E18A2D42D0C150C00BC16EC080C08279
:103B2000C084C09EC2808E6B8E51010831E3300E7E
:103B30008E258F6F8EC0A0F0A035006E0036FC0E73
:103B40000016C250C30B0010C26EC282C2B2FED7B2
:103B5000C4CFA0F0A0C001F001C090F03C0E936F64
:103B600065EC18F0410E936F65EC18F08FC093F080
:103B700065EC18F03A0E936F65EC18F090C093F076
:103B800065EC18F03E0E936F65EC18F08E2BCCD7D9
:103B9000C150C00B0F09C16EC2908B2D3CD08E6BF3
:103BA0008E51010838E3300E8E258F6F8EC090F055
:103BB0007C0E8EC092F0010E936F0F0E956F920ED9
:103BC000946FD5EF19F090C092F00F0E946F800EA5
:103BD000936F0BD4000E01B0010E960DF350320F0F
:103BE000926F3C0E936F65EC18F0410E936F65EC8D
:103BF00018F08FC093F065EC18F03A0E936F65ECF7
:103C000018F092C093F065EC18F03E0E936F65ECDF
:103C100018F08E2BC5D7862D0CD033EC16F0FA0E8B
:103C2000A36F86EC16F02AEC16F0FA0EA36F86EC62
:103C300016F0928880A803D1928880A801D0FCD782
:103C4000010EA36FA46F0DEC1AF08F6B8F514CEC2B
:103C50000FF08F2B006EA26F1EEC1AF0110E8F5D0D
:103C6000F5E18F6B8F5162EC0FF08F2B006EA26F1E
:103C70001EEC1AF0100E8F5DF5E18E6B8E51090867
:103C80000BE3640EA36F86EC16F0928880A802D036
:103C90000A0E8E6F8E2BF2D7928880A816D0010E56
:103CA000A36FA46F0DEC1AF08F6B8F5178EC0FF0AF
:103CB0008F2B006EA26F1EEC1AF0100E8F5DF5E1D7
:103CC000928880A801D0FCD753D4010EA36FA46FB3
:103CD0000DEC1AF08F6B8F514CEC0FF08F2B006EA8
:103CE000A26F1EEC1AF0110E8F5DF5E18F6B8F51F4
:103CF0008EEC0FF08F2B006EA26F1EEC1AF0100EE0
:103D00008F5DF5E1040E8F6FFA0EA36F86EC16F04F
:103D10008F2FFAD7928880A816D0010EA36FA46FB8
:103D20000DEC1AF08F6B8F51A4EC0FF08F2B006EFF
:103D3000A26F1EEC1AF0100E8F5DF5E1928880A83C
:103D400001D0FCD7E7D4010EA36FA46F0DEC1AF0DD
:103D50008F6B8F514CEC0FF08F2B006EA26F1EEC0F
:103D60001AF0110E8F5DF5E18F6B8F51BAEC0FF0E9
:103D70008F2B006EA26F1EEC1AF0100E8F5DF5E116
:103D8000040E8F6FFA0EA36F86EC16F08F2FFAD702
:103D9000928880A815D0010EA36FA46F0DEC1AF0C5
:103DA0008F6B8F51D0EC0FF08F2B006EA26F1EEC3B
:103DB0001AF0100E8F5DF5E1928880A801D0FCD733
:103DC000010EA36FA46F0DEC1AF08F6B8F514CECAA
:103DD0000FF08F2B006EA26F1EEC1AF0110E8F5D8C
:103DE000F5E18F6B8F51E6EC0FF08F2B006EA26F19
:103DF0001EEC1AF0100E8F5DF5E1040E8F6FFA0EB7
:103E0000A36F86EC16F08F2FFAD7928880A815D072
:103E1000010EA36FA46F0DEC1AF08F6B8F51FCECA9
:103E20000FF08F2B006EA26F1EEC1AF0100E8F5D3C
:103E3000F5E1928880A801D0FCD7CAEC17F06ED5C6
:023E400003007D
:020000040030CA
:0E00000020C23E1E008381000FC00FE00F40A3
:00000001FF
;PIC18F4550
