:020000040000FA
:041800000CEF1BF0DE
:08180800056ED8CF06F0E0CF19
:1018100007F00001E9CF0DF0EACF08F0E1CF09F0C1
:10182000E2CF0AF0D9CF0BF0DACF0CF0F3CF14F0FF
:10183000F4CF15F0FACF16F000C00FF001C010F091
:1018400002C011F003C012F004C013F09DAA2CEFE7
:101850000CF09EBAB3EF15F0A0AA32EF0CF0A1BACB
:101860007EEF15F00FC000F010C001F011C002F0C3
:1018700012C003F013C004F00E8E0DC0E9FF08C0C3
:10188000EAFF09C0E1FF0AC0E2FF0BC0D9FF0CC0AC
:10189000DAFF14C0F3FF15C0F4FF16C0FAFF0550BD
:1018A00007C0E0FF06C0D8FF1000F76ABA0FF66E57
:1018B000180EF7220900F550120004030100000081
:1018C00000000000000000000000F76ADA0FF66E6A
:1018D000180EF7220900F550120004000100000064
:1018E00000000000000000000000F76AFA0FF66E2A
:1018F000180EF7220900F5501200400008004000C1
:1019000000000000000000000000000000000000D7
:10191000000000000000000000000DAE03D0F2CF78
:101920000EF0F29EF76A3C0FF66E190EF7220900D0
:10193000F5500DAE02D00EBEF28E12004000000037
:101940004000000000000000000000000000000057
:10195000000000000000000000000000F76A6C0FAB
:10196000F66E190EF7220900F55012000902430025
:10197000020100C032090400000102020100052436
:1019800000100104240202052406000105240100C0
:1019900001070581030800FA09040100020A00009A
:1019A00000070502024000FA070582024000FA0023
:1019B000F76AC00FF66E190EF7220900F5501200F3
:1019C0000200F76AD20FF66E190EF7220900F550E1
:1019D00012001201100102000040D80401000001B1
:1019E00001020001F76AF40FF66E190EF7220900E2
:1019F000F5501200040309040A0341005500520087
:101A000045002803410075007200650042006F0028
:101A100061007200640020005500730062002D0018
:101A200053006500720069006500F2CF0EF0F29E6F
:101A3000F76A440FF66E1A0EF7220900F5500EBE33
:101A4000F28E12000D0A41555245424F540D0A5F65
:101A50005F5F5F5F5F5F0D0A0D0A496E69636961D1
:101A60006E646F2E2E2E0D0A0000F2CF0EF0F29E45
:101A7000F76A840FF66E1A0EF7220900F5500EBEB3
:101A8000F28E12005B44656C617920333030206D3A
:101A9000735D0D0A0000F2CF0EF0F29EF76AB00FF0
:101AA000F66E1A0EF7220900F5500EBEF28E1200E5
:101AB0005B4F6B5D0D0A0000F2CF0EF0F29EF76AED
:101AC000D20FF66E1A0EF7220900F5500EBEF28EF6
:101AD00012002D4C65642056657264650D0A000085
:101AE000F2CF0EF0F29EF76AFA0FF66E1A0EF72298
:101AF0000900F5500EBEF28E12002D5553422043C0
:101B000044430D0A0000F2CF0EF0F29EF76A200F58
:101B1000F66E1B0EF7220900F5500EBEF28E120073
:101B20002D50756C6C2075702773204F46460D0A3A
:101B30000000F2CF0EF0F29EF76A4C0FF66E1B0E0D
:101B4000F7220900F5500EBEF28E12002D496E7478
:101B5000657272757063696F6E2053455249450D09
:101B60000A00F2CF0EF0F29EF76A7C0FF66E1B0EA3
:101B7000F7220900F5500EBEF28E12002D496E7448
:101B8000657272757063696F6E657320676C6F62E2
:101B9000616C65730D0A0000F2CF0EF0F29EF76AD9
:101BA000B20FF66E1B0EF7220900F5500EBEF28E34
:101BB0001200A14C69737461210D0A0D0A00F2CF65
:101BC0000EF0F29EF76AD80FF66E1B0EF722090090
:101BD000F5500EBEF28E12002D4144430D0A000056
:101BE000F2CF0EF0F29EF76AFA0FF66E1B0EF72296
:101BF0000900F5500EBEF28E12002D4C4452732097
:101C0000636F6E6669677572616461730D0A0000C7
:101C1000F2CF0EF0F29EF76A2A0FF66E1C0EF72234
:101C20000900F5500EBEF28E1200280C0106F2CF0C
:101C30000EF0F29EF76A480FF66E1C0EF7220900AE
:101C4000F5500EBEF28E12002D436F6E66696775F9
:101C500072616E646F206C6564730D0A0000F2CFD0
:101C60000EF0F29EF76A780FF66E1C0EF72209004E
:101C7000F5500EBEF28E12002D4C656420697A710B
:101C800075696572646F0D0A0000F2CF0EF0F29E66
:101C9000F76AA40FF66E1C0EF7220900F5500EBE6F
:101CA000F28E12002D4C6564206465726563686F66
:101CB0000D0A0000F2CF0EF0F29EF76ACE0FF66E1C
:101CC0001C0EF7220900F5500EBEF28E12003C5396
:101CD000493A25633E3C53443A25633E0000F2CF27
:101CE0000EF0F29EF76AF80FF66E1C0EF72209004E
:101CF000F5500EBEF28E12003C43493A25633E3C3D
:101D000043443A25633E0000F2CF0EF0F29EF76A9C
:101D1000220FF66E1D0EF7220900F5500EBEF28E50
:101D200012003C50553A483E0000F2CF0EF0F29EB1
:101D3000F76A440FF66E1D0EF7220900F5500EBE2D
:101D4000F28E12003C50553A4C3E0000F2CF0EF09D
:101D5000F29EF76A660FF66E1D0EF7220900F55027
:101D60000EBEF28E12003C42493A483E0000F2CFCD
:101D70000EF0F29EF76A880FF66E1D0EF72209002C
:101D8000F5500EBEF28E12003C42493A4C3E000025
:101D9000F2CF0EF0F29EF76AAA0FF66E1D0EF72232
:101DA0000900F5500EBEF28E12003C42443A483E05
:101DB0000000F2CF0EF0F29EF76ACC0FF66E1D0E09
:101DC000F7220900F5500EBEF28E12003C42443A52
:101DD0004C3E0000F2CF0EF0F29EF76AEE0FF66E68
:101DE0001D0EF7220900F5500EBEF28E12005F5F45
:101DF0005F5F5F5F4D454E555F5F5F5F5F5F0D00EB
:101E0000F2CF0EF0F29EF76A1A0FF66E1E0EF72250
:101E10000900F5500EBEF28E1200206C6472206133
:101E2000206C63642020202020200000F2CF0EF0E0
:101E3000F29EF76A460FF66E1E0EF7220900F55065
:101E40000EBEF28E12004F4B204C44522041204CCB
:101E50004344202020200000F2CF0EF0F29EF76ACB
:101E6000720FF66E1E0EF7220900F5500EBEF28EAE
:101E7000120020636E792061206C63642020202092
:101E800020200000F2CF0EF0F29EF76A9E0FF66E51
:101E90001E0EF7220900F5500EBEF28E12004F4BB7
:101EA00020434E592041204C434420202020000054
:101EB000F2CF0EF0F29EF76ACA0FF66E1E0EF722F0
:101EC0000900F5500EBEF28E1200206E6176656735
:101ED0006163696F6E206175746F0000F2CF0EF060
:101EE000F29EF76AF60FF66E1E0EF7220900F55005
:101EF0000EBEF28E12004F4B204E415645474143D5
:101F0000494F4E2020200000F2CF0EF0F29EF76ADB
:101F1000220FF66E1F0EF7220900F5500EBEF28E4C
:101F200012002062757363616C757A202020202076
:101F300020200000F2CF0EF0F29EF76A4E0FF66EF0
:101F40001F0EF7220900F5500EBEF28E12004F4B05
:101F50002042555343414C555A2020202020000058
:101F60006D926994689489EF15F06A6A689292EFAD
:101F700015F02D6A2C6A250E2B6E800E2A6E2E6AA5
:101F80002F6A080E306E806B7B93326A316A7C6BED
:101F90007D917B81000CA86BA85101080AE3036ABC
:101FA000A851280FE96E000E0320EA6EEF6AA82BF5
:101FB000F3D7DFDF1A6A010E1B6E196A000C010EDF
:101FC000B16FB1510F080EE3700EB125016E0F0E07
:101FD000036ED8B0032A01C0E9FF03C0EAFFEF6A2D
:101FE000B12BEFD71E6A1D6A000C400E0401016F71
:101FF000050E036F026B880E006F046B050E076FF2
:10200000400E066F0001000C6A6A686A9F0E6B6ED4
:10201000390E696E6E6ABFDFD2DF160E706E68A66B
:1020200002D06896FCD76D98E0DF030E1F6E98EF24
:1020300015F0698468986D829EEF15F0689CA4EF96
:1020400015F070A002D0D1DF7090689AAAEF15F059
:10205000ACC020F0000CFF0E206E000CAA6B2752C3
:1020600035E0AA513F0832E31C5005E0020A0DE0BA
:10207000010A15E01ED0036A2650F2CFACF0F29EA2
:102080006DDCACBFF28EAB6F14D0036A2650F2CF7A
:10209000ACF0F29EA7DCACBFF28EAB6F0AD0036A45
:1020A0002650F2CFACF0F29E8CDCACBFF28EAB6F60
:1020B00000D0262A2706AA51AA2B036A400FE96EF0
:1020C000050E0320EA6EABC0EFFFC9D7275204E12B
:1020D000AA51400801E0196AAAC0ACF0B9DF000CAF
:1020E000266A1C6A05010351010A000105E0030A82
:1020F00008E0010A09E01FD0120E276E030E1C6EC5
:102100001CD0430E276E19D0020E1C6E036A050107
:102110000251210FE96E000E0320EA6EEFCF26F088
:10212000036A2650F2CFA9F0F29E00015BDCA9BF42
:10213000F28E276E02D08FDF0CD00501075305E128
:102140002750065D02E206C527F0010E196E000158
:1021500085DFC9EF11F0A95304E1040E1F6E2FDFD4
:10216000C7D0050E1F6EAC6F800EAB6F010EAA6F4D
:10217000AA510F08D8A0BCD0AD6B036AAA51F2CF08
:10218000B1F0F29E65EC0CF0B1BFF28E000A53E0A4
:10219000040EAD6FD890AA35036AF2CFB1F0F29E6B
:1021A0008DEC0CF00900F5CF03F0B1BFF28EAE6FED
:1021B00003C0AFF0AA51080DF350010F016E040ED9
:1021C000036ED8B0032A01C0E9FF03C0EAFFAEC026
:1021D000EFFFAA51080DF350020F016E040E036EBB
:1021E000D8B0032A01C0E9FF03C0EAFFACC0ECFF8E
:1021F000ED52ABC0EFFFD890AA35036AF2CFB1F031
:10220000F29E8DEC0CF00900F5CF03F0B1BFF28E19
:10221000AB270350AC23880EB06FAFB1B081AFB322
:10222000B083AA51080DF3CF01F0040E01C0E9FFFD
:10223000EA6EB0C0EFFF036AAA51F2CFB1F0F29E8E
:1022400055EC0CF0B1BFF28E000A32E0AD83AA511A
:10225000080DF350060F016E040E036ED8B0032A6A
:1022600001C0E9FF03C0EAFFACC0ECFFED52ABC018
:10227000EFFFD890AA35036AF2CFB1F0F29E75EC69
:102280000CF00900F5CF03F0B1BFF28EAB2703507D
:10229000AC23AA51080DF350040F016E040E036E17
:1022A000D8B0032A01C0E9FF03C0EAFF400EEF6E79
:1022B000AD51060802E10E0EAD6F036AAA51F2CFCE
:1022C000B1F0F29E55EC0CF0B1BFF28E020801E0C5
:1022D000AD89700EAA25016E0F0E036ED8B0032AC9
:1022E00001C0E9FF03C0EAFFADC0EFFFAA2B40D752
:1022F000C3EF11F00501015100010DE0010A14E0E6
:10230000020A1EE0060A27E0030A2CE00E0A2BE070
:10231000010A2FE03CD01BC040F50501416B020EC5
:102320000001AC6F95DE35D00501022D06D0010EFF
:102330001B160001AC6B8CDE02D000018CDE29D0B4
:102340000501022D05D01B820001AC6B81DE02D09D
:10235000000181DE1ED0020E196E02C524F0AC6BA6
:1023600077DE17D0BDD61AC040F5010EAC6F70DE17
:1023700010D005010251010808E302C51AF002C598
:10238000A9F00001E8D6AC6B63DE000102D063DE89
:1023900000D044EF13F01AC0A9F00501015100016B
:1023A00005E00A0A0BE0010A2CE03DD00501406B74
:1023B000416B020E0001AC6F4BDE37D0A9531FE01A
:1023C000010EA95D036AF2CFABF0F29ED8EC0CF0DF
:1023D000ABBFF28E016E0501045DD8A002D00001F2
:1023E0000ED0036A0451280FE96E000E0320EA6E36
:1023F000EFCF40F5010E0001AC6F2ADE01D02BDEDD
:1024000014D0A9530EE0036A05010451280FE96EA8
:10241000000E0320EA6E02C5EFFF0001AC6B18DE70
:1024200001D019DE02D017DE00D044EF13F0AA91DC
:10243000A9BFAA81A99FAAA111D0036AA951F2CF6D
:10244000ABF0F29E55EC0CF0ABBFF28E000A02E14D
:10245000000E01D0010E016E11D010D0036AA951F7
:10246000F2CFABF0F29E65EC0CF0ABBFF28E000A3F
:1024700002E1000E01D0010E016E00D0B0EF12F0AB
:10248000AA91A9BFAA81A99FAAA110D0A951080DFC
:10249000F350040F016E040E036ED8B0032A01C07E
:1024A000E9FF03C0EAFF880EEF6E09D0A951080DBD
:1024B000F3CF01F0040E01C0E9FFEA6EEF6ABFEF4F
:1024C00012F0AA91A9BFAA81A99FAAA110D0A951CF
:1024D000080DF350040F016E040E036ED8B0032AEA
:1024E00001C0E9FF03C0EAFF840EEF6E0AD0A951D4
:1024F000080DF3CF01F0040E01C0E9FFEA6E840E6F
:10250000EF6EC5EF12F0AA91A9BFAA81A99FAAA157
:1025100010D0A951080DF350040F016E040E036E84
:10252000D8B0032A01C0E9FF03C0EAFFEFCFABF048
:102530000AD0A951080DF3CF01F0040E01C0E9FF44
:10254000EA6EEFCFABF0ABAF02D0ABB502D0000E6E
:1025500001D0010E016ECFEF12F004C5A9F067D7CC
:10256000015229E005010151010A000105E0020ABA
:1025700009E0030A0DE01DD004C5A9F081D7AC6BBA
:1025800067DD19D004C5A9F09CD7AC6B61DD13D011
:102590000501406B416B04C5A9F00001B4D701529D
:1025A00004E0010E0501406F0001020EAC6F50DD2A
:1025B00002D051DD00D044EF13F0FE0E206E000C6F
:1025C0000501042D01D002D0045348E1015100015E
:1025D0000BE0010A0DE0210A1CE0010A1FE0030ADA
:1025E0002EE0010A31E037D0010E816FE6DF35D0F1
:1025F000050EEA6E400EE96EE26A330EE16E080ED9
:10260000016EE6CFEEFF012EFCD706C5ACF020DD53
:1026100024D0020E816F7B83D0DF1FD0050EEA6EBF
:10262000400EE96EE26A2A0EE16E070E016EE6CFF9
:10263000EEFF012EFCD7070EAC6F0ADD0ED002C5EF
:1026400080F0AC6B05DD09D002C532F003C531F076
:10265000AC6BFEDC02D0FFDC00D00501000144EFD2
:1026600013F0196A050100517F0B000107E0010A10
:1026700006E0030A05E0230A04E004D03BD68BD62B
:102680006CD79ED7E8DC00D029EF15F0A951080DD2
:10269000F3CF01F0040E01C0E9FFEA6EEFCFABF01B
:1026A000AA51020806E1ABAD02D0AA6B02D0010E1E
:1026B000AA6FAA51030812E1840EAB6FA951080D4D
:1026C000F350040F016E040E036ED8B0032A01C04C
:1026D000E9FF03C0EAFF840EEF6E09D0AA2D03D0F4
:1026E000C80EAB6F04D0AA5302E1880EAB6F036A29
:1026F000010E026EA951006E05E0D8900236033635
:10270000002EFBD70250FF0A006EFF0E031A005086
:102710001D1603501E16D890A935036AF2CFAEF0ED
:10272000F29E8DEC0CF00900F5CF03F0AEBFF28EF7
:10273000AC6F03C0ADF0A951080DF350010F016E4D
:10274000040E036ED8B0032A01C0E9FF03C0EAFFFC
:10275000ACC0EFFFADB1AB81ADB3AB83A951080DF8
:10276000F3CF01F0040E01C0E9FFEA6EABC0EFFF4A
:10277000000CB551080DF350040F016E040E036EEA
:10278000D8B0032A01C0E9FF03C0EAFFEFCFB9F0D8
:10279000B9BF5BD0B551080DF350050F016E040EA3
:1027A000036ED8B0032A01C0E9FF03C0EAFFB6C038
:1027B000EFFFB851020816E1B551080DF350040FB0
:1027C000016E040E036ED8B0032A01C0E9FF03C0F6
:1027D000EAFFEFCFB9F0B9AD02D0B86B02D0010E6D
:1027E000B86F13D0B851040810E1B551080DF3CFFC
:1027F00001F0040E01C0E9FFEA6EEFCFB9F0B9AD08
:1028000003D0010EB86F01D0B86BB82D03D0C80E3D
:10281000B96F04D0B85302E1880EB96FB7B1B9816E
:10282000B7B3B983B551080DF350040F016E040E10
:10283000036ED8B0032A01C0E9FF03C0EAFFB9C0A4
:10284000EFFF010E016E03D000D0000E016E000CF0
:102850008151010A03E0030A12E022D0EA6A330E32
:10286000E96E050EE26EE16A080E016EE6CFEEFF3C
:10287000012EFCD7AC6B28EC10F0816B15D0EA6A06
:102880002A0EE96E050EE26EE16A070E016EE6CFD2
:10289000EEFF012EFCD7816BAC6B28EC10F004D05E
:1028A000816BF5EC0FF000D076EF14F0AA51080D13
:1028B000F350010F016E040E036ED8B0032A01C05D
:1028C000E9FF03C0EAFF036AEFCF01F003C002F0A3
:1028D0006FEF14F07D817F6B020EAA6FE7D701C006
:1028E0007EF07BEF14F0A95302E1B2D714D0A951C6
:1028F000020802E1EFD70FD0036A010E026EA95160
:10290000006E05E0D89002360336002EFBD7025049
:102910001D1203501E12000CAAC06EFFAA5303E042
:10292000040E1F6E02D0020E1F6E9CEF14F01A6A86
:10293000196A24C0AAF0F0D713EF15F0AA51080DB8
:10294000F350040F016E040E036ED8B0032A01C0C9
:10295000E9FF03C0EAFFEFCFB2F0B2BF3FD0AA5108
:10296000080DF350060F016E040E036ED8B0032A53
:1029700001C0E9FF03C0EAFFECCF03F0ED52EFCF57
:10298000B3F003C0B4F0B16BB06BB151AE5D1AE3FC
:1029900003E1AD51B05D16E2ABC0E9FFACC0EAFFA8
:1029A000EFCFB7F0B4C0EAFFB3C0E9FFB7C0EFFFA5
:1029B000B32BD8B4B42BAB2BD8B4AC2BB02BD8B42E
:1029C000B12BE3D7AAC0B5F0AEC0B7F0ADC0B6F03A
:1029D000AFC0B8F0CEDE015003D000D0000E016EC3
:1029E000000C7C530DE07B91020EAA6FAC6B3B0E8A
:1029F000AB6FAE6B7CC0ADF0020EAF6F9FDF7C6B38
:102A0000000C7C5302E0EDDF01D07B8118EF15F064
:102A1000A9530AE1192C03D02EEC10F004D0195060
:102A2000020801E184D704D0A951020801E1E9D7E5
:102A3000000C6C30A86FA833A8331F0EA8176C5277
:102A40003BE1040100513C0B34081BE1046B000125
:102A500008D6203C05D0A96B030EAA6F17DE0ED056
:102A6000A96B020EAA6F12DE2050FE0807E0B56BBC
:102A7000B76B20C0B6F0040EB86F7BDE6D9819D02E
:102A8000040100513C0B040815E10001A96B2BDF88
:102A9000A96B020EAA6FFADD2050FE080AE0203C66
:102AA00001D007D0B56BB76B20C0B6F0010EB86F80
:102AB00060DE040120D000016C50040812E1FF0E1A
:102AC000206EA96BA5DF203C01D008D0B56BB76B99
:102AD00020C0B6F0020EB86F4CDE02D0F5EC0FF05D
:102AE00009D06CB404D0A8C0A9F0FDDE03D0A8C002
:102AF000A9F08EDF04010001AFEF15F01F5201E1D4
:102B00002FD068522DE068A404D069A402D0B0EFA1
:102B10000FF06DA201D024D068A204D069A202D027
:102B2000B5EF0FF068A004D069A002D004EF10F058
:102B300068A804D069A802D019EF10F068AC04D0DE
:102B400069AC02D01EEF10F068AA04D069AA02D0C6
:102B500021EF10F068A604D069A602D06AD7689663
:102B6000A19A32EF0CF09EAAFED7AECFA8F0A853E0
:102B70000BE0A83D01D008D094948B74A8C082F0DB
:102B8000A8511B08D8B4FF009E9A32EF0CF0EA6AF5
:102B9000A00EE96EEF500EE00F0E016E006A002EDF
:102BA000FED7012EFBD78F0E006E002EFED7000041
:102BB000EF2EF2D7000C8C6B8D6B8D5115EC0DF058
:102BC0008D2B006E00509EA8FED7AD6E240E8D5D3D
:102BD000F4E18D6B8D5135EC0DF08D2B006E0050B6
:102BE0009EA8FED7AD6E100E8D5DF4E1020E8D6FC6
:102BF000960EA06FCCDF8D2FFBD78D6B8D514BECDC
:102C00000DF08D2B006E00509EA8FED7AD6E060E07
:102C10008D5DF4E18C6B8C51090807E394948B74FF
:102C2000320EA06FB4DF8C2BF6D78D6B8D515CEC20
:102C30000DF08D2B006E00509EA8FED7AD6E0C0ED1
:102C40008D5DF4E18D6B8D5170EC0DF08D2B006E70
:102C500000509EA8FED7AD6E0A0E8D5DF4E1F18E98
:102C60008D6B8D5183EC0DF08D2B006E00509EA866
:102C7000FED7AD6E100E8D5DF4E1C150C00B0F0993
:102C8000C16EF29CF29EF2BEFDD7C150C00B0F097F
:102C9000C16EC290C69A949E93809392000EC66EA7
:102CA000C76E9698D190800ED56E850ECD6E000EB3
:102CB000CA6E000ECB6EB150480BB16E070EB46EEB
:102CC0009250270E006E002EFED700D0B450A19C6B
:102CD000B56AF18E9D8A8D6B8D5199EC0DF08D2B1F
:102CE000006E00509EA8FED7AD6E150E8D5DF4E10E
:102CF000C00EF2128D6B8D51B1EC0DF08D2B006E6C
:102D000000509EA8FED7AD6E1A0E8D5DF4E18D6B5E
:102D10008D51CCEC0DF08D2B006E00509EA8FED78F
:102D2000AD6E0B0E8D5DF4E132EF1BF08C6B8C51B0
:102D300017EC0EF08C2B006E00509EA8FED7AD6EE7
:102D4000140E8C5DF4E1968096829684929A898A1C
:102D50008C6B8C512FEC0EF08C2B006E00509EA8CB
:102D6000FED7AD6E100E8C5DF4E196908D808C6B6D
:102D70008C5145EC0EF08C2B006E00509EA8FED7B7
:102D8000AD6E0E0E8C5DF4E134EF1BF0A7B102D0F6
:102D90008A9A01D08A8A939AA7B302D08A9801D0DE
:102DA0008A889398A7B502D08A9601D08A8693968E
:102DB000A7B702D08A9401D08A849394030E006E40
:102DC000002EFED700D0939C8A8C070E006E002E3A
:102DD000FED700D0939C8A9C000C939E8A9EEF0E97
:102DE000006E002EFED700D0A45303E0939E8A8E7F
:102DF00002D0939E8A9E0000939C8A9CA539A66F60
:102E00000F0EA617A6C0A7F0C1DFA5510F0BA66F26
:102E1000A76FBCDF000C939E8A9E939C8A9C0F0E2A
:102E2000A06FB5DE8C6B8C51020808E3030EA76F10
:102E3000ADDF050EA06FABDE8C2BF5D7020EA76FB2
:102E4000A5DF8C6B8C51030812E3036A8C51F2CF1F
:102E50008DF0F29E08EC0EF08DBFF28E8E6FA46B9B
:102E6000A56FBBDF050EA06F92DE8C2BEBD7000C9D
:102E7000D8908C350C098D118F6FA46BA56FADDFC9
:102E800046EF17F0C8DF8C6B8D6BF2D735EF1BF078
:102E9000186AF2BE188EF29ECBEC0FF018BEF28EBE
:102EA0006D6A140E6F6E696A6D86010E1F6E5CEF9F
:102EB00017F06DB601D0ECD71F2C0BD06DBA09D02E
:102EC000686A696AA08AC00EF212110E696E020E5B
:102ED0001F6E36EF1BF07DB101D0FDD77F517F2BE8
:102EE000036A880FE96E050E0320EA6EEFCF8DF0BE
:102EF0007E517F5D0CE37D91186AF2BE188EF29EC2
:102F0000020EA96FAA6F46EC13F018BEF28E8DC0A8
:102F100001F08CEF17F0DFD701C08CF08C530BE081
:102F20008C3D01D008D094948B748CC082F08C516D
:102F30001B08D8B4FF0039EF1BF08C9C959C8C8E3D
:102F4000959E8C9895988C8A959A000C8C8C959C63
:102F50008C9E959E8C8895988C9A959A6DEF18F01A
:102F60008C8C959C8C9E959E8C9895988C8A959A25
:102F70006DEF18F08C9C959C8C8E959E8C88959806
:102F80008C9A959A6DEF18F08C9C959C8C9E959ED2
:102F90008C9895988C9A959A000C9291F2BE928199
:102FA000F29E7C513F0802E23F0E7C6F7C517C2BED
:102FB000036A3B0FE96E000E0320EA6E91C0EFFF3B
:102FC000F29E92B1F28E7BA107D0186AF2BE188EE3
:102FD000F29E07DD18BEF28EFEEF17F07C513F081F
:102FE0000AE27BA107D0186AF2BE188EF29EF9DCC5
:102FF00018BEF28EF3D790C091F0CFD7000C949406
:103000008B748251310A1DE0030A22E0010A27E095
:10301000070A2CE0010A31E0030A36E0410A3BE0EE
:10302000040A3BE0170A3AE0050A39E0100A38E0E2
:103030001F0A38E0030A39E0170A3AE0020A39E0C9
:1030400039D0842D02D0846B02D0010E846F45D01C
:10305000852D02D0856B02D0010E856F3ED0862D66
:1030600002D0866B02D0010E866F37D0872D02D03A
:10307000876B02D0010E876F30D0882D02D0886B0D
:1030800002D0010E886F29D0832D02D0836B02D02D
:10309000010E836F22D051DF20D058D761D76AD775
:1030A00073DF1BD0929A897A18D096908D7015D0C4
:1030B00014D013D04E0E906F91DF520E906F8EDFB2
:1030C0003A0E906F8BDF82C090F088DF0D0E906F0C
:1030D00085DF0A0E906F82DF00D0826B3CEF1BF021
:1030E0008F51070B006E8F31016E013201321F0EBE
:1030F000011601509125E96E000E9221EA6E016AD7
:10310000012A002A01D00136002EFDD7905303E09A
:103110000150EF1203D0011E0150EF167DEF1CF09D
:103120008F51070B006E8F31016E013201321F0E7D
:10313000011601509025E96E000E9121EA6EEFCF45
:1031400001F0002A01D00132002EFDD784EF1CF0DF
:10315000A12D01D003D0400EA26F01D0A26B010EB1
:10316000A05DA227A2518009A36FA46BA56F35DED5
:10317000000C9F510C0A05E0010A0BE0050A0FE064
:1031800013D0A46B010EA56F28DE020EA06FFFDC2A
:1031900011D0010EA06F020EA16FDADF0BD0A46B6D
:1031A000100EA56F1ADE06D0010EA46F9FC0A5F009
:1031B00014DE00D0000CC150C00B0D09C16EC080E0
:1031C000C082C084C09EC2809D6B9D51DFEC0DF01B
:1031D0009D2B006E00509EA8FED7AD6E060E9D5D25
:1031E000F4E19D6B9D51F0EC0DF09D2B006E0050B5
:1031F0009EA8FED7AD6E140E9D5DF4E1000C016A31
:10320000026A006A036AA05102E19F5118E0100EA1
:10321000A16FD8909D379E3700360336A051035CCE
:1032200002E19F51005C07E39F51005ED8A00306B6
:10323000A051035ED88001360236A12FEAD7000CD8
:10324000A051016A9F5D03E29FC000F00CD0006AAC
:10325000080EA16F9F370036A051005CD8B0006EF9
:103260000136A12FF7D7000C01509DC09FF0640ECE
:10327000A06FE6DF00C09DF00150300E07E19EA375
:103280000CD09EB70AD09EB9200E03D09E979E996F
:103290009E81012601C09FF06CDF9DC09FF00A0E49
:1032A000A06FCEDF00C09DF00150300E06E19EB74A
:1032B00008D09EA106D09EB9200E012601C09FF025
:1032C00058DF300E9D279DC09FF053DF000C73DF49
:1032D000928880B8CCD0010EA06FA16F39DF010EAB
:1032E0009D6F9D35006E0036FC0E0016C250C30B5C
:1032F0000010C26EC282C2B2FED7C4CF9DF09DC084
:1033000001F001C08EF08D6B8EC08CF08DC09EF0F0
:103310008CC09DF0A06B160E9F6F71DF02C08DF008
:1033200001C08CF08F6B8F510B081AE38D5303E1B2
:103330008F518C5D0AE3036A8F51900FE96E000E86
:103340000320EA6EDB0EEF6E09D0036A8F51900FF7
:10335000E96E000E0320EA6E2D0EEF6E8F2BE3D781
:103360009C6B8EC09DF0030E9E6F7EDF7C0E9F6F68
:1033700000DFEA6A900EE96E000EEF100FE0EACF70
:103380009EF0E9CF9DF0EFCF9FF0F3DE9EC0EAFF05
:103390009DC0E9FFE92AD8B4EA2AEED70D0E9F6F47
:1033A000E8DE9D6B9D35006E0036FC0E0016C250A7
:1033B000C30B0010C26EC282C2B2FED7C4CF9DF052
:1033C0009DC001F001C08EF08D6B8EC08CF08DC061
:1033D0009EF08CC09DF0A06B160E9F6F10DF02C098
:1033E0008DF001C08CF08F6B8F510B081AE38D5359
:1033F00003E18F518C5D0AE3036A8F51900FE96EF0
:10340000000E0320EA6EDB0EEF6E09D0036A8F51C7
:10341000900FE96E000E0320EA6E2D0EEF6E8F2BDB
:10342000E3D79C6B8EC09DF0030E9E6F1DDF7C0E5C
:103430009F6F9FDEEA6A900EE96E000EEF100FE0BC
:10344000EACF9EF0E9CF9DF0EFCF9FF092DE9EC0D5
:10345000EAFF9DC0E9FFE92AD8B4EA2AEED70D0EAB
:103460009F6F87DE280EA06FC7EC15F031D7FFEFF6
:103470001CF0A1DE928880B8CDD0010EA06FA16FA4
:1034800067DE020E9D6F9D35006E0036FC0E001645
:10349000C250C30B0010C26EC282C2B2FED7C4CFEC
:1034A0009DF09DC001F001C08EF08D6B8EC08CF040
:1034B0008DC09EF08CC09DF0A06B160E9F6F9FDE9E
:1034C00002C08DF001C08CF08F6B8F510B081AE396
:1034D0008D5303E18F518C5D0AE3036A8F51900F86
:1034E000E96E000E0320EA6EDB0EEF6E09D0036A70
:1034F0008F51900FE96E000E0320EA6E2D0EEF6ED5
:103500008F2BE3D79C6B8EC09DF0030E9E6FACDEBD
:103510007C0E9F6F2EDEEA6A900EE96E000EEF10B1
:103520000FE0EACF9EF0E9CF9DF0EFCF9FF021DED4
:103530009EC0EAFF9DC0E9FFE92AD8B4EA2AEED787
:103540000D0E9F6F16DE030E9D6F9D35006E0036CB
:10355000FC0E0016C250C30B0010C26EC282C2B273
:10356000FED7C4CF9DF09DC001F001C08EF08D6BE1
:103570008EC08CF08DC09EF08CC09DF0A06B160E9E
:103580009F6F3DDE02C08DF001C08CF08F6B8F51BC
:103590000B081AE38D5303E18F518C5D0AE3036A34
:1035A0008F51900FE96E000E0320EA6EDB0EEF6E76
:1035B00009D0036A8F51900FE96E000E0320EA6E66
:1035C0002D0EEF6E8F2BE3D79C6B8EC09DF0030EFC
:1035D0009E6F4ADE7C0E9F6FCCDDEA6A900EE96E2C
:1035E000000EEF100FE0EACF9EF0E9CF9DF0EFCF95
:1035F0009FF0BFDD9EC0EAFF9DC0E9FFE92AD8B475
:10360000EA2AEED70D0E9F6FB4DD280EA06FC7EC2F
:1036100015F030D73DEF1DF0F86AD09E0D8EEA6AA6
:10362000E96AB886E10EAF6E040EB06EA60EAC6EFF
:10363000900EAB6EC150C00B0F09C16E070EB46E79
:103640001F6A216A040E226E0E0E236E276A7C6B9F
:10365000816B826B836B846B856B866B876B886BEE
:10366000DBEF15F096EF16F00DD423D47DA104D036
:1036700052D4825301E0C3D4842D47D0010E9D6FF4
:103680009D35006E0036FC0E0016C250C30B0010B4
:10369000C26EC282C2B2FED7C4CF9DF09DC001F0FF
:1036A00001C089F09D6B9D35006E0036FC0E001642
:1036B000C250C30B0010C26EC282C2B2FED7C4CFCA
:1036C0009DF09DC001F001C08AF08C6B8C515AECCA
:1036D0000EF08C2B006E906F81DC040E8C5DF6E199
:1036E00089C090F07BDC060E8D6F8D515AEC0EF088
:1036F0008D2B006E906F72DC0B0E8D5DF6E18AC033
:1037000090F06CDC3E0E906F69DC852D48D0020E87
:103710009D6F9D35006E0036FC0E0016C250C30B27
:103720000010C26EC282C2B2FED7C4CF9DF09DC04F
:1037300001F001C089F0030E9D6F9D35006E0036CB
:10374000FC0E0016C250C30B0010C26EC282C2B281
:10375000FED7C4CF9DF09DC001F001C08AF08C6BF4
:103760008C516FEC0EF08C2B006E906F37DC040EDA
:103770008C5DF6E189C090F031DC060E8D6F8D51C5
:103780006FEC0EF08D2B006E906F28DC0B0E8D5DB4
:10379000F6E18AC090F022DC3E0E906F1FDC862D91
:1037A00052D0928880A80CD08C6B8C5184EC0EF097
:1037B0008C2B006E906F12DC060E8C5DF6E10BD048
:1037C0008C6B8C5195EC0EF08C2B006E906F06DCA0
:1037D000060E8C5DF6E1928480A40DD08C6B8C512A
:1037E000A6EC0EF08C2B006E906FEEEC17F0060E30
:1037F0008C5DF5E10CD08C6B8C51B7EC0EF08C2B02
:10380000006E906FEEEC17F0060E8C5DF5E192867F
:1038100080A60DD08C6B8C51C8EC0EF08C2B006EFA
:10382000906FEEEC17F0060E8C5DF5E10CD08C6B12
:103830008C51D9EC0EF08C2B006E906FEEEC17F0E3
:10384000060E8C5DF5E1872D42D0C150C00BC16ED4
:10385000C080C082C084C09EC2808B6B8B51010827
:1038600031E3300E8B258C6F8BC09DF09D35006E43
:103870000036FC0E0016C250C30B0010C26EC2828E
:10388000C2B2FED7C4CF9DF09DC001F001C08DF043
:103890003C0E906FEEEC17F0410E906FEEEC17F0CF
:1038A0008CC090F0EEEC17F03A0E906FEEEC17F043
:1038B0008DC090F0EEEC17F03E0E906FEEEC17F02E
:1038C0008B2BCCD7C150C00B0F09C16EC290882D75
:1038D0003CD08B6B8B51010838E3300E8B258C6FFD
:1038E0008BC08DF07C0E8BC08FF0010E906F0F0E91
:1038F000926F920E916F70EF18F08DC08FF00F0ED7
:10390000916F800E906F0CD4000E01B0010E960DD9
:10391000F350320F8F6F3C0E906FEEEC17F0410EAC
:10392000906FEEEC17F08CC090F0EEEC17F03A0EC2
:10393000906FEEEC17F08FC090F0EEEC17F03E0EAB
:10394000906FEEEC17F08B2BC5D7832D0CD09DEC30
:1039500017F0FA0EA06FC7EC15F0C4EC17F0FA0ED2
:10396000A06FC7EC15F0928880A803D1928880A838
:1039700001D0FCD7010EA06FA16FA8EC18F08C6BE2
:103980008C51EAEC0EF08C2B006E9F6FB9EC18F0A6
:10399000110E8C5DF5E18C6B8C5100EC0FF08C2BD3
:1039A000006E9F6FB9EC18F0100E8C5DF5E18B6B1B
:1039B0008B5109080BE3640EA06FC7EC15F09288D9
:1039C00080A802D00A0E8B6F8B2BF2D7928880A82A
:1039D00016D0010EA06FA16FA8EC18F08C6B8C5163
:1039E00016EC0FF08C2B006E9F6FB9EC18F0100ED8
:1039F0008C5DF5E1928880A801D0FCD768D4010ED7
:103A0000A06FA16FA8EC18F08C6B8C51EAEC0EF053
:103A10008C2B006E9F6FB9EC18F0110E8C5DF5E1E8
:103A20008C6B8C512CEC0FF08C2B006E9F6FB9ECD3
:103A300018F0100E8C5DF5E1040E8C6FFA0EA06F7D
:103A4000C7EC15F08C2FFAD7928880A816D0010EFB
:103A5000A06FA16FA8EC18F08C6B8C5142EC0FF0AA
:103A60008C2B006E9F6FB9EC18F0100E8C5DF5E199
:103A7000928880A801D0FCD7FCD4010EA06FA16F62
:103A8000A8EC18F08C6B8C51EAEC0EF08C2B006ECD
:103A90009F6FB9EC18F0110E8C5DF5E18C6B8C51B9
:103AA00058EC0FF08C2B006E9F6FB9EC18F0100ED5
:103AB0008C5DF5E1040E8C6FFA0EA06FC7EC15F06B
:103AC0008C2FFAD7928880A815D0010EA06FA16F15
:103AD000A8EC18F08C6B8C516EEC0FF08C2B006EF8
:103AE0009F6FB9EC18F0100E8C5DF5E1928880A8FC
:103AF00001D0FCD7010EA06FA16FA8EC18F08C6B61
:103B00008C51EAEC0EF08C2B006E9F6FB9EC18F024
:103B1000110E8C5DF5E18C6B8C5184EC0FF08C2BCD
:103B2000006E9F6FB9EC18F0100E8C5DF5E1040E7D
:103B30008C6FFA0EA06FC7EC15F08C2FFAD7928815
:103B400080A815D0010EA06FA16FA8EC18F08C6BA7
:103B50008C519AEC0FF08C2B006E9F6FB9EC18F023
:103B6000100E8C5DF5E1928880A801D0FCD70BEC9B
:063B700017F07BD50300F5
:020000040030CA
:0E00000020C23E1E008381000FC00FE00F40A3
:00000001FF
;PIC18F4550
