:020000040000FA
:041800007AEF1EF06D
:08180800056ED8CF06F0E0CF19
:1018100007F00001E9CF0DF0EACF08F0E1CF09F0C1
:10182000E2CF0AF0D9CF0BF0DACF0CF0F3CF14F0FF
:10183000F4CF15F0FACF16F000C00FF001C010F091
:1018400002C011F003C012F004C013F09DA22CEFEF
:101850000CF09EB2DDEF15F09DAA32EF0CF09EBAAF
:101860009CEF15F0A0AA38EF0CF0A1BA67EF15F0C5
:101870000FC000F010C001F011C002F012C003F060
:1018800013C004F00E8E0DC0E9FF08C0EAFF09C0C6
:10189000E1FF0AC0E2FF0BC0D9FF0CC0DAFF14C0A1
:1018A000F3FF15C0F4FF16C0FAFF055007C0E0FFB4
:1018B00006C0D8FF1000F76AC60FF66E180EF722A2
:1018C0000900F550120004030100000000000000B0
:1018D000000000000000F76AE60FF66E180EF7220F
:1018E0000900F55012000400010000000000000093
:1018F000000000000000F76A060FF66E190EF722CE
:101900000900F550120040000800400000000000EF
:1019100000000000000000000000000000000000C7
:101920000000000000000DAE03D0F2CF0EF0F29EDA
:10193000F76A480FF66E190EF7220900F5500DAE42
:1019400002D00EBEF28E12004000000040000000E7
:101950000000000000000000000000000000000087
:101960000000000000000000F76A780FF66E190E04
:10197000F7220900F550120009024300020100C0DD
:1019800032090400000102020100052400100104D4
:101990002402020524060001052401000107058137
:1019A000030800FA09040100020A0000000705020A
:1019B000024000FA070582024000FA00F76ACC0FE5
:1019C000F66E190EF7220900F55012000200F76AB0
:1019D000DE0FF66E190EF7220900F5501200120103
:1019E000100102000040D8040100000101020001C2
:1019F000F76A000FF66E1A0EF7220900F550120072
:101A0000040309040A03410055005200450028035D
:101A1000410075007200650042006F0061007200B5
:101A2000640020005500730062002D005300650023
:101A3000720069006500F2CF0EF0F29EF76A500F57
:101A4000F66E1A0EF7220900F5500EBEF28E120045
:101A50000D0A0A2D41757265426F61726420A14CB6
:101A600069737461210D0A00F2CF0EF0F29EF76ADD
:101A7000820FF66E1A0EF7220900F5500EBEF28E96
:101A800012000D0A41555245424F540D0A5F5F5FE7
:101A90005F5F5F5F0D0A0D0A496E696369616E647D
:101AA0006F2E2E2E0D0A0000F2CF0EF0F29EF76A76
:101AB000C20FF66E1A0EF7220900F5500EBEF28E16
:101AC00012005B44656C6179203530206D735D0DCB
:101AD0000A00F2CF0EF0F29EF76AEC0FF66E1A0EC5
:101AE000F7220900F5500EBEF28E12005B4F6B5DBF
:101AF0000D0A0000F2CF0EF0F29EF76A0E0FF66E9E
:101B00001B0EF7220900F5500EBEF28E12002D5565
:101B10005342204344430D0A0000F2CF0EF0F29EE0
:101B2000F76A340FF66E1B0EF7220900F5500EBE51
:101B3000F28E12002D4C65642056657264650D0AA4
:101B40000000F2CF0EF0F29EF76A5C0FF66E1B0EED
:101B5000F7220900F5500EBEF28E12002D414443CB
:101B60000D0A0000F2CF0EF0F29EF76A7E0FF66EBD
:101B70001B0EF7220900F5500EBEF28E12002D4CFE
:101B800044527320636F6E66696775726164617336
:101B90000D0A0000F2CF0EF0F29EF76AAE0FF66E5D
:101BA0001B0EF7220900F5500EBEF28E1200280C13
:101BB0000106F2CF0EF0F29EF76ACC0FF66E1B0E06
:101BC000F7220900F5500EBEF28E120056656C3AEF
:101BD0002025750D0A00F2CF0EF0F29EF76AF00F85
:101BE000F66E1B0EF7220900F5500EBEF28E1200A3
:101BF0004E61766567612E206175746F6E6F6D61E1
:101C00000000F2CF0EF0F29EF76A1C0FF66E1C0E6B
:101C1000F7220900F5500EBEF28E12002A2A2A2160
:101C20004164656C616E7465212A2A2A0000F2CF36
:101C30000EF0F29EF76A480FF66E1C0EF7220900AE
:101C4000F5500EBEF28E120021557073216F627333
:101C50007461632E697A64610000F2CF0EF0F29E27
:101C6000F76A740FF66E1C0EF7220900F5500EBECF
:101C7000F28E120021557073216F62737461632EAE
:101C8000646368610000F2CF0EF0F29EF76AA00F65
:101C9000F66E1C0EF7220900F5500EBEF28E1200F1
:101CA0003C53493A25633E3C53443A25633E000089
:101CB000F2CF0EF0F29EF76ACA0FF66E1C0EF722F4
:101CC0000900F5500EBEF28E12003C43493A2563DE
:101CD0003E3C43443A25633E0000F2CF0EF0F29EB4
:101CE000F76AF40FF66E1C0EF7220900F5500EBECF
:101CF000F28E12003C50553A483E0000F2CF0EF0F2
:101D0000F29EF76A160FF66E1D0EF7220900F550C7
:101D10000EBEF28E12003C50553A4C3E0000F2CFFF
:101D20000EF0F29EF76A380FF66E1D0EF7220900CC
:101D3000F5500EBEF28E12003C42493A483E000079
:101D4000F2CF0EF0F29EF76A5A0FF66E1D0EF722D2
:101D50000900F5500EBEF28E12003C42493A4C3E4C
:101D60000000F2CF0EF0F29EF76A7C0FF66E1D0EA9
:101D7000F7220900F5500EBEF28E12003C42443AA2
:101D8000483E0000F2CF0EF0F29EF76A9E0FF66E0C
:101D90001D0EF7220900F5500EBEF28E12003C42D5
:101DA000443A4C3E0000F2CF0EF0F29EF76AC00FAC
:101DB000F66E1D0EF7220900F5500EBEF28E1200CF
:101DC0005F5F5F5F5F5F4D454E555F5F5F5F5F5F6A
:101DD0000D00F2CF0EF0F29EF76AEC0FF66E1D0EBC
:101DE000F7220900F5500EBEF28E1200206C6472CC
:101DF0002061206C63642020202020200000F2CF8E
:101E00000EF0F29EF76A180FF66E1E0EF72209000A
:101E1000F5500EBEF28E12004F4B204C4452204122
:101E2000204C4344202020200000F2CF0EF0F29EF0
:101E3000F76A440FF66E1E0EF7220900F5500EBE2B
:101E4000F28E120020636E792061206C6364202082
:101E5000202020200000F2CF0EF0F29EF76A700FD3
:101E6000F66E1E0EF7220900F5500EBEF28E12001D
:101E70004F4B20434E592041204C434420202020EA
:101E80000000F2CF0EF0F29EF76A9C0FF66E1E0E67
:101E9000F7220900F5500EBEF28E1200206E617618
:101EA00065676163696F6E206175746F0000F2CFC2
:101EB0000EF0F29EF76AC80FF66E1E0EF7220900AA
:101EC000F5500EBEF28E12004F4B204E4156454744
:101ED0004143494F4E2020200000F2CF0EF0F29EE9
:101EE000F76AF40FF66E1E0EF7220900F5500EBECB
:101EF000F28E12002062757363616C757A20202067
:101F0000202020200000F2CF0EF0F29EF76A200F72
:101F1000F66E1F0EF7220900F5500EBEF28E12006B
:101F20004F4B2042555343414C555A2020202020EE
:101F300000006D926994689472EF15F06A6A689275
:101F40007BEF15F02D6A2C6A250E2B6E800E2A6E03
:101F50002E6A2F6A080E306E806B7B93326A316A6C
:101F60007C6B7D917B81000CB36BB35101080AE35C
:101F7000036AB351280FE96E000E0320EA6EEF6A80
:101F8000B32BF3D7DFDF1A6A010E1B6E196A000C40
:101F9000010EBC6FBC510F080EE3700EBC25016E24
:101FA0000F0E036ED8B0032A01C0E9FF03C0EAFF99
:101FB000EF6ABC2BEFD71E6A1D6A000C400E0401AD
:101FC000016F050E036F026B880E006F046B050E28
:101FD000076F400E066F0001000C6A6A686A9F0E68
:101FE0006B6E390E696E6E6ABFDFD2DF160E706ED1
:101FF00068A602D06896FCD76D98E0DF030E1F6ECE
:1020000081EF15F0698468986D8287EF15F0689C00
:102010008DEF15F070A002D0D1DF7090689A93EF29
:1020200015F0B7C020F0000CFF0E206E000CB56B51
:10203000275235E0B5513F0832E31C5005E0020A53
:102040000DE0010A15E01ED0036A2650F2CFB7F06A
:10205000F29E8ADCB7BFF28EB66F14D0036A2650A8
:10206000F2CFB7F0F29EC4DCB7BFF28EB66F0AD0E3
:10207000036A2650F2CFB7F0F29EA9DCB7BFF28E0A
:10208000B66F00D0262A2706B551B52B036A400F3C
:10209000E96E050E0320EA6EB6C0EFFFC9D72752DE
:1020A00004E1B551400801E0196AB5C0B7F0B9DFE5
:1020B000000C266A1C6A05010351010A000105E0B3
:1020C000030A08E0010A09E01FD0120E276E030E72
:1020D0001C6E1CD0430E276E19D0020E1C6E036AB4
:1020E00005010251210FE96E000E0320EA6EEFCFC9
:1020F00026F0036A2650F2CFB4F0F29E000178DC9D
:10210000B4BFF28E276E02D08FDF0CD005010753CB
:1021100005E12750065D02E206C527F0010E196EA3
:10212000000185DFB2EF11F0B45304E1040E1F6E1D
:102130002FDFC7D0050E1F6EB76F800EB66F010E72
:10214000B56FB5510F08D8A0BCD0B86B036AB551B4
:10215000F2CFBCF0F29E6BEC0CF0BCBFF28E000A2A
:1021600053E0040EB86FD890B535036AF2CFBCF0D7
:10217000F29E93EC0CF00900F5CF03F0BCBFF28E99
:10218000B96F03C0BAF0B551080DF350010F016EDD
:10219000040E036ED8B0032A01C0E9FF03C0EAFFB2
:1021A000B9C0EFFFB551080DF350020F016E040ED8
:1021B000036ED8B0032A01C0E9FF03C0EAFFB7C02D
:1021C000ECFFED52B6C0EFFFD890B535036AF2CF01
:1021D000BCF0F29E93EC0CF00900F5CF03F0BCBF0D
:1021E000F28EB6270350B723880EBB6FBAB1BB81FE
:1021F000BAB3BB83B551080DF3CF01F0040E01C093
:10220000E9FFEA6EBBC0EFFF036AB551F2CFBCF045
:10221000F29E5BEC0CF0BCBFF28E000A32E0B88399
:10222000B551080DF350060F016E040E036ED8B0C1
:10223000032A01C0E9FF03C0EAFFB7C0ECFFED527B
:10224000B6C0EFFFD890B535036AF2CFBCF0F29E6E
:102250007BEC0CF00900F5CF03F0BCBFF28EB62783
:102260000350B723B551080DF350040F016E040E4F
:10227000036ED8B0032A01C0E9FF03C0EAFF400E95
:10228000EF6EB851060802E10E0EB86F036AB55141
:10229000F2CFBCF0F29E5BEC0CF0BCBFF28E0208F9
:1022A00001E0B889700EB525016E0F0E036ED8B02F
:1022B000032A01C0E9FF03C0EAFFB8C0EFFFB52B56
:1022C00040D7ACEF11F00501015100010DE0010A0A
:1022D00014E0020A1EE0060A27E0030A2CE00E0AB8
:1022E0002BE0010A2FE03CD01BC040F50501416BFB
:1022F000020E0001B76F95DE35D00501022D06D024
:10230000010E1B160001B76B8CDE02D000018CDEC3
:1023100029D00501022D05D01B820001B76B81DE9B
:1023200002D0000181DE1ED0020E196E02C524F01B
:10233000B76B77DE17D0BDD61AC040F5010EB76F68
:1023400070DE10D005010251010808E302C51AF041
:1023500002C5B4F00001E8D6B76B63DE000102D01D
:1023600063DE00D02DEF13F01AC0B4F00501015167
:10237000000105E00A0A0BE0010A2CE03DD005014E
:10238000406B416B020E0001B76F4BDE37D0B45388
:102390001FE0010EB45D036AF2CFB6F0F29EDEECF0
:1023A0000CF0B6BFF28E016E0501045DD8A002D01C
:1023B00000010ED0036A0451280FE96E000E0320BD
:1023C000EA6EEFCF40F5010E0001B76F2ADE01D0B3
:1023D0002BDE14D0B4530EE0036A05010451280F1C
:1023E000E96E000E0320EA6E02C5EFFF0001B76B35
:1023F00018DE01D019DE02D017DE00D02DEF13F069
:10240000B591B4BFB581B49FB5A111D0036AB451E1
:10241000F2CFB6F0F29E5BEC0CF0B6BFF28E000A83
:1024200002E1000E01D0010E016E11D010D0036A3E
:10243000B451F2CFB6F0F29E6BEC0CF0B6BFF28E58
:10244000000A02E1000E01D0010E016E00D099EFEA
:1024500012F0B591B4BFB581B49FB5A110D0B451FD
:10246000080DF350040F016E040E036ED8B0032A5A
:1024700001C0E9FF03C0EAFF880EEF6E09D0B45136
:10248000080DF3CF01F0040E01C0E9FFEA6EEF6A18
:10249000A8EF12F0B591B4BFB581B49FB5A110D02B
:1024A000B451080DF350040F016E040E036ED8B042
:1024B000032A01C0E9FF03C0EAFF840EEF6E0AD0D1
:1024C000B451080DF3CF01F0040E01C0E9FFEA6E2C
:1024D000840EEF6EAEEF12F0B591B4BFB581B49F2C
:1024E000B5A110D0B451080DF350040F016E040EC5
:1024F000036ED8B0032A01C0E9FF03C0EAFFEFCFA3
:10250000B6F00AD0B451080DF3CF01F0040E01C0AB
:10251000E9FFEA6EEFCFB6F0B6AF02D0B6B502D0A3
:10252000000E01D0010E016EB8EF12F004C5B4F038
:1025300067D7015229E005010151010A000105E0B8
:10254000020A09E0030A0DE01DD004C5B4F081D7EA
:10255000B76B67DD19D004C5B4F09CD7B76B61DDEC
:1025600013D00501406B416B04C5B4F00001B4D732
:10257000015204E0010E0501406F0001020EB76F29
:1025800050DD02D051DD00D02DEF13F0FE0E206E95
:10259000000C0501042D01D002D0045348E1015183
:1025A00000010BE0010A0DE0210A1CE0010A1FE016
:1025B000030A2EE0010A31E037D0010E816FE6DF19
:1025C00035D0050EEA6E400EE96EE26A330EE16E1A
:1025D000080E016EE6CFEEFF012EFCD706C5B7F060
:1025E00020DD24D0020E816F7B83D0DF1FD0050E4B
:1025F000EA6E400EE96EE26A2A0EE16E070E016E87
:10260000E6CFEEFF012EFCD7070EB76F0ADD0ED026
:1026100002C580F0B76B05DD09D002C532F003C5F5
:1026200031F0B76BFEDC02D0FFDC00D00501000109
:102630002DEF13F0196A050100517F0B000107E02F
:10264000010A06E0030A05E0230A04E004D03BD6B1
:102650008BD66CD79ED7E8DC00D012EF15F0B451C2
:10266000080DF3CF01F0040E01C0E9FFEA6EEFCFD1
:10267000B6F0B551020806E1B6AD02D0B56B02D096
:10268000010EB56FB551030812E1840EB66FB45157
:10269000080DF350040F016E040E036ED8B0032A28
:1026A00001C0E9FF03C0EAFF840EEF6E09D0B52D2B
:1026B00003D0C80EB66F04D0B55302E1880EB66FD2
:1026C000036A010E026EB451006E05E0D890023626
:1026D0000336002EFBD70250FF0A006EFF0E031ACE
:1026E00000501D1603501E16D890B435036AF2CF61
:1026F000B9F0F29E93EC0CF00900F5CF03F0B9BFEE
:10270000F28EB76F03C0B8F0B451080DF350010F4B
:10271000016E040E036ED8B0032A01C0E9FF03C0A6
:10272000EAFFB7C0EFFFB8B1B681B8B3B683B45112
:10273000080DF3CF01F0040E01C0E9FFEA6EB6C048
:10274000EFFF000CC051080DF350040F016E040E92
:10275000036ED8B0032A01C0E9FF03C0EAFFEFCF40
:10276000C4F0C4BF5BD0C051080DF350050F016E1B
:10277000040E036ED8B0032A01C0E9FF03C0EAFFCC
:10278000C1C0EFFFC351020816E1C051080DF3505C
:10279000040F016E040E036ED8B0032A01C0E9FFD6
:1027A00003C0EAFFEFCFC4F0C4AD02D0C36B02D0C8
:1027B000010EC36F13D0C351040810E1C051080DBE
:1027C000F3CF01F0040E01C0E9FFEA6EEFCFC4F0D1
:1027D000C4AD03D0010EC36F01D0C36BC32D03D0B2
:1027E000C80EC46F04D0C35302E1880EC46FC2B1D7
:1027F000C481C2B3C483C051080DF350040F016EED
:10280000040E036ED8B0032A01C0E9FF03C0EAFF3B
:10281000C4C0EFFF010E016E03D000D0000E016EA8
:10282000000C8151010A03E0030A12E022D0EA6A97
:10283000330EE96E050EE26EE16A080E016EE6CF18
:10284000EEFF012EFCD7B76B11EC10F0816B15D0A9
:10285000EA6A2A0EE96E050EE26EE16A070E016E63
:10286000E6CFEEFF012EFCD7816BB76B11EC10F0B9
:1028700004D0816BDEEC0FF000D05FEF14F0B551A7
:10288000080DF350010F016E040E036ED8B0032A39
:1028900001C0E9FF03C0EAFF036AEFCF01F003C004
:1028A00002F058EF14F07D817F6B020EB56FE7D711
:1028B00001C07EF064EF14F0B45302E1B2D714D03B
:1028C000B451020802E1EFD70FD0036A010E026E85
:1028D000B451006E05E0D89002360336002EFBD7C7
:1028E00002501D1203501E12000CB5C06EFFB553EE
:1028F00003E0040E1F6E02D0020E1F6E85EF14F06F
:102900001A6A196A24C0B5F0F0D7FCEF14F0B5517B
:10291000080DF350040F016E040E036ED8B0032AA5
:1029200001C0E9FF03C0EAFFEFCFBDF0BDBF3FD05C
:10293000B551080DF350060F016E040E036ED8B0AA
:10294000032A01C0E9FF03C0EAFFECCF03F0ED5218
:10295000EFCFBEF003C0BFF0BC6BBB6BBC51B95D29
:102960001AE303E1B851BB5D16E2B6C0E9FFB7C098
:10297000EAFFEFCFC2F0BFC0EAFFBEC0E9FFC2C0AE
:10298000EFFFBE2BD8B4BF2BB62BD8B4B72BBB2BC5
:10299000D8B4BC2BE3D7B5C0C0F0B9C0C2F0B8C042
:1029A000C1F0BAC0C3F0CEDE015003D000D0000E9B
:1029B000016E000C7C530DE07B91020EB56FB76B7E
:1029C0003B0EB66FB96B7CC0B8F0020EBA6F9FDFDA
:1029D0007C6B000C7C5302E0EDDF01D07B8101EFCA
:1029E00015F0B4530AE1192C03D017EC10F004D001
:1029F0001950020801E184D704D0B451020801E162
:102A0000E9D7000C6C30B36FB333B3331F0EB31779
:102A10006C523BE1040100513C0B34081BE1046B98
:102A2000000108D6203C05D0B46B030EB56F17DE4D
:102A30000ED0B46B020EB56F12DE2050FE0807E018
:102A4000C06BC26B20C0C1F0040EC36F7BDE6D98FB
:102A500019D0040100513C0B040815E10001B46BCE
:102A60002BDFB46B020EB56FFADD2050FE080AE0D2
:102A7000203C01D007D0C06BC26B20C0C1F0010E5A
:102A8000C36F60DE040120D000016C50040812E125
:102A9000FF0E206EB46BA5DF203C01D008D0C06BC8
:102AA000C26B20C0C1F0020EC36F4CDE02D0DEEC60
:102AB0000FF009D06CB404D0B3C0B4F0FDDE03D085
:102AC000B3C0B4F08EDF0401000198EF15F01F527F
:102AD00001E12FD068522DE068A404D069A402D08F
:102AE00099EF0FF06DA201D024D068A204D069A2A2
:102AF00002D09EEF0FF068A004D069A002D0EDEFE5
:102B00000FF068A804D069A802D002EF10F068ACFA
:102B100004D069AC02D007EF10F068AA04D069AA0B
:102B200002D00AEF10F068A604D069A602D06AD7D6
:102B30006896A19A38EF0CF09EAAFED7AECFB3F0FC
:102B4000B3530BE0B33D01D008D094948B74B3C061
:102B500082F0B3511B08D8B4FF009E9A38EF0CF0F6
:102B60008C9C959C8C9E959E8C9895988C9A959A09
:102B7000000C8C9C959C8C8E959E8C9895988C8A3C
:102B8000959A000C8C8C959C8C9E959E8C88959823
:102B90008C9A959A000C8C8C959C8C9E959E8C980A
:102BA00095988C8A959A000C8C9C959C8C8E959E01
:102BB0008C8895988C9A959A000C8551845D01E2D9
:102BC000CFDF8551FE0812E2856B8351FB0F0DE2CA
:102BD000050FFAEF15F0CDDF08D0D4DF06D0DBDF2C
:102BE00004D0E2DF02D0BCDF00D001D0852B9E9262
:102BF00038EF0CF0E824F76AF7360F0FF66E2C0E5C
:102C0000F7220A00F550FA6E0800F550F96EE62B2F
:102C1000D62BDA2BDE2BE22BEA6AA80EE96EEF50F8
:102C20000EE00F0E016E006A002EFED7012EFBD7BC
:102C30008F0E006E002EFED70000EF2EF2D7000C94
:102C40006D6A696A080E6F6E94503009946E1F6A3F
:102C5000186AF2BE188EF29EB4EC0FF018BEF28E17
:102C60001E6A1D6A57EF16F0186AF2BE188EF29EA1
:102C7000B4EC0FF018BEF28E6D6A140E6F6E696AB6
:102C80006D86010E1F6E48EF16F06DB601D0ECD7C1
:102C90001F2C0BD06DBA09D0686A696AA08AC00E71
:102CA000F212110E696E020E1F6E000CC9D7EDDF15
:102CB0001F500208FCE194EF16F09591F2BE958149
:102CC000F29E7C513F0802E23F0E7C6F7C517C2BD0
:102CD000036A3B0FE96E000E0320EA6E94C0EFFF1B
:102CE000F29E95B1F28E7BA107D0186AF2BE188EC3
:102CF000F29E60DE18BEF28E8EEF16F07C513F0819
:102D00000AE27BA107D0186AF2BE188EF29E52DE4C
:102D100018BEF28EF3D793C094F0CFD7000CA2EC7C
:102D20000FF094948B84C2D794948B947BB30AD085
:102D300094948B74020E906FFA0EA86F6DDF902F33
:102D4000FBD7F4D7906B90511BEC0DF0902B006EDD
:102D5000936FD4DF170E905DF6E1E8EF16F08F6BFE
:102D6000906B905134EC0DF0902B006E00509EA8AB
:102D7000FED7AD6E240E905DF4E1906B905154EC53
:102D80000DF0902B006E00509EA8FED7AD6E0F0E7A
:102D9000905DF4E1320EA86F3FDF906B905169ECCB
:102DA0000DF0902B006E00509EA8FED7AD6E060E63
:102DB000905DF4E1906B90517AEC0DF0902B006EE9
:102DC00000509EA8FED7AD6E0A0E905DF4E1A7D725
:102DD000020E906FFA0EA86F1FDF902FFBD78F6B3C
:102DE0008F51090807E394948B74640EA86F14DF65
:102DF0008F2BF6D7906B90518DEC0DF0902B006ED1
:102E000000509EA8FED7AD6E0C0E905DF4E1F18EE1
:102E1000C150C00B0F09C16EC290F29CF29EF2BE6F
:102E2000FDD7C69A949E93809392000EC66EC76E8D
:102E30009698D56ACD6ACA6E000ECB6EB150480B1B
:102E4000B16E070EB46E9250270E006E002EFED7A4
:102E500000D0B450A19CB56A9D8AC00EF212A3EFB7
:102E60001EF0AFB102D08A9A01D08A8A939AAFB38A
:102E700002D08A9801D08A889398AFB502D08A96FA
:102E800001D08A869396AFB702D08A9401D08A8403
:102E90009394030E006E002EFED700D0939C8A8C74
:102EA000070E006E002EFED700D0939C8A9C000C6B
:102EB000939E8A9EEF0E006E002EFED700D0AC537C
:102EC00003E0939E8A8E02D0939E8A9E0000939C7C
:102ED0008A9CAD39AE6F0F0EAE17AEC0AFF0C1DF3A
:102EE000AD510F0BAE6FAF6FBCDF000C939E8A9E8F
:102EF000939C8A9C0F0EA86F8FDE8F6B8F510208F8
:102F000008E3030EAF6FADDF050EA86F85DE8F2BD4
:102F1000F5D7020EAF6FA5DF8F6B8F51030812E359
:102F2000036A8F51F2CF90F0F29ECAEC0DF090BF81
:102F3000F28E916FAC6BAD6FBBDF050EA86F6CDED0
:102F40008F2BEBD7000CD8908F350C099011926F16
:102F5000AC6BAD6FADDFB1EF17F0C8DF8F6B906B6F
:102F6000F2D7A5EF1EF07DB101D0FDD77F517F2BA9
:102F7000036A880FE96E050E0320EA6EEFCF90F02A
:102F80007E517F5D0CE37D91186AF2BE188EF29E31
:102F9000020EB46FB56F2FEC13F018BEF28E90C016
:102FA00001F0D4EF17F0DFD701C08FF08F530BE0A3
:102FB0008F3D01D008D094948B748FC082F08F51D4
:102FC0001B08D8B4FF00000CA851016AA75D03E2FA
:102FD000A7C000F00CD0006A080EA96FA737003612
:102FE000A851005CD8B0006E0136A92FF7D7000CAD
:102FF000015091C0A7F0640EA86FE6DF00C091F009
:103000000150300E07E192A30CD092B70AD092B9CA
:10301000200E03D0929792999281012601C093F0DD
:103020006DDE91C0A7F00A0EA86FCEDF00C091F050
:103030000150300E06E192B708D092A106D092B9A5
:10304000200E012601C093F059DE300E912791C069
:1030500093F054DE45EF18F08F518425FF0805E00A
:103060008F51842502E08F518427906B9051D9ECC9
:103070000DF0902B006E936F41DE050E905DF6E132
:1030800084C091F01B0E926FB3D70D0E936F36DE96
:103090000A0E936F33DE000C8FC084F0010E836F35
:1030A000DBEF18F0846B836BDBEF18F094948B7478
:1030B0008251310A25E0030A2AE0010A2FE0070ABB
:1030C00034E0010A39E0030A3EE0410A43E0040A21
:1030D00043E0170A43E0050A43E0100A43E01F0AF1
:1030E00043E0030A44E0170A45E0020A44E01E0AEE
:1030F00043E0010A45E00C0A47E0070A48E048D0EF
:10310000872D02D0876B02D0010E876F54D0882D97
:1031100002D0886B02D0010E886F4DD0892D02D06D
:10312000896B02D0010E896F46D08A2D02D08A6B3E
:1031300002D0010E8A6F3FD08B2D02D08B6B02D054
:10314000010E8B6F38D0862D02D0866B02D0010E17
:10315000866F31D00EDD2FD015DD2DD01CDD2BD0AC
:1031600023DD29D0FDDC27D0929A897A24D096904D
:103170008D7021D020D01FD0FB0E8F6F6DDF1BD044
:10318000050E8F6F69DF17D0C80E8F6F85D78AD76E
:103190004E0E936FB3DD520E936FB0DD3A0E936F08
:1031A000ADDD82C093F0AADD0D0E936FA7DD0A0E90
:1031B000936FA4DD00D0826B000C7DA104D0F3DE00
:1031C000825301E073DFA7EF1EF09251070B006EF0
:1031D0009231016E013201321F0E01160150942509
:1031E000E96E000E9521EA6E016A012A002A01D0DB
:1031F0000136002EFDD7935303E00150EF1203D0A8
:10320000011E0150EF16FCEF1FF09251070B006EEC
:103210009231016E013201321F0E011601509325C9
:10322000E96E000E9421EA6EEFCF01F0002A01D082
:103230000132002EFDD704EF20F0A92D01D003D0DC
:10324000400EAA6F01D0AA6B010EA85DAA27AA5151
:103250008009AB6FAC6BAD6F2BDE000CA7510C0A75
:1032600005E0010A0BE0050A0FE013D0AC6B010E7C
:10327000AD6F1EDE020EA86FCFDC11D0010EA86F5D
:10328000020EA96FDADF0BD0AC6B100EAD6F10DE43
:1032900006D0010EAC6FA7C0ADF00ADE00D0000C66
:1032A000C150C00B0D09C16EC080C082C084C09ED9
:1032B000C280A56BA551A1EC0DF0A52B006E0050AE
:1032C0009EA8FED7AD6E060EA55DF4E1A56BA551D7
:1032D000B2EC0DF0A52B006E00509EA8FED7AD6E8F
:1032E000140EA55DF4E1000C016A026A006A036A2B
:1032F000A35102E1A25118E0100EA46FD890A0379C
:10330000A13700360336A351035C02E1A251005CF1
:1033100007E3A251005ED8A00306A351035ED88044
:1033200001360236A42FEAD7000C0150A5C0A7F041
:10333000640EA86F49DE00C0A5F00150300E07E111
:10334000A6A30CD0A6B70AD0A6B9200E03D0A69784
:10335000A699A681012601C0A7F080DFA5C0A7F02D
:103360000A0EA86F31DE00C0A5F00150300E06E154
:10337000A6B708D0A6A106D0A6B9200E012601C086
:10338000A7F06CDF300EA527A5C0A7F067DF000C03
:1033900087DF928880B8CCD0010EA86FA96F4DDF6F
:1033A000010EA56FA535006E0036FC0E0016C2504A
:1033B000C30B0010C26EC282C2B2FED7C4CFA5F04A
:1033C000A5C001F001C091F0906B91C08FF090C04A
:1033D000A1F08FC0A0F0A36B160EA26F85DF02C014
:1033E00090F001C08FF0926B92510B081AE390534A
:1033F00003E192518F5D0AE3036A9251930FE96EE4
:10340000000E0320EA6EDB0EEF6E09D0036A9251C4
:10341000930FE96E000E0320EA6E2D0EEF6E922BD5
:10342000E3D79F6B91C0A5F0030EA66F7EDF7C0EE5
:10343000A76F14DFEA6A930EE96E000EEF100FE03B
:10344000EACFA1F0E9CFA0F0EFCFA7F007DFA1C04E
:10345000EAFFA0C0E9FFE92AD8B4EA2AEED70D0EA8
:10346000A76FFCDEA56BA535006E0036FC0E0016BE
:10347000C250C30B0010C26EC282C2B2FED7C4CF0C
:10348000A5F0A5C001F001C091F0906B91C08FF044
:1034900090C0A1F08FC0A0F0A36B160EA26F24DF26
:1034A00002C090F001C08FF0926B92510B081AE3AA
:1034B000905303E192518F5D0AE3036A9251930F97
:1034C000E96E000E0320EA6EDB0EEF6E09D0036A90
:1034D0009251930FE96E000E0320EA6E2D0EEF6EEF
:1034E000922BE3D79F6B91C0A5F0030EA66F1DDF53
:1034F0007C0EA76FB3DEEA6A930EE96E000EEF1042
:103500000FE0EACFA1F0E9CFA0F0EFCFA7F0A6DE61
:10351000A1C0EAFFA0C0E9FFE92AD8B4EA2AEED7A1
:103520000D0EA76F9BDE280EA86F0CEC16F031D79E
:1035300080EF20F0B5DE928880B8CDD0010EA86F64
:10354000A96F7BDE020EA56FA535006E0036FC0E5E
:103550000016C250C30B0010C26EC282C2B2FED7A8
:10356000C4CFA5F0A5C001F001C091F0906B91C04F
:103570008FF090C0A1F08FC0A0F0A36B160EA26FC9
:10358000B3DE02C090F001C08FF0926B92510B0835
:103590001AE3905303E192518F5D0AE3036A92515B
:1035A000930FE96E000E0320EA6EDB0EEF6E09D07A
:1035B000036A9251930FE96E000E0320EA6E2D0EFE
:1035C000EF6E922BE3D79F6B91C0A5F0030EA66F11
:1035D000ACDE7C0EA76F42DEEA6A930EE96E000E47
:1035E000EF100FE0EACFA1F0E9CFA0F0EFCFA7F006
:1035F00035DEA1C0EAFFA0C0E9FFE92AD8B4EA2A73
:10360000EED70D0EA76F2ADE030EA56FA535006E4F
:103610000036FC0E0016C250C30B0010C26EC282F0
:10362000C2B2FED7C4CFA5F0A5C001F001C091F091
:10363000906B91C08FF090C0A1F08FC0A0F0A36BF1
:10364000160EA26F51DE02C090F001C08FF0926B97
:1036500092510B081AE3905303E192518F5D0AE3F4
:10366000036A9251930FE96E000E0320EA6EDB0E9F
:10367000EF6E09D0036A9251930FE96E000E03209A
:10368000EA6E2D0EEF6E922BE3D79F6B91C0A5F0E3
:10369000030EA66F4ADE7C0EA76FE0DDEA6A930E8A
:1036A000E96E000EEF100FE0EACFA1F0E9CFA0F035
:1036B000EFCFA7F0D3DDA1C0EAFFA0C0E9FFE92A60
:1036C000D8B4EA2AEED70D0EA76FC8DD280EA86F72
:1036D0000CEC16F030D7BFEF20F0010E915F0CE339
:1036E000EA6A910EE96EEF5007E0020E006E002EBE
:1036F000FED700D0EF2EF9D7000C906B906B905155
:1037000095080CE394908B80C80E916FE6DF94903F
:103710008B90C80E916FE1DF902BF1D7000C010E5A
:10372000A86FA96F8ADD906B9051EBEC0DF0902B98
:10373000006EA76F93DD100E905DF6E18F6B8F51D9
:10374000090807E3DADF640EA86F0CEC16F08F2B84
:10375000F6D7928880A801D0FCD7928880B87BD019
:10376000010EA86F020EA96F68DD906B905101ECFD
:103770000EF0902B006EA76F71DD100E905DF6E1DC
:10378000929A898A96908D8045EC16F0B9EC15F0E6
:10379000928480A42ED0010EA86F020EA96F4DDD79
:1037A000906B905117EC0EF0902B006EA76F56DDCA
:1037B000100E905DF6E1929A899AB0EC15F09DDFBB
:1037C000640EA86F0CEC16F098DFC2EC15F0020E38
:1037D000906F960EA86F0CEC16F0902FFAD7CBECEA
:1037E00015F0020E906F960EA86F0CEC16F0902F4D
:1037F000FAD7928680A62ED0010EA86F020EA96F6E
:103800001CDD906B90512DEC0EF0902B006EA76F8D
:1038100025DD100E905DF6E196908D90B0EC15F0E0
:103820006CDF640EA86F0CEC16F067DFC2EC15F0CD
:10383000020E906F960EA86F0CEC16F0902FFAD730
:10384000D4EC15F0020E906F960EA86F0CEC16F0EB
:10385000902FFAD782D7B0EC15F0928880A801D0CB
:10386000FCD7FEEF20F08E0E006EA6C001F0A5C0C2
:1038700002F0036A015209E102C001F0026A080E77
:10388000005E015202E1006A08D0D89001BE04D067
:10389000023601360006F9D7019E000CA551D8B4B6
:1038A000A5D0B16FA951D8B4A1D0B15F05E37F0E07
:1038B000B127D8B09BD006D0810EB15FD8A096D0EA
:1038C000D8B494D0B1C000F0016A026A036AB06B48
:1038D000A6C0AFF0AF8FA7C0AEF0A8C0ADF0190E74
:1038E000B16FAC51AD5F0DE2010EAE5F0AE2AF5FAA
:1038F00008E2B05F06E2B02BAF2BAE2BAC51AD2788
:1039000028D0AB51AE5F12E2010EAF5F0FE2B05FA5
:103910000DE2B02BAF2BAB51AE27AC51AD2719E365
:10392000AE2B17E1AF2B15E1B02B13D0AA518009B4
:10393000AF5F0EE2010EB05F0BE2B02BAA5180091F
:10394000AF27AB51AE27E9E3AF2BE7E1B02BE5D7CB
:103950000380B12F01D00BD0D890AD37AE37AF3741
:10396000B037D890033602360136B237BAD7B2A193
:1039700006D0D890013202320332B23302D00006B0
:1039800035E0B2BF1ED0D890AD37AE37AF37B037C5
:10399000AC51AD5F07E2010EAE5F04E2AF5F02E241
:1039A000B05F1AE3AB51AE5F05E2010EAF5F02E21A
:1039B000B05F12E3AA518009AF5F03E2010EB05F6E
:1039C0000BE3032A09E1022A07E1012A05E1002AA3
:1039D0000DE0013202320332A6C0B1F0AA51B11B90
:1039E000B1AF02D0018E06D0019E04D0006A016AF8
:1039F000026A036A000CA6C0ADF0AA51AD1BADAFC0
:103A000005D0D894D890A6BFD8802FD0A6C0ADF04E
:103A1000A9C0AEF0A551AE5F06E0ADAF26D0D8503C
:103A2000010AD86E22D0AAC0AEF0A651AE5F06E061
:103A3000ADAF1BD0D850010AD86E17D0ABC0AEF0D6
:103A4000A751AE5F06E0ADAF10D0D850010AD86ED6
:103A50000CD0ACC0AEF0A851AE5F06E0ADAF05D063
:103A6000D850010AD86E01D0D890000C928880A856
:103A700001D0FCD715DC928880B838D145EC16F01F
:103A8000010EA56FA535006E0036FC0E0016C25063
:103A9000C30B0010C26EC282C2B2FED7C4CFA5F063
:103AA000A5C001F001C08FF0A56BA535006E0036F2
:103AB000FC0E0016C250C30B0010C26EC282C2B20E
:103AC000FED7C4CFA5F0A5C001F001C090F0010E53
:103AD000A86FA96F1DEC19F0A66B8FC0A5F0C3DE0F
:103AE00003C0A4F002C0A3F001C0A2F000C0A1F086
:103AF000A4C0A8F0A3C0A7F0A2C0A6F0A1C0A5F0E2
:103B0000AC6BAB6B300EAA6F830EA96FC7DE03C020
:103B1000A4F002C0A3F001C0A2F000C0A1F0936B1A
:103B200093510B082CE3A66B93C0A5F09CDE03C059
:103B3000A8F002C0A7F001C0A6F000C0A5F0A4C084
:103B4000ACF0A3C0ABF0A2C0AAF0A1C0A9F053DFB3
:103B500001E20AE1036A9351940FE96E000E03201B
:103B6000EA6EDB0EEF6E09D0036A9351940FE96E93
:103B7000000E0320EA6E2D0EEF6E932BD1D7A06BB3
:103B80008FC0A5F0030EA66F95EC19F07C0EA76F01
:103B90002EEC19F0EA6A940EE96E000EEF1010E0B8
:103BA000EACFA6F0E9CFA5F0EFCFA7F02EEC19F001
:103BB000A6C0EAFFA5C0E9FFE92AD8B4EA2AEDD7F2
:103BC0000D0EA76F2EEC19F0A66B90C0A5F04BDE82
:103BD00003C0A4F002C0A3F001C0A2F000C0A1F095
:103BE000A4C0A8F0A3C0A7F0A2C0A6F0A1C0A5F0F1
:103BF000AC6BAB6B300EAA6F830EA96F4FDE03C0A8
:103C0000A4F002C0A3F001C0A2F000C0A1F0936B29
:103C100093510B082CE3A66B93C0A5F024DE03C0E0
:103C2000A8F002C0A7F001C0A6F000C0A5F0A4C093
:103C3000ACF0A3C0ABF0A2C0AAF0A1C0A9F0DBDE3B
:103C400001E20AE1036A9351940FE96E000E03202A
:103C5000EA6EDB0EEF6E09D0036A9351940FE96EA2
:103C6000000E0320EA6E2D0EEF6E932BD1D7A06BC2
:103C700090C0A5F0030EA66F95EC19F07C0EA76F0F
:103C80002EEC19F0EA6A940EE96E000EEF1010E0C7
:103C9000EACFA6F0E9CFA5F0EFCFA7F02EEC19F010
:103CA000A6C0EAFFA5C0E9FFE92AD8B4EA2AEDD701
:103CB0000D0EA76F2EEC19F090518F5DA56FA551D9
:103CC00019080DE28F51905D05E2929A898ACBEC3A
:103CD00015F004D096908D80D4EC15F006D0929A11
:103CE000899A96908D90B9EC15F0C5D6B0EC15F088
:103CF0003DEF21F0F86AD09E0D8EEA6AE96AB88637
:103D0000E10EAF6E040EB06EA60EAC6E900EAB6EF2
:103D1000C150C00B0F09C16E070EB46E1F6A216A35
:103D2000040E226E0E0E236E276A7C6B816B826BF3
:103D3000836B846B856B866B876B886B896B8A6BF7
:103D40008B6BAFEF16F0ADEF17F0DDEF18F07DA144
:103D500006D0D3EC17F0825302E056EC18F0872D12
:103D60004CD0010EA56FA535006E0036FC0E001676
:103D7000C250C30B0010C26EC282C2B2FED7C4CF03
:103D8000A5F0A5C001F001C08CF0A56BA535006EB3
:103D90000036FC0E0016C250C30B0010C26EC28269
:103DA000C2B2FED7C4CFA5F0A5C001F001C08DF00E
:103DB0008F6B8F5143EC0EF08F2B006E936F7EEC68
:103DC00016F0040E8F5DF5E18CC093F07EEC16F0DA
:103DD000060E906F905143EC0EF0902B006E936F97
:103DE0007EEC16F00B0E905DF5E18DC093F07EEC4D
:103DF00016F03E0E936F7EEC16F0882D4DD0020E1D
:103E0000A56FA535006E0036FC0E0016C250C30B20
:103E10000010C26EC282C2B2FED7C4CFA5F0A5C048
:103E200001F001C08CF0030EA56FA535006E0036C1
:103E3000FC0E0016C250C30B0010C26EC282C2B28A
:103E4000FED7C4CFA5F0A5C001F001C08DF08F6BE7
:103E50008F5158EC0EF08F2B006E936F7EEC16F0A6
:103E6000040E8F5DF5E18CC093F07EEC16F0060E2B
:103E7000906F905158EC0EF0902B006E936F7EEC8B
:103E800016F00B0E905DF5E18DC093F07EEC16F010
:103E90003E0E936F7EEC16F0892D54D0928880A848
:103EA0000DD08F6B8F516DEC0EF08F2B006E936FDA
:103EB0007EEC16F0060E8F5DF5E10CD08F6B8F5106
:103EC0007EEC0EF08F2B006E936F7EEC16F0060EDC
:103ED0008F5DF5E1928480A40DD08F6B8F518FECB4
:103EE0000EF08F2B006E936F7EEC16F0060E8F5D3A
:103EF000F5E10CD08F6B8F51A0EC0EF08F2B006E84
:103F0000936F7EEC16F0060E8F5DF5E1928680A62B
:103F10000DD08F6B8F51B1EC0EF08F2B006E936F25
:103F20007EEC16F0060E8F5DF5E10CD08F6B8F5195
:103F3000C2EC0EF08F2B006E936F7EEC16F0060E27
:103F40008F5DF5E18A2D42D0C150C00BC16EC0809B
:103F5000C082C084C09EC2808E6B8E51010831E346
:103F6000300E8E258F6F8EC0A5F0A535006E003601
:103F7000FC0E0016C250C30B0010C26EC282C2B249
:103F8000FED7C4CFA5F0A5C001F001C090F03C0E53
:103F9000936F7EEC16F0410E936F7EEC16F08FC09F
:103FA00093F07EEC16F03A0E936F7EEC16F090C014
:103FB00093F07EEC16F03E0E936F7EEC16F08E2B97
:103FC000CCD7C150C00B0F09C16EC2908B2D3DD014
:103FD0008E6B8E51010839E3300E8E258F6F8EC0A7
:103FE00090F07C0E8EC092F0010E936F0F0E956FC5
:103FF000920E946FE5EF18F090C092F00F0E946F50
:10400000800E936F05EF19F0000E01B0010E960DB2
:10401000F350320F926F3C0E936F7EEC16F0410E10
:10402000936F7EEC16F08FC093F07EEC16F03A0E94
:10403000936F7EEC16F092C093F07EEC16F03E0E7D
:10404000936F7EEC16F08E2BC4D7862D0CD0B9EC76
:1040500015F0FA0EA86F0CEC16F0B0EC15F0FA0E95
:10406000A86F0CEC16F0928880A809D1928880A8DD
:1040700001D0FCD7010EA86FA96F1DEC19F08F6B52
:104080008F51D3EC0EF08F2B006EA76F2EEC19F032
:10409000110E8F5DF5E18F6B8F51E9EC0EF08F2BD8
:1040A000006EA76F2EEC19F0100E8F5DF5E18E6B90
:1040B0008E5109080BE3640EA86F0CEC16F0928881
:1040C00080A802D00A0E8E6F8E2BF2D7928880A81D
:1040D00017D0010EA86FA96F1DEC19F08F6B8F51CF
:1040E000FFEC0EF08F2B006EA76F2EEC19F0100E68
:1040F0008F5DF5E1928880A801D0FCD7C8EF19F058
:10410000010EA86FA96F1DEC19F08F6B8F51D3ECC6
:104110000EF08F2B006EA76F2EEC19F0110E8F5D35
:10412000F5E18F6B8F5115EC0FF08F2B006EA76FA1
:104130002EEC19F0100E8F5DF5E1040E8F6FFA0E64
:10414000A86F0CEC16F08F2FFAD7928880A817D0A2
:10415000010EA86FA96F1DEC19F08F6B8F512BEC1E
:104160000FF08F2B006EA76F2EEC19F0100E8F5DE5
:10417000F5E1928880A801D0FCD79AEF1AF0010EE1
:10418000A86FA96F1DEC19F08F6B8F51D3EC0EF057
:104190008F2B006EA76F2EEC19F0110E8F5DF5E1DD
:1041A0008F6B8F5141EC0FF08F2B006EA76F2EECB1
:1041B00019F0100E8F5DF5E1040E8F6FFA0EA86FE7
:1041C0000CEC16F08F2FFAD7928880A817D0010E2A
:1041D000A86FA96F1DEC19F08F6B8F5157EC0FF082
:1041E0008F2B006EA76F2EEC19F0100E8F5DF5E18E
:1041F000928880A801D0FCD78FEF1BF0010EA86F2A
:10420000A96F1DEC19F08F6B8F51D3EC0EF08F2B33
:10421000006EA76F2EEC19F0110E8F5DF5E18F6B1C
:104220008F516DEC0FF08F2B006EA76F2EEC19F0F5
:10423000100E8F5DF5E1040E8F6FFA0EA86F0CEC77
:1042400016F08F2FFAD7928880A817D0010EA86F8A
:10425000A96F1DEC19F08F6B8F5183EC0FF08F2B32
:10426000006EA76F2EEC19F0100E8F5DF5E19288AD
:1042700080A801D0FCD736EF1DF076EC17F065D59D
:02428000030039
:020000040030CA
:0E00000020C23E1E008381000FC00FE00F40A3
:00000001FF
;PIC18F4550
