:020000040000FA
:04180000ACEF25F034
:08180800056ED8CF06F0E0CF19
:1018100007F00001E9CF0DF0EACF08F0E1CF09F0C1
:10182000E2CF0AF0D9CF0BF0DACF0CF0F3CF14F0FF
:10183000F4CF15F0FACF16F000C00FF001C010F091
:1018400002C011F003C012F004C013F0F2AA2CEF92
:101850000CF0F2B434EF16F09DA232EF0CF09EB211
:101860000DEF16F09DAA38EF0CF09EBAF9EF15F0C7
:10187000A0AA3EEF0CF0A1BAC4EF15F00FC000F023
:1018800010C001F011C002F012C003F013C004F048
:101890000E8E0DC0E9FF08C0EAFF09C0E1FF0AC0D3
:1018A000E2FF0BC0D9FF0CC0DAFF14C0F3FF15C074
:1018B000F4FF16C0FAFF055007C0E0FF06C0D8FFCE
:1018C0001000F76AD20FF66E180EF7220900F550D5
:1018D00012000403010000000000000000000000EE
:1018E0000000F76AF20FF66E180EF7220900F550A5
:1018F00012000400010000000000000000000000D1
:101900000000F76A120FF66E190EF7220900F55063
:10191000120040000800400000000000000000002D
:1019200000000000000000000000000000000000B7
:1019300000000DAE03D0F2CF0EF0F29EF76A540F06
:10194000F66E190EF7220900F5500DAE02D00EBE4C
:10195000F28E120040000000400000000000000075
:101960000000000000000000000000000000000077
:1019700000000000F76A840FF66E190EF7220900C6
:10198000F550120009024300020100C032090400B0
:1019900000010202010005240010010424020205D6
:1019A000240600010524010001070581030800FA4F
:1019B00009040100020A000000070502024000FAC3
:1019C000070582024000FA00F76AD80FF66E190E7A
:1019D000F7220900F55012000200F76AEA0FF66ECE
:1019E000190EF7220900F550120012011001020031
:1019F0000040D8040100000101020001F76A0C0F49
:101A0000F66E1A0EF7220900F550120004030904BD
:101A10000A034100550052004500280341007500AB
:101A20007200650042006F006100720064002000D7
:101A30005500730062002D005300650072006900BC
:101A40006500F2CF0EF0F29EF76A5C0FF66E1A0E8A
:101A5000F7220900F5500EBEF28E12000D0A415514
:101A60005245424F540D0A5F5F5F5F5F5F5F0D0A33
:101A70000D0A496E696369616E646F2E2E2E0D0A20
:101A80000000F2CF0EF0F29EF76A9C0FF66E1A0E6F
:101A9000F7220900F5500EBEF28E12005B44656C11
:101AA0006179203530206D735D0D0A00F2CF0EF0A4
:101AB000F29EF76AC60FF66E1A0EF7220900F5506D
:101AC0000EBEF28E12005B4F6B5D0D0A0000F2CF6E
:101AD0000EF0F29EF76AE80FF66E1A0EF722090072
:101AE000F5500EBEF28E12002D5553422043444352
:101AF0000D0A0000F2CF0EF0F29EF76A0E0FF66E9E
:101B00001B0EF7220900F5500EBEF28E12002D4C6E
:101B100065642056657264650D0A0000F2CF0EF010
:101B2000F29EF76A360FF66E1B0EF7220900F5508B
:101B30000EBEF28E12002D54494D45523220436F95
:101B40006E666967757261646F0D0A00F2CF0EF000
:101B5000F29EF76A660FF66E1B0EF7220900F5502B
:101B60000EBEF28E12002D536572766F7320636F76
:101B70006E666967757261646F730D0A0000F2CF5B
:101B80000EF0F29EF76A980FF66E1B0EF722090010
:101B9000F5500EBEF28E12000D0AA1A1486F6C61C5
:101BA000206D756E646F21210D0A0000F2CF0EF0DA
:101BB000F29EF76AC60FF66E1B0EF7220900F5506B
:101BC0000EBEF28E12004C6579656E646F2E2E2E5D
:101BD0000D0A0000F2CF0EF0F29EF76AEE0FF66EDD
:101BE0001B0EF7220900F5500EBEF28E120053654F
:101BF0006E736F723A25322E31660D0A0000F2CFF5
:101C00000EF0F29EF76A180FF66E1C0EF72209000E
:101C1000F5500EBEF28E12005B43525D0D0A0000BD
:101C2000F2CF0EF0F29EF76A3A0FF66E1C0EF72214
:101C30000900F5500EBEF28E12005B48415D0D0AA0
:101C40000000F2CF0EF0F29EF76A5C0FF66E1C0EEB
:101C5000F7220900F5500EBEF28E12005B46415D80
:101C60000D0A0000F2CF0EF0F29EF76A7E0FF66EBC
:101C70001C0EF7220900F5500EBEF28E12005B4FCB
:101C80004B5D0D0A0000F2CF0EF0F29EF76AA00F36
:101C9000F66E1C0EF7220900F5500EBEF28E1200F1
:101CA000416C61726D6120636F6E65637461646124
:101CB000207920636F6E6669677572616461206167
:101CC000206C617320253032643A253032642E0D49
:101CD0000A00F2CF0EF0F29EF76AEC0FF66E1C0EC1
:101CE000F7220900F5500EBEF28E1200566F6C639B
:101CF00061646F2064652074656D706572617475D0
:101D00007261733A0D0A0000F2CF0EF0F29EF76A8C
:101D1000220FF66E1D0EF7220900F5500EBEF28E50
:101D200012003C424F3A253034752D253034753E33
:101D30000000F2CF0EF0F29EF76A4C0FF66E1D0E09
:101D4000F7220900F5500EBEF28E12007573625F25
:101D50006364635F707574632C20416C61726D61A4
:101D600020617061676164612E0D0A00F2CF0EF090
:101D7000F29EF76A860FF66E1D0EF7220900F550E7
:101D80000EBEF28E12007573625F6364635F7075DE
:101D900074632C205B4F4B5D0D0A0000F2CF0EF0F8
:101DA000F29EF76AB60FF66E1D0EF7220900F55087
:101DB0000EBEF28E1200456A65637574616E646FC3
:101DC000207072756562612E2E2E0D0A0000F2CF12
:101DD0000EF0F29EF76AE80FF66E1D0EF72209006C
:101DE000F5500EBEF28E120050727565626120656C
:101DF0006A656375746164612E0D0A00F2CF0EF09E
:101E0000F29EF76A160FF66E1E0EF7220900F550C5
:101E10000EBEF28E1200456A65637574616E646F62
:101E200020736972656E612E2E2E0D0A0000F2CFAE
:101E30000EF0F29EF76A480FF66E1E0EF7220900AA
:101E4000F5500EBEF28E1200536972656E61206508
:101E50006A656375746164612E0D0A00F2CF0EF03D
:101E6000F29EF76A760FF66E1E0EF7220900F55005
:101E70000EBEF28E1200436F6D616E646F2064655A
:101E800073636F6E6F6369646F20282573290D0A71
:101E90000000F2CF0EF0F29EF76AAC0FF66E1E0E47
:101EA000F7220900F5500EBEF28E12005B457363F7
:101EB0005D205265736574206465206370752E2EF5
:101EC0002E0D0A00F2CF0EF0F29EF76ADE0FF66ECC
:101ED0001E0EF7220900F5500EBEF28E120052655A
:101EE00073657465616E646F2E2E2E00F2CF0EF056
:101EF000F29EF76A060FF66E1F0EF7220900F550E4
:101F00000EBEF28E12005265736574206120626FFE
:101F10006F746C6F616465720D0A0000F2CF0EF091
:101F2000F29EF76A360FF66E1F0EF7220900F55083
:101F30000EBEF28E12005B424F5D0D0A0000F2CF22
:101F40000EF0F29EF76A580FF66E1F0EF722090088
:101F5000F5500EBEF28E1200526563696269646FBD
:101F60003A20256320284275666665723A202573FB
:101F7000290D0A00F2CF0EF0F29EF76A8E0FF66E70
:101F80001F0EF7220900F5500EBEF28E12002D54DE
:101F9000494D45523020436F6E66696775726164C2
:101FA0006F0D0A00F2CF0EF0F29EF76ABE0FF66ECA
:101FB0001F0EF7220900F5500EBEF28E12003C41B2
:101FC000313A25633E0D0A00F2CF0EF0F29EF76A19
:101FD000E20FF66E1F0EF7220900F5500EBEF28ECC
:101FE00012003C41303A25633E0D0A006D9269941F
:101FF0006894CFEF15F06A6A6892D8EF15F02D6AF1
:102000002C6A250E2B6E800E2A6E2E6A2F6A080E01
:10201000306E806B7B93326A316A7C6B7D917B8101
:10202000000CE86BE85101080AE3036AE851280F45
:10203000E96E000E0320EA6EEF6AE82BF3D7DFDFCC
:102040001A6A010E1B6E196A000C010EF16FF15134
:102050000F080EE3700EF125016E0F0E036ED8B05F
:10206000032A01C0E9FF03C0EAFFEF6AF12BEFD7B3
:102070001E6A1D6A000C400E0401016F050E036FFD
:10208000026B880E006F046B050E076F400E066F23
:102090000001000C6A6A686A9F0E6B6E390E696EE9
:1020A0006E6ABFDFD2DF160E706E68A602D0689629
:1020B000FCD76D98E0DF030E1F6EDEEF15F069842C
:1020C00068986D82E4EF15F0689CEAEF15F070A057
:1020D00002D0D1DF7090689AF0EF15F0ECC020F0DC
:1020E000000CFF0E206E000CEA6B275235E0EA511F
:1020F0003F0832E31C5005E0020A0DE0010A15E03A
:102100001ED0036A2650F2CFECF0F29E33DCECBF17
:10211000F28EEB6F14D0036A2650F2CFECF0F29EF1
:102120006DDCECBFF28EEB6F0AD0036A2650F2CF63
:10213000ECF0F29E52DCECBFF28EEB6F00D0262A60
:102140002706EA51EA2B036A400FE96E050E0320C9
:10215000EA6EEBC0EFFFC9D7275204E1EA5140080D
:1021600001E0196AEAC0ECF0B9DF000C266A1C6ACB
:1021700005010351010A000105E0030A08E0010A14
:1021800009E01FD0120E276E030E1C6E1CD0430EEA
:10219000276E19D0020E1C6E036A05010251210F31
:1021A000E96E000E0320EA6EEFCF26F0036A265098
:1021B000F2CFE9F0F29E000121DCE9BFF28E276E3A
:1021C00002D08FDF0CD00501075305E12750065DD3
:1021D00002E206C527F0010E196E000185DF0FEF40
:1021E00012F0E95304E1040E1F6E2FDFC7D0050E75
:1021F0001F6EEC6F800EEB6F010EEA6FEA510F0855
:10220000D8A0BCD0ED6B036AEA51F2CFF1F0F29E98
:1022100071EC0CF0F1BFF28E000A53E0040EED6F8A
:10222000D890EA35036AF2CFF1F0F29E99EC0CF007
:102230000900F5CF03F0F1BFF28EEE6F03C0EFF0AF
:10224000EA51080DF350010F016E040E036ED8B071
:10225000032A01C0E9FF03C0EAFFEEC0EFFFEA5125
:10226000080DF350020F016E040E036ED8B0032A5E
:1022700001C0E9FF03C0EAFFECC0ECFFED52EBC088
:10228000EFFFD890EA35036AF2CFF1F0F29E99ECB5
:102290000CF00900F5CF03F0F1BFF28EEB270350ED
:1022A000EC23880EF06FEFB1F081EFB3F083EA51C9
:1022B000080DF3CF01F0040E01C0E9FFEA6EF0C093
:1022C000EFFF036AEA51F2CFF1F0F29E61EC0CF0FD
:1022D000F1BFF28E000A32E0ED83EA51080DF350AF
:1022E000060F016E040E036ED8B0032A01C0E9FF89
:1022F00003C0EAFFECC0ECFFED52EBC0EFFFD8905B
:10230000EA35036AF2CFF1F0F29E81EC0CF009009D
:10231000F5CF03F0F1BFF28EEB270350EC23EA5127
:10232000080DF350040F016E040E036ED8B0032A9B
:1023300001C0E9FF03C0EAFF400EEF6EED51060851
:1023400002E10E0EED6F036AEA51F2CFF1F0F29E58
:1023500061EC0CF0F1BFF28E020801E0ED89700E25
:10236000EA25016E0F0E036ED8B0032A01C0E9FF03
:1023700003C0EAFFEDC0EFFFEA2B40D709EF12F0F0
:102380000501015100010DE0010A14E0020A1EE0FE
:10239000060A27E0030A2CE00E0A2BE0010A2FE0D0
:1023A0003CD01BC040F50501416B020E0001EC6FF3
:1023B00095DE35D00501022D06D0010E1B16000159
:1023C000EC6B8CDE02D000018CDE29D00501022DE1
:1023D00005D01B820001EC6B81DE02D0000181DEA2
:1023E0001ED0020E196E02C524F0EC6B77DE17D0FA
:1023F000BDD61AC040F5010EEC6F70DE10D005019D
:102400000251010808E302C51AF002C5E9F0000113
:10241000E8D6EC6B63DE000102D063DE00D08AEF09
:1024200013F01AC0E9F005010151000105E00A0AA4
:102430000BE0010A2CE03DD00501406B416B020E20
:102440000001EC6F4BDE37D0E9531FE0010EE95D70
:10245000036AF2CFEBF0F29EE4EC0CF0EBBFF28EED
:10246000016E0501045DD8A002D000010ED0036A00
:102470000451280FE96E000E0320EA6EEFCF40F5FD
:10248000010E0001EC6F2ADE01D02BDE14D0E953DF
:102490000EE0036A05010451280FE96E000E0320C7
:1024A000EA6E02C5EFFF0001EC6B18DE01D019DE09
:1024B00002D017DE00D08AEF13F0EA91E9BFEA817B
:1024C000E99FEAA111D0036AE951F2CFEBF0F29E45
:1024D00061EC0CF0EBBFF28E000A02E1000E01D0BD
:1024E000010E016E11D010D0036AE951F2CFEBF06A
:1024F000F29E71EC0CF0EBBFF28E000A02E1000ECE
:1025000001D0010E016E00D0F6EF12F0EA91E9BFA2
:10251000EA81E99FEAA110D0E951080DF350040FB8
:10252000016E040E036ED8B0032A01C0E9FF03C098
:10253000EAFF880EEF6E09D0E951080DF3CF01F0E4
:10254000040E01C0E9FFEA6EEF6A05EF13F0EA91AD
:10255000E9BFEA81E99FEAA110D0E951080DF350E3
:10256000040F016E040E036ED8B0032A01C0E9FF08
:1025700003C0EAFF840EEF6E0AD0E951080DF3CFD5
:1025800001F0040E01C0E9FFEA6E840EEF6E0BEF5E
:1025900013F0EA91E9BFEA81E99FEAA110D0E9517D
:1025A000080DF350040F016E040E036ED8B0032A19
:1025B00001C0E9FF03C0EAFFEFCFEBF00AD0E95119
:1025C000080DF3CF01F0040E01C0E9FFEA6EEFCF72
:1025D000EBF0EBAF02D0EBB502D0000E01D0010E54
:1025E000016E15EF13F004C5E9F067D7015229E039
:1025F00005010151010A000105E0020A09E0030A90
:102600000DE01DD004C5E9F081D7EC6B67DD19D072
:1026100004C5E9F09CD7EC6B61DD13D00501406B7C
:10262000416B04C5E9F00001B4D7015204E0010E8A
:102630000501406F0001020EEC6F50DD02D051DD4C
:1026400000D08AEF13F0FE0E206E000C0501042D61
:1026500001D002D0045348E1015100010BE0010A0E
:102660000DE0210A1CE0010A1FE0030A2EE0010A26
:1026700031E037D0010E816FE6DF35D0050EEA6E0E
:10268000400EE96EE26A330EE16E080E016EE6CF8F
:10269000EEFF012EFCD706C5ECF020DD24D0020EA3
:1026A000816F7B83D0DF1FD0050EEA6E400EE96E8E
:1026B000E26A2A0EE16E070E016EE6CFEEFF012EF2
:1026C000FCD7070EEC6F0ADD0ED002C580F0EC6B74
:1026D00005DD09D002C532F003C531F0EC6BFEDC3C
:1026E00002D0FFDC00D0050100018AEF13F0196A67
:1026F000050100517F0B000107E0010A06E0030A13
:1027000005E0230A04E004D03BD68BD66CD79ED7D5
:10271000E8DC00D06FEF15F0E951080DF3CF01F0C0
:10272000040E01C0E9FFEA6EEFCFEBF0EA510208B8
:1027300006E1EBAD02D0EA6B02D0010EEA6FEA517E
:10274000030812E1840EEB6FE951080DF350040FFA
:10275000016E040E036ED8B0032A01C0E9FF03C066
:10276000EAFF840EEF6E09D0EA2D03D0C80EEB6F9E
:1027700004D0EA5302E1880EEB6F036A010E026E89
:10278000E951006E05E0D89002360336002EFBD7E3
:102790000250FF0A006EFF0E031A00501D16035070
:1027A0001E16D890E935036AF2CFEEF0F29E99EC4E
:1027B0000CF00900F5CF03F0EEBFF28EEC6F03C012
:1027C000EDF0E951080DF350010F016E040E036E98
:1027D000D8B0032A01C0E9FF03C0EAFFECC0EFFF55
:1027E000EDB1EB81EDB3EB83E951080DF3CF01F0CF
:1027F000040E01C0E9FFEA6EEBC0EFFF000CF551DB
:10280000080DF350040F016E040E036ED8B0032AB6
:1028100001C0E9FF03C0EAFFEFCFF9F0F9BF5BD0D9
:10282000F551080DF350050F016E040E036ED8B07C
:10283000032A01C0E9FF03C0EAFFF6C0EFFFF85129
:10284000020816E1F551080DF350040F016E040E55
:10285000036ED8B0032A01C0E9FF03C0EAFFEFCF3F
:10286000F9F0F9AD02D0F86B02D0010EF86F13D079
:10287000F851040810E1F551080DF3CF01F0040EF2
:1028800001C0E9FFEA6EEFCFF9F0F9AD03D0010E18
:10289000F86F01D0F86BF82D03D0C80EF96F04D093
:1028A000F85302E1880EF96FF7B1F981F7B3F983B4
:1028B000F551080DF350040F016E040E036ED8B0ED
:1028C000032A01C0E9FF03C0EAFFF9C0EFFF010ED0
:1028D000016E03D000D0000E016E000C8151010A80
:1028E00003E0030A12E022D0EA6A330EE96E050E15
:1028F000E26EE16A080E016EE6CFEEFF012EFCD714
:10290000EC6B6EEC10F0816B15D0EA6A2A0EE96E62
:10291000050EE26EE16A070E016EE6CFEEFF012EB4
:10292000FCD7816BEC6B6EEC10F004D0816B3BEC50
:1029300010F000D0BCEF14F0EA51080DF350010F75
:10294000016E040E036ED8B0032A01C0E9FF03C074
:10295000EAFF036AEFCF01F003C002F0B5EF14F015
:102960007D817F6B020EEA6FE7D701C07EF0C1EF79
:1029700014F0E95302E1B2D714D0E951020802E1A0
:10298000EFD70FD0036A010E026EE951006E05E029
:10299000D89002360336002EFBD702501D1203508A
:1029A0001E12000CEAC06EFFEA5303E0040E1F6E15
:1029B00002D0020E1F6EE2EF14F01A6A196A24C0E8
:1029C000EAF0F0D759EF15F0EA51080DF350040F73
:1029D000016E040E036ED8B0032A01C0E9FF03C0E4
:1029E000EAFFEFCFF2F0F2BF3FD0EA51080DF3500B
:1029F000060F016E040E036ED8B0032A01C0E9FF72
:102A000003C0EAFFECCF03F0ED52EFCFF3F003C0C9
:102A1000F4F0F16BF06BF151EE5D1AE303E1ED516F
:102A2000F05D16E2EBC0E9FFECC0EAFFEFCFF7F094
:102A3000F4C0EAFFF3C0E9FFF7C0EFFFF32BD8B40F
:102A4000F42BEB2BD8B4EC2BF02BD8B4F12BE3D731
:102A5000EAC0F5F0EEC0F7F0EDC0F6F0EFC0F8F028
:102A6000CEDE015003D000D0000E016E000C7C536E
:102A70000DE07B91020EEA6FEC6B3B0EEB6FEE6BA1
:102A80007CC0EDF0020EEF6F9FDF7C6B000C7C537F
:102A900002E0EDDF01D07B815EEF15F0E9530AE142
:102AA000192C03D074EC10F004D01950020801E185
:102AB00084D704D0E951020801E1E9D7000C6C3059
:102AC000E86FE833E8331F0EE8176C523BE104016E
:102AD00000513C0B34081BE1046B000108D6203C7C
:102AE00005D0E96B030EEA6F17DE0ED0E96B020E1C
:102AF000EA6F12DE2050FE0807E0F56BF76B20C08E
:102B0000F6F0040EF86F7BDE6D9819D004010051C9
:102B10003C0B040815E10001E96B2BDFE96B020EA9
:102B2000EA6FFADD2050FE080AE0203C01D007D011
:102B3000F56BF76B20C0F6F0010EF86F60DE040154
:102B400020D000016C50040812E1FF0E206EE96BEA
:102B5000A5DF203C01D008D0F56BF76B20C0F6F064
:102B6000020EF86F4CDE02D03BEC10F009D06CB4D2
:102B700004D0E8C0E9F0FDDE03D0E8C0E9F08EDF64
:102B800004010001F5EF15F01F5201E12FD068524A
:102B90002DE068A404D069A402D0F6EF0FF06DA276
:102BA00001D024D068A204D069A202D0FBEF0FF0BC
:102BB00068A004D069A002D04AEF10F068A804D041
:102BC00069A802D05FEF10F068AC04D069AC02D005
:102BD00064EF10F068AA04D069AA02D067EF10F081
:102BE00068A604D069A602D06AD76896A19A3EEF7B
:102BF0000CF09EAAFED7AECFE8F0E8530BE0E83D1C
:102C000001D008D094948B74E8C082F0E8511B087E
:102C1000D8B4FF009E9A3EEF0CF0852BD8B4862BDB
:102C20002D0E8325865303E1855D03E002E3959431
:102C30008C942D0E8425865303E1855D03E002E329
:102C400095968C96865106080CE2FF0A03E18551A1
:102C5000CE0807E295948C8495968C86866B856B5E
:102C6000872B9E923EEF0CF0010EA96FF2943EEF7F
:102C70000CF0EA6AC90EE96EEF500EE00F0E016E1D
:102C8000006A002EFED7012EFBD78F0E006E002E9D
:102C9000FED70000EF2EF2D7000C6D6A696A080EAD
:102CA0006F6E94503009946E1F6A186AF2BE188EC7
:102CB000F29E11EC10F018BEF28E1E6A1D6A85EFAE
:102CC00016F0186AF2BE188EF29E11EC10F018BEC3
:102CD000F28E6D6A140E6F6E696A6D86010E1F6E3C
:102CE00075EF16F06DB601D0ECD71F2C0BD06DBA76
:102CF00009D0686A696AA08AC00EF212110E696E64
:102D0000020E1F6E86EF16F0C8D7ECD71F500208D0
:102D1000FCE18EEF16F0FFEC0FF0F6D7C9EF16F0DE
:102D2000C16BC26BC25121EC0DF0C22B006E005082
:102D30009EA8FED7AD6E240EC25DF4E1C26BC251F7
:102D400041EC0DF0C22B006E00509EA8FED7AD6E78
:102D50000F0EC25DF4E1320EC96F8BDFC26BC25140
:102D600056EC0DF0C22B006E00509EA8FED7AD6E43
:102D7000060EC25DF4E1C26BC25167EC0DF0C22BCE
:102D8000006E00509EA8FED7AD6E0A0EC25DF4E143
:102D9000C2D7C26BC2517AEC0DF0C22B006E00504C
:102DA0009EA8FED7AD6E0C0EC25DF4E1F18EC1504F
:102DB000C00B0F09C16EC290F29CF29EF2BEFDD70D
:102DC000C69A949E93809392000EC66EC76E969894
:102DD000D56ACD6ACA6E000ECB6EB150480BB16E8B
:102DE000070EB46E9250270E006E002EFED700D054
:102DF000B450A19CB56A9D8AC00EF212E7EF25F08F
:102E0000010ECC5F0CE3EA6ACC0EE96EEF5007E0EE
:102E1000020E006E002EFED700D0EF2EF9D7000C68
:102E2000C16BC26BC16BC151010818E3FF0EC26FC9
:102E3000C25312E094908B90C2C0CCF0E1DFFA0E46
:102E4000CC6FDEDF94908B80C2C0CCF0D9DF960EC1
:102E5000CC6FD6DFC207ECD7C12BE5D7E9EF25F061
:102E6000866B856B000E0409CA6E780ECB6E9D8250
:102E7000C16BC1518EEC0DF0C12B006E00509EA8AD
:102E8000FED7AD6E150EC15DF4E1C16BC151A6EC6C
:102E90000DF0C12B006E00509EA8FED7AD6E160E31
:102EA000C15DF4E1EBEF25F0C551070B006ED89042
:102EB000003600C001F0000C080E016E110E006E0D
:102EC000002EFED78A929392110E006E002EFED72E
:102ED000CA378A90D8B09380D8A09390938281A269
:102EE000FED7012EEBD7110E006E002EFED78A9270
:102EF000939200009380110E006E002EFED7110EEB
:102F0000006E002EFED7938281A2FED7016A110EB9
:102F1000006E002EFED781B001808A9293928A9033
:102F20009390000CC1C0C5F0BFDF01C0C2F0938018
:102F3000110E006E002EFED79382110E006E002E31
:102F4000FED78A909390110E006E002EFED78A92C3
:102F50009392C2519009C46FCA6FAEDFAC0ECA6FB4
:102F6000ABDFCA6BA9DF93900000938281A2FED7EA
:102F7000110E006E002EFED700D000009380110EBF
:102F8000006E002EFED7140EC96F73DE9380110EF3
:102F9000006E002EFED79382110E006E002EFED71B
:102FA0008A909390110E006E002EFED78A92939213
:102FB000C2519009C46FCA6F7FDFEE0ECA6F7CDF0B
:102FC00093900000938281A2FED7110E006E002E16
:102FD000FED700D000009380110E006E002EFED7A9
:102FE000EEEF25F0080EC66F00C0C7F09380110EFB
:102FF000006E002EFED7938281A2FED781B0D880CA
:1030000081A0D8900136110E006E002EFED793924B
:103010008A92C62FEBD79380110E006E002EFED73A
:103020008A90C751D8A493900000938281A2FED7C2
:10303000110E006E002EFED78A929392110E006E32
:10304000002EFED78A909390000CC7C0C8F0D8908D
:10305000C833780EC817C831006E00323F0E001614
:103060000050C825C96FC7510F0BC925016E000C50
:10307000C16B9380110E006E002EFED79382110E4D
:10308000006E002EFED78A909390110E006E002ED7
:10309000FED78A929392D00ECA6F0EDFCA6B0CDFF6
:1030A0009380110E006E002EFED79382110E006EDB
:1030B000002EFED781A2FED78A909390110E006E4B
:1030C000002EFED78A929392D10ECA6FF5DE006A67
:1030D00089DF01C0C2F001C0C7F0B7DF01C0C1F095
:1030E00093900000938281A2FED7110E006E002EF5
:1030F000FED700D000009380110E006E002EFED788
:10310000C19F0B0E006E002EFED700D09380110ED3
:10311000006E002EFED79382110E006E002EFED799
:103120008A909390110E006E002EFED78A92939291
:10313000D00ECA6FC1DE070ECA6FBEDE800ECA6F28
:10314000BBDE93900000938281A2FED7110E006E29
:10315000002EFED700D000009380110E006E002ECE
:10316000FED7F0EF25F0870ED56EF28AC16BC15104
:10317000BAEC0FF0C12B006E00509EA8FED7AD6ECA
:10318000150EC15DF4E1F2EF25F07DB101D0FDD760
:103190007F517F2B036A880FE96E050E0320EA6ECC
:1031A000EFCFC2F07E517F5D0CE37D91186AF2BED5
:1031B000188EF29E020EE96FEA6F8CEC13F018BEC7
:1031C000F28EC2C001F0E6EF18F0DFD701C0C1F007
:1031D000C15309E0C13D01D006D0C1C082F0C15148
:1031E0001B08D8B4FF00C8EF20F0D591F2BED581FE
:1031F000F29E7C513F0802E23F0E7C6F7C517C2B9B
:10320000036A3B0FE96E000E0320EA6ED4C0EFFFA5
:10321000F29ED5B1F28E7BA107D0186AF2BE188E4D
:10322000F29E25DC18BEF28E26EF19F07C513F0885
:103230000AE27BA107D0186AF2BE188EF29E17DC54
:1032400018BEF28EF3D7D3C0D4F0CFD7000CC12D67
:1032500005D08C9A959A8C88959804D08C9A959ADA
:103260008C989598000CC12D05D08C9E959E8C8CC9
:10327000959C04D08C9E959E8C9C959C000C929065
:103280008990020ECA6FFA0ECC6FBADDCA2FFBD737
:103290009280020ECA6FFA0ECC6FB2DDCA2FFBD736
:1032A0009280000CCB6BCB5107081BE39290899066
:1032B000070E006E002EFED700D0D890CA3302E26F
:1032C000899001D089809290EF0E006E002EFED77B
:1032D00000D09280070E006E002EFED700D0CB2BC0
:1032E000E2D7000CCA6BCA51070819E39290899083
:1032F000070E006E002EFED700D092801F0E006ECB
:10330000002EFED700D0928080B002D0D89001D09D
:10331000D880CB33780ECC6F73DDCA2BE4D7CBC00B
:1033200001F0000C8E0E006ECBC001F0CAC002F09E
:10333000036ACBAF05D0011E021E022A01E1012A59
:10334000015209E102C001F0026A080E005E01525A
:1033500002E1006A0AD0D89001BE04D002360136DC
:103360000006F9D7CBBF01D0019E89EF1AF0CE51EC
:10337000D8B4A5D0DA6FD251D8B4A1D0DA5F05E3C2
:103380007F0EDA27D8B09BD006D0810EDA5FD8A0A6
:1033900096D0D8B494D0DAC000F0016A026A036A09
:1033A000D96BCFC0D8F0D88FD0C0D7F0D1C0D6F06D
:1033B000190EDA6FD551D65F0DE2010ED75F0AE222
:1033C000D85F08E2D95F06E2D92BD82BD72BD5518D
:1033D000D62728D0D451D75F12E2010ED85F0FE272
:1033E000D95F0DE2D92BD82BD451D727D551D62769
:1033F00019E3D72B17E1D82B15E1D92B13D0D351D3
:103400008009D85F0EE2010ED95F0BE2D92BD351B0
:103410008009D827D451D727E9E3D82BE7E1D92B66
:10342000E5D70380DA2F01D00BD0D890D637D73725
:10343000D837D937D890033602360136DB37BAD7BA
:10344000DBA106D0D890013202320332DB3302D046
:10345000000635E0DBBF1ED0D890D637D737D83737
:10346000D937D551D65F07E2010ED75F04E2D85FA6
:1034700002E2D95F1AE3D451D75F05E2010ED85FAB
:1034800002E2D95F12E3D3518009D85F03E2010E53
:10349000D95F0BE3032A09E1022A07E1012A05E1CA
:1034A000002A0DE0013202320332CFC0DAF0D351EC
:1034B000DA1BDAAF02D0018E06D0019E04D0006A7A
:1034C000016A026A036A9FEF1AF0C16BD8DECC0E64
:1034D000CA6FE8DE440ECA6FE5DEC15304E102DFC5
:1034E00001C0C1F0FAD7CBDECC0ECA6FDBDEBE0E58
:1034F000CA6FD8DEF7DE01C0C2F0F4DE01C0C3F04F
:10350000C3C0C5F0C2C0C4F0C5C0CBF0C4C0CAF0CF
:1035100009D700C0CAF001C0CBF002C0CCF003C094
:10352000CDF003C0D1F002C0D0F001C0CFF000C098
:10353000CEF0D56BD46BD36B800ED26F18D703C08F
:10354000C9F002C0C8F001C0C7F000C0C6F0C6C0D4
:1035500000F0C7C001F0C8C002F0C9C003F0000C01
:10356000D351D8B471D0006ED751D8B46DD00026E5
:1035700004E3810E002668E204D07F0E005E64E35F
:1035800063E0D4C0DBF0D851DB1BD48FD88FD65189
:10359000DA03F4CFDDF0D551D903F4CF03F0F3CF44
:1035A000DCF0DA03F350DD27F450DC23000E0322B5
:1035B000D651D903F350DD27F450DC23000E026A04
:1035C00003220222D451DA03F350DC27F450032201
:1035D000000E0222D451D903F3500326F4500222E4
:1035E000000E016A0122D651D803F350DC27F450B3
:1035F0000322000E02220122D551D803F3500326E4
:10360000F4500222000E0122D451D803F3500226B6
:10361000F4500122002A01BE05D0DC370336023601
:1036200001360006000EDCAF0AD0032A0222012276
:10363000015005E1025003E1035001E1002ADBBF24
:10364000018EDBAF019E04D0006A016A026A036A40
:10365000000CD351B608D36F036AD4C0D7F0D48F0F
:10366000D890D433D533D63303320232013200320C
:10367000D32FF6D7D7AF0BD0001E011E021E031E9C
:10368000002AD8B4012AD8B4022AD8B4032A000CDC
:10369000006A016A026A036ADB6BDC6BDD6BDE6B5E
:1036A000DA51D911D811D7112CE0200EDF6FD89044
:1036B000D337D437D537D637DB37DC37DD37DE378E
:1036C000DA51DE5D08E1D951DD5D05E1D851DC5DFF
:1036D00002E1D751DB5D0FE3D751DB5FD851D8A0B2
:1036E000D83DDC5FD951D8A0D93DDD5FDA51D8A0F3
:1036F000DA3DDE5FD8800036013602360336DF2F32
:10370000D6D7EA6ADB0EE96E000CE950CB6FCA51DE
:10371000CD6F19E0C9C0D6F0C8C0D5F0C7C0D4F08D
:10372000C6C0D3F0DA6BD96B200ED86F820ED76F7C
:1037300017DF03C0C9F002C0C8F001C0C7F000C065
:10374000C6F0CD2FE7D7C9C0D6F0C8C0D5F0C7C0E6
:10375000D4F0C6C0D3F07DDF03C0C9F002C0C8F00A
:1037600001C0C7F000C0C6F0C9AF0DD0CB07CB8BEE
:10377000C61FC71FC81FC91FC62BD8B4C72BD8B4B4
:10378000C82BD8B4C92B3B0ED26F9A0ED16FCA0E7C
:10379000D06FCF6B0A0ECD6FCA51D8B4CB2BC9C036
:1037A000D6F0C8C0D5F0C7C0D4F0C6C0D3F0D2C0E0
:1037B000DAF0D1C0D9F0D0C0D8F0CFC0D7F068DFF0
:1037C0000150EFCFC6F0ECCFC7F0ECCFC8F0ECCF94
:1037D000C9F000520FE1CA29CD5D0CE0CB510CE0DD
:1037E0000F0BCD5D01E037E2CBBF35D0CBBD04D0B0
:1037F000200E2DD0200ECB17CBAB0CD0CB9BCA51BB
:10380000D8A4CB070050CB6F2D0ED36F0FDDCB515B
:10381000006ECB6BCA51CD5D0AE10050CB6F2E0E0E
:10382000D36F04DDCB51006E200ECB17000E300E8F
:10383000CBAB0DD0CB9BCA51D8A4CB070050CB6FDC
:103840002D0ED36FF3DCCB51006ECB6B300E002608
:1038500000C0D3F0EBDCD2C0D6F0D1C0D5F0D0C0E0
:10386000D4F0CFC0D3F0DA6BD96BD86B0A0ED76F18
:103870000FDF03C0D2F002C0D1F001C0D0F000C011
:10388000CFF0CD2F8CD725EF1EF0C251010A03E0F7
:10389000030A04E006D0C1C083F003D0C1C084F0A5
:1038A00000D0000CC8C0C9F0CA6BC951090805E2B4
:1038B0000A0EC95F100ECA2703D0C951CA2701D00A
:1038C000F4D7CAC001F0000CC79F3F0EC517938004
:1038D000110E006E002EFED79382110E006E002E88
:1038E000FED78A909390110E006E002EFED78A921A
:1038F0009392D00ECA6F5CEC17F0CA6B5CEC17F0B9
:10390000C7C0C8F0CFDF01C0C8F001C0CAF05CEC8E
:1039100017F0C6C0C8F0C6DF01C0C8F001C0CAF0C9
:103920005CEC17F0C5C0C8F0BDDF01C0C8F001C035
:10393000CAF05CEC17F0C4C0C8F0B4DF01C0C8F036
:1039400001C0CAF05CEC17F0C1C0C8F0ABDF01C029
:10395000C8F001C0CAF05CEC17F0C2C0C8F0A2DF2A
:1039600001C0C8F001C0CAF05CEC17F0C3C0C8F0D9
:1039700099DF01C0C8F001C0CAF05CEC17F0800EFE
:10398000CA6F5CEC17F093900000938281A2FED77F
:10399000110E006E002EFED700D000009380110E95
:1039A000006E002EFED7AFEF1EF0C951016AC85D50
:1039B00003E2C8C000F00CD0006A080ECA6FC83716
:1039C0000036C951005CD8B0006E0136CA2FF7D757
:1039D000000C200EC3A9300EC46FC2C000F0C2AFED
:1039E00007D0001E002A00C0C2F02D0EC46FC38F86
:1039F0000150C2C0C8F0640EC96FD7DF00C0C2F06A
:103A0000300E0124C56FC2C0C8F00A0EC96FCDDFE9
:103A1000300E0024C76F300E0124C66FC4C000F002
:103A2000C3A702D0C3AFC395C3B90BD0C3AF22D0D5
:103A3000C3B520D000C0C5F0C3B31CD000C0C6F0D1
:103A400019D0300EC55D16E100C0C5F0200EC46F60
:103A5000C3A704D0C395C383C3AFC393300EC65D61
:103A600009E100C0C6F0200EC56FC3A7F7D7C39306
:103A7000C3AFC391C3A504D0C4C0D3F016EC19F0F2
:103A8000C3A304D0C5C0D3F016EC19F0C3A104D071
:103A9000C6C0D3F016EC19F0C7C0D3F016EC19F07D
:103AA000000C0150C6C0C8F0640EC96F7EDF00C0B4
:103AB000C6F00150300E07E1C7A30DD0C7B70BD039
:103AC000C7B9200E03D0C797C799C781012601C087
:103AD000D3F016EC19F0C6C0C8F00A0EC96F65DF46
:103AE00000C0C6F00150300E06E1C7B709D0C7A12B
:103AF00007D0C7B9200E012601C0D3F016EC19F08B
:103B0000300EC627C6C0D3F016EC19F0000C938017
:103B1000110E006E002EFED79382110E006E002E45
:103B2000FED78A909390110E006E002EFED78A92D7
:103B30009392B00ECA6F5CEC17F0C6C0CAF05CEC92
:103B400017F093900000938281A2FED7110E006EB1
:103B5000002EFED700D000009380110E006E002EC4
:103B6000FED7000C8251550A24E0200A22E00F0AF9
:103B70002DE0200A2BE0220A2EE0200A2CE03B0A4E
:103B80002EE0200A2CE0350A2FE0200A2DE0340A2E
:103B90002FE0200A2DE0690A61E0060A67E0200AAA
:103BA000D8B46CD0160AD8B42AD2A10AD8B445D257
:103BB0008BD2C16BC151BFEC0DF0C12B006ED36F26
:103BC00016EC19F0120EC15DF5E1DAD2010EC16FEB
:103BD00027EC19F0D5D2C16B27EC19F0D1D2010E28
:103BE000C16F33EC19F0CCD2C16B33EC19F0C8D2F1
:103BF000C16BC151D6EC0DF0C12B006ED36F16EC2A
:103C000019F00C0EC15DF5E160DC00C0C1F001C02F
:103C1000C2F002C0C3F003C0C4F0C56BC551EAECEA
:103C20000DF0C52B006ED36F16EC19F0070EC55DB5
:103C3000F5E1010EE96EC4C0C9F0C3C0C8F0C2C04E
:103C4000C7F0C1C0C6F0CA6F60D50D0ED36F16ECB9
:103C500019F00A0ED36F16EC19F092D20A0EBD2796
:103C6000BDC0C1F0020EC26F10DE8AD20A0EBD5F67
:103C7000BDC0C1F0020EC26F08DE82D2C16BC1515D
:103C8000FFEC0DF0C12B006ED36F16EC19F0060E91
:103C9000C15DF5E18851480A0FE0090A6DE0150A97
:103CA000D8B4AED0350AD8B404D1310AD8B41DD1B5
:103CB000030AD8B448D16FD1300E895D0A0DF35094
:103CC0008A25D00FA26F300E8C5D0A0DF3508D2522
:103CD000D00FA36F300E8F5D0A0DF3509025D00FDB
:103CE000A46FC16BC15110EC0EF0C12B006E0050DF
:103CF0009EA8FED7AD6E060EC15DF4E1300E925D5A
:103D00000A0DF3509325D00FA56F300E955D0A0D67
:103D1000F3509625D00FA66F300E985D0A0DF35024
:103D20009925D00FA76FC16BC15121EC0EF0C12BAB
:103D3000006E00509EA8FED7AD6E060EC15DF4E188
:103D4000A5C0C1F0A6C0C2F0A7C0C3F0010EC46FE9
:103D5000A2C0C5F0A3C0C6F0A4C0C7F0B5D5C16B62
:103D6000C15132EC0EF0C12B006ED36F16EC19F07E
:103D7000060EC15DF5E13FD1010E9F6F300E895DEA
:103D80000A0DF3508A25D00F9D6F300E8C5D0A0D01
:103D9000F3508D25D00F9E6FC16BC15143EC0EF0D7
:103DA000C12B006ED36F16EC19F0250EC15DF5E145
:103DB0009DC0C2F0010EC36F0CDE3A0ED36F16EC3D
:103DC00019F09EC0C2F0010EC36F03DE2E0ED36F3A
:103DD00016EC19F00D0ED36F16EC19F00A0ED36F16
:103DE00016EC19F0C16BC15132EC0EF0C12B006E14
:103DF00000509EA8FED7AD6E060EC15DF4E1FBD06B
:103E0000C16BC15169EC0EF0C12B006ED36F16EC83
:103E100019F01A0EC15DF5E1A16BA151EA083DE36D
:103E2000F2CFC1F0F29EA1C0A9FFA69CA69EA680DB
:103E3000A850C1BFF28EC26FC36BC35184EC0EF0A9
:103E4000C32B006E00C0D3F016EC19F0040EC35D56
:103E5000F4E1010EC46F300ED36F16EC19F0C42FCD
:103E6000FAD7A1C0C6F0030EC76F1BDE2D0ED36FAD
:103E700016EC19F0010EC56F300ED36F16EC19F069
:103E8000C52FFAD7C2C0C6F0030EC76F0ADE3E0EBA
:103E9000D36F16EC19F0A12BC0D7C16BC15132EC16
:103EA0000EF0C12B006ED36F16EC19F0060EC15D3B
:103EB000F5E19F6BC16BC15199EC0EF0C12B006E07
:103EC00000509EA8FED7AD6E1F0EC15DF4E1C16B20
:103ED000C151B6EC0EF0C12B006E00509EA8FED76B
:103EE000AD6E140EC15DF4E186D0F29CF29EF2BE7E
:103EF000FDD7C16BC151CEEC0EF0C12B006ED36F5C
:103F000016EC19F0160EC15DF5E1060EC66FFFDD69
:103F1000C16BC151E7EC0EF0C12B006ED36F16ECF4
:103F200019F0130EC15DF5E1C16BC15132EC0EF019
:103F3000C12B006ED36F16EC19F0060EC15DF5E1D2
:103F4000C00EF21258D0C16BC151FEEC0EF0C12B65
:103F5000006ED36F16EC19F0160EC15DF5E1050E7B
:103F6000C66FD5DDC16BC15117EC0FF0C12B006ED0
:103F7000D36F16EC19F0130EC15DF5E1C16BC151A1
:103F800032EC0EF0C12B006ED36F16EC19F0060E5A
:103F9000C15DF5E130D09C6BC16BC1512EEC0FF0CF
:103FA000C12B006ED36F16EC19F0150EC15DF5E153
:103FB000EA6A880EE96E000EEF1010E0EACFC3F057
:103FC000E9CFC2F0EFCFD3F016EC19F0C3C0EAFF8F
:103FD000C2C0E9FFE92AD8B4EA2AEDD7290ED36F87
:103FE00016EC19F00D0ED36F16EC19F00A0ED36F04
:103FF00016EC19F000D0300E886FA06BC1D0C16BE9
:10400000C15149EC0FF0C12B006ED36F16EC19F0C3
:10401000170EC15DF5E1FA0EC96F39EC16F0C16BF0
:10402000C15162EC0FF0C12B006ED36F16EC19F08A
:104030000D0EC15DF5E1FF00A3D0C16BC15176EC5F
:104040000FF0C12B006ED36F16EC19F0140EC15D8A
:10405000F5E1A96A420EA86EA69CA69EA684F2CFA0
:1040600000F0F29E0F01550EA76EAA0EA76EA68253
:10407000A6B2FED7A6940050F2122E0E9EA8FED72E
:10408000AD6EF29CF29EF2BEFDD7FA0E0001C96F32
:1040900039EC16F02E0E9EA8FED7AD6EFA0EC96F43
:1040A00039EC16F02E0E9EA8FED7AD6EFA0EC96F33
:1040B00039EC16F02E0E9EA8FED7AD6EFA0EC96F23
:1040C00039EC16F0FF005CD09C6B036AA051880F9E
:1040D000E96E000E0320EA6E82C0EFFFA02BA05114
:1040E00014080EE2C16BC1518EEC0FF0C12B006EB3
:1040F00000509EA8FED7AD6E060EC15DF4E1A06B28
:10410000C16BC1519FEC0FF0C12B006ED36F16EC49
:1041100019F00A0EC15DF5E182C0D3F016EC19F07A
:104120000C0EC26FC2519FEC0FF0C22B006ED36F0A
:1041300016EC19F0160EC25DF5E1EA6A880EE96E1A
:10414000000EEF1010E0EACFC4F0E9CFC3F0EFCFDC
:10415000D3F016EC19F0C4C0EAFFC3C0E9FFE92AA6
:10416000D8B4EA2AEDD7290ED36F16EC19F00D0E4C
:10417000D36F16EC19F00A0ED36F16EC19F000D0BD
:10418000826B94948B74000C7DA105D0E5EF18F040
:10419000825301E0E7DCF4EF25F0800ED8B2C71BB4
:1041A000CC6BCD6BC3C0CBF0C751CB1BC251D8B4C5
:1041B000DCD0CA6F006EC651D8B4E0D0CA5FD8B4A4
:1041C00081D03DE3C7C0D0F0D08FC8C0CFF0C9C008
:1041D000CEF0CD6BD890D033CF33CE33CD33CA2F82
:1041E000F8D7CBAF03D0CC81DDD0CC91CA91CC89AC
:1041F000EA6AC50EE96EE9D0CC99CBBF0AD0CAA154
:1042000013D0D033CF33CE33CD33002AD8B4C5D07A
:104210000BD0D0BF0CD0D890CD37CE37CF37D037DA
:104220000006D8B4BAD0F5D7CC8D6BD0CC9DC3C026
:10423000CBF0C3AF02D0D08FA9D0D09FA7D0C6C03B
:10424000CAF0C6C000F0C251CA5FC3C0D0F0D08F60
:10425000C4C0CFF0C5C0CEF0CD6BD890D033CF3333
:10426000CE33CD33CA2FF8D7CBAF03D0CC839AD07F
:10427000CC93CA91CC8BEA6AC90EE96EA6D0CC9BCE
:10428000CBBF0AD0CAA113D0D033CF33CE33CD3376
:10429000002AD8B482D00BD0D0BF0CD0D890CD3764
:1042A000CE37CF37D0370006D8B477D0F5D7CC8FFC
:1042B00028D0CC9FC7C0CBF0C7AF02D0D08F66D07C
:1042C000D09F64D0C7C0D0F0D08FC8C0CFF0C9C0D5
:1042D000CEF0CBAF04D0D09FCC8564D0CC95CD6B45
:1042E000CA91EA6AC50EE96E70D0CBBF1CD0C3C0BC
:1042F000CBF0CAA106D0D033CF33CE33CD33002A92
:104300004CE0CDAF0BD0CE2B09E1CF2B07E1D02B6A
:1043100005E1D033CF33CE33002A3FE0CCBD86D782
:10432000CCBFC7D71CD0800ED01BD0AF04D03AD0A2
:10433000C7C0CBF00AD0C3C0CBF0D05306E1CF53F7
:1043400004E1CE5302E1006A21D0D0BF08D0D8905A
:10435000CD37CE37CF37D037002EF7D71ED0CBAFE3
:1043600002D0D08F13D0D09F11D0C6C000F0C7C0EC
:10437000D0F0C8C0CFF0C9C0CEF008D0C2C000F0A5
:10438000C3C0D0F0C4C0CFF0C5C0CEF0D0C001F0E3
:10439000CFC002F0CEC003F034D0006A016A026AD6
:1043A000036A2FD0CD6BCE1FCF1FD01FCD1FCD2BBB
:1043B00005E1CE2B03E1CF2B01E1D02BCCB115D7FA
:1043C000CCB356D7CCB58AD7B3D7EF50CE2705E3B9
:1043D000CF2B03E1D02BD8B4CA81ED52EF50CF27B9
:1043E00003E3D02BD8B4CA81ED52EF50EFBE01D019
:1043F000800AD027D8B0CA81CCB9FED6CCBB3FD773
:1044000074D7000CC6C0CDF0CA51CD1BCDAF05D0BE
:10441000D894D890C6BFD8802FD0C6C0CDF0C9C020
:10442000CEF0C551CE5F06E0CDAF26D0D850010A00
:10443000D86E22D0CAC0CEF0C651CE5F06E0CDAF56
:104440001BD0D850010AD86E17D0CBC0CEF0C751C0
:10445000CE5F06E0CDAF10D0D850010AD86E0CD098
:10446000CCC0CEF0C851CE5F06E0CDAF05D0D8505D
:10447000010AD86E01D0D8903DEF26F0C0C0EAFF07
:10448000BFC0E9FFD3C0EFFFE92AD8B4EA2AEF6A38
:10449000BF2BD8B4C02B000C0150C6C0C8F0640EAE
:1044A000C96FD5EC1CF000C0C6F00150300E07E11A
:1044B000C7A30CD0C7B70AD0C7B9200E03D0C7977F
:1044C000C799C781012601C0D3F0D8DFC6C0C8F0A4
:1044D0000A0EC96FD5EC1CF000C0C6F00150300EBA
:1044E00006E1C7B708D0C7A106D0C7B9200E01267C
:1044F00001C0D3F0C3DF300EC627C6C0D3F0BEDF85
:10450000000C9380110E006E002EFED79382110EC8
:10451000006E002EFED78A909390110E006E002E32
:10452000FED78A929392B00ECA6F5CEC17F0C7C0A8
:10453000CAF05CEC17F093900000938281A2FED742
:10454000110E006E002EFED700D000009380110ED9
:10455000006E002EFED7010EC96F39EC16F0938065
:10456000110E006E002EFED79382110E006E002EEB
:10457000FED78A909390110E006E002EFED78A927D
:104580009392B00ECA6F5CEC17F0300EC825C96F5D
:10459000CA6F5CEC17F093900000938281A2FED763
:1045A000110E006E002EFED700D000009380110E79
:1045B000006E002EFED7010EC96F39EC16F0000C0C
:1045C000C06BC10EBF6FA2C0C6F0010EC76F64DF23
:1045D000A3C0C6F0010EC76F5FDF300EC15DC66FAE
:1045E000010EC76FC6C0C8F08CDF300EC25DC66F4B
:1045F000020EC76FC6C0C8F084DF300EC35DC66F41
:10460000030EC76FC6C0C8F07CDF300EC45DC66F36
:10461000040EC76FC6C0C8F074DF9F2D0AD0A25128
:104620009D5D07E1A3519E5D04E1050EC66F87EC19
:104630001DF03DEF27F08E0E006EC351005EC4C02A
:1046400002F0C5C001F0028E005209E0D89002527B
:1046500002E1015204E002320132002EF7D7C4AF6A
:1046600005D0011E021E012AD8B4022A000CE9500E
:10467000CB6FCA51CD6F1AE0C9C0D6F0C8C0D5F013
:10468000C7C0D4F0C6C0D3F0DA6BD96B200ED86F98
:10469000820ED76FB0EC1AF003C0C9F002C0C8F0A8
:1046A00001C0C7F000C0C6F0CD2FE6D7C9C0D6F014
:1046B000C8C0D5F0C7C0D4F0C6C0D3F029EC1BF0F9
:1046C00003C0C9F002C0C8F001C0C7F000C0C6F006
:1046D000C9AF0DD0CB07CB8BC61FC71FC81FC91FC3
:1046E000C62BD8B4C72BD8B4C82BD8B4C92B3B0E13
:1046F000D26F9A0ED16FCA0ED06FCF6B0A0ECD6FEC
:10470000CA51D8B4CB2BC9C0D6F0C8C0D5F0C7C0E9
:10471000D4F0C6C0D3F0D2C0DAF0D1C0D9F0D0C046
:10472000D8F0CFC0D7F048EC1BF00150EFCFC6F067
:10473000ECCFC7F0ECCFC8F0ECCFC9F000520FE1DE
:10474000CA29CD5D0CE0CB510CE00F0BCD5D01E033
:1047500037E2CBBF35D0CBBD04D0200E2DD0200EFC
:10476000CB17CBAB0CD0CB9BCA51D8A4CB070050F6
:10477000CB6F2D0ED36F82DECB51006ECB6BCA5147
:10478000CD5D0AE10050CB6F2E0ED36F77DECB519B
:10479000006E200ECB17000E300ECBAB0DD0CB9B96
:1047A000CA51D8A4CB070050CB6F2D0ED36F66DE55
:1047B000CB51006ECB6B300E002600C0D3F05EDE16
:1047C000D2C0D6F0D1C0D5F0D0C0D4F0CFC0D3F095
:1047D000DA6BD96BD86B0A0ED76F48EC1BF003C0AD
:1047E000D2F002C0D1F001C0D0F000C0CFF0CD2F88
:1047F0008AD77AEF24F0D882B5C0C5F0B4C0C4F02F
:10480000B3C0C3F0B2C0C2F0C96BC86B700EC76F43
:10481000820EC66FC2DC03C0B9F002C0B8F001C09E
:10482000B7F000C0B6F0B9C0D6F0B8C0D5F0B7C088
:10483000D4F0B6C0D3F0DA6BD96B100ED86F820EFD
:10484000D76FB0EC1AF003C0B9F002C0B8F001C0E5
:10485000B7F000C0B6F0B9C0C6F0B8C0C5F0B7C078
:10486000C4F0B6C0C3F0E7DE01C0C1F0C26BC251F4
:10487000E4EC0FF0C22B006ED36F16EC19F0040EAF
:10488000C25DF5E1C1C0D3F016EC19F03E0ED36F56
:1048900016EC19F00D0ED36F16EC19F00A0ED36F4B
:1048A00016EC19F0B5C0D6F0B4C0D5F0B3C0D4F052
:1048B000B2C0D3F0DA6BD96B200ED86F820ED76FEF
:1048C000B0EC1AF000C0C2F001C0C3F002C0C4F0E6
:1048D00003C0C5F0C06BAA0EBF6F890EE96E03C09E
:1048E000C9F002C0C8F001C0C7F000C0C6F0060E93
:1048F000CA6FBDD6010EC76FC86B03DE300EAA5D4E
:10490000C26F020EC76FC2C0C8F0FBDD300EAB5DD8
:10491000C26F030EC76FC2C0C8F0F3DD300EAC5DCE
:10492000C26F040EC76FC2C0C8F0EBDD44EF27F0C2
:10493000C1C0C5F054EC17F001C0C4F09380110E53
:10494000006E002EFED79382110E006E002EFED751
:104950008A909390110E006E002EFED78A92939249
:10496000C4519009C66FCA6F5CEC17F0AA0ECA6FEB
:104970005CEC17F09380110E006E002EFED7938230
:10498000110E006E002EFED781A2FED78A90939062
:10499000110E006E002EFED78A929392C451900998
:1049A0000109C66FCA6F5CEC17F0010E006EF2ECE5
:1049B00017F001C0C2F0006AF2EC17F001C0C3F0BA
:1049C00093900000938281A2FED7110E006E002EFC
:1049D000FED700D000009380110E006E002EFED78F
:1049E000C2AF04D0000E016E09D008D0C3AF03D00F
:1049F000010EC22501D0C251016E00D04AEF27F04E
:104A00008E0E006EC4C001F0C3C002F0036A0152F2
:104A100009E102C001F0026A080E005E015202E1E3
:104A2000006A08D0D89001BE04D0023601360006D4
:104A3000F9D7019E21EF25F00F0EA85DC46BC36F5F
:104A4000DFD703C0B9F002C0B8F001C0B7F000C0B2
:104A5000B6F0B9C0D6F0B8C0D5F0B7C0D4F0B6C083
:104A6000D3F0DA6BD96B100ED86F820ED76FB0EC23
:104A70001AF003C0B9F002C0B8F001C0B7F000C02E
:104A8000B6F0B9C0C6F0B8C0C5F0B7C0C4F0B6C083
:104A9000C3F0D1DD01C0C2F0C36BC351D2EC0FF043
:104AA000C32B006ED36F16EC19F0040EC35DF5E155
:104AB000C2C0D3F016EC19F03E0ED36F16EC19F00D
:104AC0000D0ED36F16EC19F00A0ED36F16EC19F019
:104AD000C06BAA0EBF6FA8C0C6F0010EC76FDCDCAA
:104AE000A4C0C8F00A0EC96FD5EC1CF001C0C1F01B
:104AF000A2510A0DF350C127C1C0A9FFA8C0A8FF49
:104B0000A69CA69EA684F2CF00F0F29E0F01550E41
:104B1000A76EAA0EA76EA682A6B2FED7A6940050D4
:104B2000F212010E0001C76FC86BEBDC020EC76FFB
:104B3000C86BE7DC300EAA5DC36F030EC76FC3C03E
:104B4000C8F0DFDC300EAB5DC36F040EC76FC3C0AF
:104B5000C8F0D7DC4DEF27F0F86AD09E0D8EEA6AD8
:104B6000E96AB886E10EAF6E040EB06EA60EAC6EAA
:104B7000900EAB6EC150C00B0F09C16E070EB46E24
:104B80001F6A216A040E226E0E0E236E276A7C6B4A
:104B9000816B826B5A0E836F846F856B866B876B1C
:104BA0009D6B9E6B9F6BA06BA16BA26BA36BA46BA9
:104BB000A56BA66BA76BA96BBA6BBB6BBC6B1E0E10
:104BC000BD6F010EBE6FBF6BC06B90EF16F010EFA4
:104BD00017F030EF17F0C16B92EF17F038EF18F0C5
:104BE000B3EF18F0C4EF20F0825302E0B2EC1DF0F6
:104BF000A92D54D1330EB16FB06F170EAF6F840E65
:104C0000AE6FF29CF29EF2BEFDD765EC1AF003C0C7
:104C1000B5F002C0B4F001C0B3F000C0B2F0C00EF5
:104C2000F21294948B74D882B1C0C5F0B0C0C4F0B5
:104C3000AFC0C3F0AEC0C2F0B5C0C9F0B4C0C8F0D8
:104C4000B3C0C7F0B2C0C6F0CDEC20F000C0C1F0D8
:104C500001C0C2F002C0C3F003C0C4F0C86BC76B90
:104C6000C66B7E0EC56F03C0CCF002C0CBF001C096
:104C7000CAF000C0C9F002EF22F00AE3010EBB6FD8
:104C8000BC6BC16F33EC19F0C16B27EC19F00AD083
:104C9000BB6B010EBC6FC16B33EC19F0010EC16F21
:104CA00027EC19F0BE51BD27BDC0C1F0020EC26F86
:104CB00045EC1CF0BD51950802E2FF0EBE6FBD51E0
:104CC0001E0802E3010EBE6FBA2DDAD09380110EDA
:104CD000006E002EFED79382110E006E002EFED7BE
:104CE0008A909390110E006E002EFED78A929392B6
:104CF000D00ECA6F5CEC17F0030ECA6F5CEC17F0B5
:104D00009380110E006E002EFED79382110E006E5E
:104D1000002EFED781A2FED78A909390110E006ECE
:104D2000002EFED78A929392D10ECA6F5CEC17F0D8
:104D3000010E006EF2EC17F001507F0BC26FC76FCF
:104D400025EC18F001C0A1F0010E006EF2EC17F096
:104D500001503F0BC26FC76F25EC18F001C0A5F0E2
:104D6000010E006EF2EC17F001501F0BC26FC76FFF
:104D700025EC18F001C0A6F0006AF2EC17F001C0B3
:104D8000C1F001C0C7F025EC18F001C0A7F0939066
:104D90000000938281A2FED7110E006E002EFED776
:104DA00000D000009380110E006E002EFED793807D
:104DB000110E006E002EFED79382110E006E002E93
:104DC000FED78A909390110E006E002EFED78A9225
:104DD0009392D00ECA6F5CEC17F0CA6B5CEC17F0C4
:104DE0009380110E006E002EFED79382110E006E7E
:104DF000002EFED781A2FED78A909390110E006EEE
:104E0000002EFED78A929392D10ECA6F5CEC17F0F7
:104E1000010E006EF2EC17F001507F0BC26FC76FEE
:104E200025EC18F001C0A4F0010E006EF2EC17F0B2
:104E300001507F0BC26FC76F25EC18F001C0A3F0C3
:104E4000006AF2EC17F001503F0BC26FC76F25EC00
:104E500018F001C0A2F093900000938281A2FED7C7
:104E6000110E006E002EFED700D000009380110EB0
:104E7000006E002EFED7E0EF22F0020EBA6F0DD0CA
:104E8000BA51020803E1B7D4BA6B07D0010EBA6F6A
:104E9000C16B4ED501C0A8F0CFD5A96BA3D6030036
:020000040030CA
:0E00000020C23E1E008381000FC00FE00F40A3
:00000001FF
;PIC18F4550
