:020000040000FA
:0418000045EF15F0AB
:08180800056ED8CF06F0E0CF19
:1018100007F00001E9CF0DF0EACF08F0E1CF09F0C1
:10182000E2CF0AF0D9CF0BF0DACF0CF0F3CF14F0FF
:10183000F4CF15F0FACF16F000C00FF001C010F091
:1018400002C011F003C012F004C013F09DAA2CEFE7
:101850000CF09EBAF1EF13F0A0AA32EF0CF0A1BA8F
:10186000BCEF13F00FC000F010C001F011C002F087
:1018700012C003F013C004F00E8E0DC0E9FF08C0C3
:10188000EAFF09C0E1FF0AC0E2FF0BC0D9FF0CC0AC
:10189000DAFF14C0F3FF15C0F4FF16C0FAFF0550BD
:1018A00007C0E0FF06C0D8FF1000F76ABA0FF66E57
:1018B000180EF7220900F550120004030100000081
:1018C00000000000000000000000F76ADA0FF66E6A
:1018D000180EF7220900F550120004000100000064
:1018E00000000000000000000000F76AFA0FF66E2A
:1018F000180EF7220900F5501200400008004000C1
:1019000000000000000000000000000000000000D7
:10191000000000000000000000000DAE03D0F2CF78
:101920000EF0F29EF76A3C0FF66E190EF7220900D0
:10193000F5500DAE02D00EBEF28E12004000000037
:101940004000000000000000000000000000000057
:10195000000000000000000000000000F76A6C0FAB
:10196000F66E190EF7220900F55012000902430025
:10197000020100C032090400000102020100052436
:1019800000100104240202052406000105240100C0
:1019900001070581030800FA09040100020A00009A
:1019A00000070502024000FA070582024000FA0023
:1019B000F76AC00FF66E190EF7220900F5501200F3
:1019C0000200F76AD20FF66E190EF7220900F550E1
:1019D00012001201100102000040D80401000001B1
:1019E00001020001F76AF40FF66E190EF7220900E2
:1019F000F5501200040309040A0341005500520087
:101A000045002803410075007200650042006F0028
:101A100061007200640020005500730062002D0018
:101A200053006500720069006500F2CF0EF0F29E6F
:101A3000F76A440FF66E1A0EF7220900F5500EBE33
:101A4000F28E12000D0A41555245424F540D0A5F65
:101A50005F5F5F5F5F5F0D0A0D0A496E69636961D1
:101A60006E646F2E2E2E0D0A0000F2CF0EF0F29E45
:101A7000F76A840FF66E1A0EF7220900F5500EBEB3
:101A8000F28E12005B44656C617920333030206D3A
:101A9000735D0D0A0000F2CF0EF0F29EF76AB00FF0
:101AA000F66E1A0EF7220900F5500EBEF28E1200E5
:101AB0005B4F6B5D0D0A0000F2CF0EF0F29EF76AED
:101AC000D20FF66E1A0EF7220900F5500EBEF28EF6
:101AD00012002D4C65642056657264650D0A000085
:101AE000F2CF0EF0F29EF76AFA0FF66E1A0EF72298
:101AF0000900F5500EBEF28E12002D5553422043C0
:101B000044430D0A0000F2CF0EF0F29EF76A200F58
:101B1000F66E1B0EF7220900F5500EBEF28E120073
:101B20002D50756C6C2075702773204F46460D0A3A
:101B30000000F2CF0EF0F29EF76A4C0FF66E1B0E0D
:101B4000F7220900F5500EBEF28E12002D496E7478
:101B5000657272757063696F6E2053455249450D09
:101B60000A00F2CF0EF0F29EF76A7C0FF66E1B0EA3
:101B7000F7220900F5500EBEF28E12002D496E7448
:101B8000657272757063696F6E657320676C6F62E2
:101B9000616C65730D0A0000F2CF0EF0F29EF76AD9
:101BA000B20FF66E1B0EF7220900F5500EBEF28E34
:101BB0001200A14C69737461210D0A0D0A00F2CF65
:101BC0000EF0F29EF76AD80FF66E1B0EF722090090
:101BD000F5500EBEF28E1200A1A1486F6C61206D0F
:101BE000756E646F21210D0A00006D9269946894EE
:101BF000C7EF13F06A6A6892D0EF13F02D6A2C6A6F
:101C0000250E2B6E800E2A6E2E6A2F6A080E306EFD
:101C1000806B7B93326A316A7C6B7D917B81000C97
:101C2000996B995101080AE3036A9951280FE96EEB
:101C3000000E0320EA6EEF6A992BF3D7DFDF1A6AF2
:101C4000010E1B6E196A000C010EA26FA2510F0843
:101C50000EE3700EA225016E0F0E036ED8B0032A9C
:101C600001C0E9FF03C0EAFFEF6AA22BEFD71E6AAB
:101C70001D6A000C400E0401016F050E036F026B1C
:101C8000880E006F046B050E076F400E066F000193
:101C9000000C6A6A686A9F0E6B6E390E696E6E6A16
:101CA000BFDFD2DF160E706E68A602D06896FCD732
:101CB0006D98E0DF030E1F6ED6EF13F0698468980D
:101CC0006D82DCEF13F0689CE2EF13F070A002D09D
:101CD000D1DF7090689AE8EF13F09DC020F0000CFF
:101CE000FF0E206E000C9B6B275235E09B513F0886
:101CF00032E31C5005E0020A0DE0010A15E01ED097
:101D0000036A2650F2CF9DF0F29E28DE9DBFF28E30
:101D10009C6F14D0036A2650F2CF9DF0F29E62DED3
:101D20009DBFF28E9C6F0AD0036A2650F2CF9DF0C1
:101D3000F29E47DE9DBFF28E9C6F00D0262A2706BA
:101D40009B519B2B036A400FE96E050E0320EA6E40
:101D50009CC0EFFFC9D7275204E19B51400801E026
:101D6000196A9BC09DF0B9DF000C266A1C6A050148
:101D70000351010A000105E0030A08E0010A09E035
:101D80001FD0120E276E030E1C6E1CD0430E276E42
:101D900019D0020E1C6E036A05010251210FE96E73
:101DA000000E0320EA6EEFCF26F0036A2650F2CF32
:101DB0009AF0F29E000116DE9ABFF28E276E02D0D4
:101DC0008FDF0CD00501075305E12750065D02E2C5
:101DD00006C527F0010E196E000185DF08EF10F02F
:101DE0009A5304E1040E1F6E2FDFC1D0050E1F6E43
:101DF0009D6F800E9C6F010E9B6F9B510F08D8A0AA
:101E0000B6D09E6B036A9B51F2CFA2F0F29E5DDDCD
:101E1000A2BFF28E000A51E0040E9E6FD8909B354F
:101E2000036AF2CFA2F0F29E78DD0900F5CF03F04D
:101E3000A2BFF28E9F6F03C0A0F09B51080DF3501C
:101E4000010F016E040E036ED8B0032A01C0E9FF32
:101E500003C0EAFF9FC0EFFF9B51080DF350020F34
:101E6000016E040E036ED8B0032A01C0E9FF03C05F
:101E7000EAFF9DC0ECFFED529CC0EFFFD8909B3570
:101E8000036AF2CFA2F0F29E48DD0900F5CF03F01D
:101E9000A2BFF28E9C2703509D23880EA16FA0B194
:101EA000A181A0B3A1839B51080DF3CF01F0040ED3
:101EB00001C0E9FFEA6EA1C0EFFF036A9B51F2CFB8
:101EC000A2F0F29EF2DCA2BFF28E000A31E09E8305
:101ED0009B51080DF350060F016E040E036ED8B02F
:101EE000032A01C0E9FF03C0EAFF9DC0ECFFED52E9
:101EF0009CC0EFFFD8909B35036AF2CFA2F0F29E10
:101F0000F4DC0900F5CF03F0A2BFF28E9C2703504A
:101F10009D239B51080DF350040F016E040E036EB8
:101F2000D8B0032A01C0E9FF03C0EAFF400EEF6EFC
:101F30009E51060802E10E0E9E6F036A9B51F2CF7E
:101F4000A2F0F29EB2DCA2BFF28E020801E09E89EE
:101F5000700E9B25016E0F0E036ED8B0032A01C0D0
:101F6000E9FF03C0EAFF9EC0EFFF9B2B46D702EFBD
:101F700010F00501015100010DE0010A14E0020A10
:101F80001EE0060A27E0030A2CE00E0A2BE0010AF5
:101F90002FE03CD01BC040F50501416B020E000153
:101FA0009D6F9BDE35D00501022D06D0010E1B165C
:101FB00000019D6B92DE02D0000192DE29D0050166
:101FC000022D05D01B8200019D6B87DE02D000012F
:101FD00087DE1ED0020E196E02C524F09D6B7DDED9
:101FE00017D0C3D61AC040F5010E9D6F76DE10D013
:101FF00005010251010808E302C51AF002C59AF072
:102000000001EED69D6B69DE000102D069DE00D0D2
:1020100082EF11F01AC09AF005010151000105E0AC
:102020000A0A0BE0010A2BE03CD00501406B416B32
:10203000020E00019D6F51DE36D09A531EE0010E54
:102040009A5D036AF2CF9CF0F29EB2DC9CBFF28EE6
:10205000016E0501045DD8A002D000010ED0036A14
:102060000451280FE96E000E0320EA6EEFCF40F511
:10207000010E00019D6F31DE01D032DE14D09A5383
:102080000EE0036A05010451280FE96E000E0320DB
:10209000EA6E02C5EFFF00019D6B1FDE01D020DE5E
:1020A00002D01EDE00D082EF11F09B919ABF9B817F
:1020B0009A9F9BA111D0036A9A51F2CF9CF0F29E95
:1020C00055EC0CF09CBFF28E000A02E1000E01D02C
:1020D000010E016E11D010D0036A9A51F2CF9CF01C
:1020E000F29E65EC0CF09CBFF28E000A02E1000E3D
:1020F00001D0010E016E00D0EEEF10F09B919ABF5F
:102100009B819A9F9BA110D09A51080DF350040F08
:10211000016E040E036ED8B0032A01C0E9FF03C0AC
:10212000EAFF880EEF6E09D09A51080DF3CF01F047
:10213000040E01C0E9FFEA6EEF6AFDEF10F09B911B
:102140009ABF9B819A9F9BA110D09A51080DF35082
:10215000040F016E040E036ED8B0032A01C0E9FF1C
:1021600003C0EAFF840EEF6E0AD09A51080DF3CF38
:1021700001F0040E01C0E9FFEA6E840EEF6E03EF7A
:1021800011F09B919ABF9B819A9F9BA110D09A516D
:10219000080DF350040F016E040E036ED8B0032A2D
:1021A00001C0E9FF03C0EAFFEFCF9CF00AD09A51CB
:1021B000080DF3CF01F0040E01C0E9FFEA6EEFCF86
:1021C0009CF09CAF02D09CB502D0000E01D0010E55
:1021D000016E0DEF11F004C59AF067D7015229E0A6
:1021E00005010151010A000105E0020A09E0030AA4
:1021F0000DE01DD004C59AF081D79D6B6EDD19D01E
:1022000004C59AF09CD79D6B68DD13D00501406B27
:10221000416B04C59AF00001B4D7015204E0010EED
:102220000501406F0001020E9D6F57DD02D058DDA1
:1022300000D082EF11F0FE0E206E000C0501042D7F
:1022400001D002D0045348E1015100010BE0010A22
:102250000DE0210A1CE0010A1FE0030A2EE0010A3A
:1022600031E037D0010E816FE6DF35D0050EEA6E22
:10227000400EE96EE26A330EE16E080E016EE6CFA3
:10228000EEFF012EFCD706C59DF027DD24D0020EFF
:10229000816F7B83D0DF1FD0050EEA6E400EE96EA2
:1022A000E26A2A0EE16E070E016EE6CFEEFF012E06
:1022B000FCD7070E9D6F11DD0ED002C580F09D6B1F
:1022C0000CDD09D002C532F003C531F09D6B05DD90
:1022D00002D006DD00D00501000182EF11F0196A7D
:1022E000050100517F0B000107E0010A06E0030A27
:1022F00005E0230A04E004D03CD68CD66CD79ED7E8
:10230000EFDC00D067EF13F09A51080DF3CF01F026
:10231000040E01C0E9FFEA6EEFCF9CF09B5102086A
:1023200006E19CAD02D09B6B02D0010E9B6F9B51CE
:10233000030812E1840E9C6F9A51080DF350040FAC
:10234000016E040E036ED8B0032A01C0E9FF03C07A
:10235000EAFF840EEF6E09D09B2D03D0C80E9C6F50
:1023600004D09B5302E1880E9C6F036A010E026E3B
:102370009A51006E05E0D89002360336002EFBD746
:102380000250FF0A006EFF0E031A00501D16035084
:102390001E16D8909A35036AF2CF9FF0F29E8DEC0C
:1023A0000CF00900F5CF03F09FBFF28E9D6F03C0C4
:1023B0009EF09A51080DF350010F016E040E036E4A
:1023C000D8B0032A01C0E9FF03C0EAFF9DC0EFFFB8
:1023D0009EB19C819EB39C839A51080DF3CF01F06E
:1023E000040E01C0E9FFEA6E9CC0EFFF000CA6518D
:1023F000080DF350040F016E040E036ED8B0032ACB
:1024000001C0E9FF03C0EAFFEFCFAAF0AABF5BD08B
:10241000A651080DF350050F016E040E036ED8B0DF
:10242000032A01C0E9FF03C0EAFFA7C0EFFFA951DB
:10243000020816E1A651080DF350040F016E040EB8
:10244000036ED8B0032A01C0E9FF03C0EAFFEFCF53
:10245000AAF0AAAD02D0A96B02D0010EA96F13D0C9
:10246000A951040810E1A651080DF3CF01F0040EA4
:1024700001C0E9FFEA6EEFCFAAF0AAAD03D0010ECA
:10248000A96F01D0A96BA92D03D0C80EAA6F04D0E3
:10249000A95302E1880EAA6FA8B1AA81A8B3AA83A2
:1024A000A651080DF350040F016E040E036ED8B050
:1024B000032A01C0E9FF03C0EAFFAAC0EFFF010E33
:1024C000016E03D000D0000E016E000C8151010A94
:1024D00003E0030A12E022D0EA6A330EE96E050E29
:1024E000E26EE16A080E016EE6CFEEFF012EFCD728
:1024F0009D6B6DEC0EF0816B15D0EA6A2A0EE96EC9
:10250000050EE26EE16A070E016EE6CFEEFF012EC8
:10251000FCD7816B9D6B6DEC0EF004D0816B3AECB7
:102520000EF000D0B4EF12F09B51080DF350010FE4
:10253000016E040E036ED8B0032A01C0E9FF03C088
:10254000EAFF036AEFCF01F003C002F0ADEF12F033
:102550007D817F6B020E9B6FE7D701C07EF0B9EFE4
:1025600012F09A5302E1B2D714D09A51020802E154
:10257000EFD70FD0036A010E026E9A51006E05E08C
:10258000D89002360336002EFBD702501D1203509E
:102590001E12000C9BC06EFF9B5303E0040E1F6EC7
:1025A00002D0020E1F6EDAEF12F01A6A196A24C006
:1025B0009BF0F0D751EF13F09B51080DF350040F2F
:1025C000016E040E036ED8B0032A01C0E9FF03C0F8
:1025D000EAFFEFCFA3F0A3BF3FD09B51080DF3500C
:1025E000060F016E040E036ED8B0032A01C0E9FF86
:1025F00003C0EAFFECCF03F0ED52EFCFA4F003C02D
:10260000A5F0A26BA16BA2519F5D1AE303E19E515D
:10261000A15D16E29CC0E9FF9DC0EAFFEFCFA8F0E4
:10262000A5C0EAFFA4C0E9FFA8C0EFFFA42BD8B45F
:10263000A52B9C2BD8B49D2BA12BD8B4A22BE3D7D0
:102640009BC0A6F09FC0A8F09EC0A7F0A0C0A9F0B4
:10265000CEDE015003D000D0000E016E000C7C5382
:102660000DE07B91020E9B6F9D6B3B0E9C6F9F6BF1
:102670007CC09EF0020EA06F9FDF7C6B000C7C5331
:1026800002E0EDDF01D07B8156EF13F09A530AE1AF
:10269000192C03D073EC0EF004D01950020801E19C
:1026A00084D704D09A51020801E1E9D7000C6C30BC
:1026B000996F993399331F0E99176C523BE10401BE
:1026C00000513C0B34081BE1046B000108D6203C90
:1026D00005D09A6B030E9B6F17DE0ED09A6B020E1D
:1026E0009B6F12DE2050FE0807E0A66BA86B20C08F
:1026F000A7F0040EA96F7BDE6D9819D0040100517C
:102700003C0B040815E100019A6B2BDF9A6B020E5B
:102710009B6FFADD2050FE080AE0203C01D007D074
:10272000A66BA86B20C0A7F0010EA96F60DE0401A4
:1027300020D000016C50040812E1FF0E206E9A6B4D
:10274000A5DF203C01D008D0A66BA86B20C0A7F065
:10275000020EA96F4CDE02D03AEC0EF009D06CB438
:1027600004D099C09AF0FDDE03D099C09AF08EDFB4
:1027700004010001EDEF13F01F5201E12FD0685268
:102780002DE068A404D069A402D0F5EF0DF06DA28D
:1027900001D024D068A204D069A202D0FAEF0DF0D3
:1027A00068A004D069A002D049EF0EF068A804D058
:1027B00069A802D05EEF0EF068AC04D069AC02D01C
:1027C00063EF0EF068AA04D069AA02D066EF0EF09B
:1027D00068A604D069A602D06AD76896A19A32EF9B
:1027E0000CF09EAAFED7AECF99F099530BE0993D1D
:1027F00001D008D094948B7499C082F099511B0831
:10280000D8B4FF009E9A32EF0CF0EA6A850EE96EAA
:10281000EF500EE00F0E016E006A002EFED7012E63
:10282000FBD78F0E006E002EFED70000EF2EF2D7E2
:10283000000C836B846B845115EC0DF0842B006EBF
:1028400000509EA8FED7AD6E240E845DF4E1846B2B
:10285000845135EC0DF0842B006E00509EA8FED7FD
:10286000AD6E100E845DF4E1020E846F960E856FDE
:10287000CCDF842FFBD7846B84514BEC0DF0842B81
:10288000006E00509EA8FED7AD6E060E845DF4E18A
:10289000836B8351090807E394948B74320E856F20
:1028A000B4DF832BF6D7846B84515CEC0DF0842B62
:1028B000006E00509EA8FED7AD6E0C0E845DF4E154
:1028C000846B845170EC0DF0842B006E00509EA838
:1028D000FED7AD6E0A0E845DF4E1F18E846B8451F7
:1028E00083EC0DF0842B006E00509EA8FED7AD6ED9
:1028F000100E845DF4E19D8A846B845199EC0DF097
:10290000842B006E00509EA8FED7AD6E150E845D20
:10291000F4E1C00EF212846B8451B1EC0DF0842B03
:10292000006E00509EA8FED7AD6E1A0E845DF4E1D5
:10293000846B8451CCEC0DF0842B006E00509EA86B
:10294000FED7AD6E0B0E845DF4E164EF15F0186AEE
:10295000F2BE188EF29E10EC0EF018BEF28E6D6A6A
:10296000140E6F6E696A6D86010E1F6EBBEF14F058
:102970006DB601D0ECD71F2C0BD06DBA09D0686AA8
:10298000696AA08AC00EF212110E696E020E1F6EE5
:1029900065EF15F07DB101D0FDD77F517F2B036A24
:1029A000880FE96E050E0320EA6EEFCF84F07E51AA
:1029B0007F5D0BE37D91186AF2BE188EF29E020EC7
:1029C0009A6F9B6FA1DC18BEF28E84C001F0EAEF13
:1029D00014F0E0D701C083F083530BE0833D01D0B6
:1029E00008D094948B7483C082F083511B08D8B4B0
:1029F000FF0068EF15F08691F2BE8681F29E7C5151
:102A00003F0802E23F0E7C6F7C517C2B036A3B0F38
:102A1000E96E000E0320EA6E85C0EFFFF29E86B1DC
:102A2000F28E7BA107D0186AF2BE188EF29E17DED6
:102A300018BEF28E2CEF15F07C513F080AE27BA104
:102A400007D0186AF2BE188EF29E09DE18BEF28E0A
:102A5000F3D784C085F0CFD7000C8251550A03E02C
:102A6000200A01E00CD0836B8351DFEC0DF0832B47
:102A7000006E846FE1DF100E835DF6E100D082C04E
:102A800084F0DADF826B6BEF15F0F86AD09E0D8E62
:102A9000EA6AE96AB886E10EAF6E040EB06EA60E61
:102AA000AC6E900EAB6EC150C00B0F09C16E070E1D
:102AB000B46E1F6A216A040E226E0E0E236E276A00
:102AC0007C6B816B826BB5D653D77DA101D081D74A
:102AD000825301E0C2D7640E856F97DE94948B74A5
:042AE000F3D7030025
:020000040030CA
:0E00000020C23E1E008381000FC00FE00F40A3
:00000001FF
;PIC18F4550
