:020000040000FA
:041800006DEF16F082
:08180800056ED8CF06F0E0CF19
:1018100007F00001E9CF0DF0EACF08F0E1CF09F0C1
:10182000E2CF0AF0D9CF0BF0DACF0CF0F3CF14F0FF
:10183000F4CF15F0FACF16F000C00FF001C010F091
:1018400002C011F003C012F004C013F09DAA2CEFE7
:101850000CF09EBAABEF13F0A0AA32EF0CF0A1BAD5
:1018600076EF13F00FC000F010C001F011C002F0CD
:1018700012C003F013C004F00E8E0DC0E9FF08C0C3
:10188000EAFF09C0E1FF0AC0E2FF0BC0D9FF0CC0AC
:10189000DAFF14C0F3FF15C0F4FF16C0FAFF0550BD
:1018A00007C0E0FF06C0D8FF1000F76ABA0FF66E57
:1018B000180EF7220900F550120004030100000081
:1018C00000000000000000000000F76ADA0FF66E6A
:1018D000180EF7220900F550120004000100000064
:1018E00000000000000000000000F76AFA0FF66E2A
:1018F000180EF7220900F5501200400008004000C1
:1019000000000000000000000000000000000000D7
:10191000000000000000000000000DAE03D0F2CF78
:101920000EF0F29EF76A3C0FF66E190EF7220900D0
:10193000F5500DAE02D00EBEF28E12004000000037
:101940004000000000000000000000000000000057
:10195000000000000000000000000000F76A6C0FAB
:10196000F66E190EF7220900F55012000902430025
:10197000020100C032090400000102020100052436
:1019800000100104240202052406000105240100C0
:1019900001070581030800FA09040100020A00009A
:1019A00000070502024000FA070582024000FA0023
:1019B000F76AC00FF66E190EF7220900F5501200F3
:1019C0000200F76AD20FF66E190EF7220900F550E1
:1019D00012001201100102000040D80401000001B1
:1019E00001020001F76AF40FF66E190EF7220900E2
:1019F000F5501200040309040A0341005500520087
:101A000045002803410075007200650042006F0028
:101A100061007200640020005500730062002D0018
:101A200053006500720069006500F2CF0EF0F29E6F
:101A3000F76A440FF66E1A0EF7220900F5500EBE33
:101A4000F28E12000D0A0A2D41757265426F6172A5
:101A50006420A14C69737461210D0A00F2CF0EF06D
:101A6000F29EF76A760FF66E1A0EF7220900F5500D
:101A70000EBEF28E12000D0A41555245424F540DD2
:101A80000A5F5F5F5F5F5F5F0D0A0D0A496E696302
:101A900069616E646F2E2E2E0D0A0000F2CF0EF0DB
:101AA000F29EF76AB60FF66E1A0EF7220900F5508D
:101AB0000EBEF28E12005B44656C617920353020D9
:101AC0006D735D0D0A00F2CF0EF0F29EF76AE00F23
:101AD000F66E1A0EF7220900F5500EBEF28E1200B5
:101AE0005B4F6B5D0D0A0000F2CF0EF0F29EF76ABD
:101AF000020FF66E1B0EF7220900F5500EBEF28E95
:101B000012002D555342204344430D0A0000F2CFEA
:101B10000EF0F29EF76A280FF66E1B0EF7220900F0
:101B2000F5500EBEF28E12002D4C65642056657283
:101B300064650D0A0000F2CF0EF0F29EF76A500FB6
:101B4000F66E1B0EF7220900F5500EBEF28E120043
:101B50000D254C6420254C6420254C642020202039
:101B600000006D926994689481EF13F06A6A68923C
:101B70008AEF13F02D6A2C6A250E2B6E800E2A6ECA
:101B80002E6A2F6A080E306E806B7B93326A316A40
:101B90007C6B7D917B81000CB96BB95101080AE324
:101BA000036AB951280FE96E000E0320EA6EEF6A4E
:101BB000B92BF3D7DFDF1A6A010E1B6E196A000C0E
:101BC000010EC26FC2510F080EE3700EC225016EE6
:101BD0000F0E036ED8B0032A01C0E9FF03C0EAFF6D
:101BE000EF6AC22BEFD71E6A1D6A000C400E04017B
:101BF000016F050E036F026B880E006F046B050EFC
:101C0000076F400E066F0001000C6A6A686A9F0E3B
:101C10006B6E390E696E6E6ABFDFD2DF160E706EA4
:101C200068A602D06896FCD76D98E0DF030E1F6EA1
:101C300090EF13F0698468986D8296EF13F0689CBA
:101C40009CEF13F070A002D0D1DF7090689AA2EFE1
:101C500013F0BDC020F0000CFF0E206E000CBB6B1B
:101C6000275235E0BB513F0832E31C5005E0020A21
:101C70000DE0010A15E01ED0036A2650F2CFBDF038
:101C8000F29E6CDEBDBFF28EBC6F14D0036A26508C
:101C9000F2CFBDF0F29EA6DEBDBFF28EBC6F0AD0C1
:101CA000036A2650F2CFBDF0F29E8BDEBDBFF28EEE
:101CB000BC6F00D0262A2706BB51BB2B036A400FFE
:101CC000E96E050E0320EA6EBCC0EFFFC9D72752AC
:101CD00004E1BB51400801E0196ABBC0BDF0B9DFA7
:101CE000000C266A1C6A05010351010A000105E087
:101CF000030A08E0010A09E01FD0120E276E030E46
:101D00001C6E1CD0430E276E19D0020E1C6E036A87
:101D100005010251210FE96E000E0320EA6EEFCF9C
:101D200026F0036A2650F2CFBAF0F29E00015ADE86
:101D3000BABFF28E276E02D08FDF0CD00501075399
:101D400005E12750065D02E206C527F0010E196E77
:101D5000000185DFC4EF0FF0BA5304E1040E1F6EDB
:101D60002FDFC1D0050E1F6EBD6F800EBC6F010E40
:101D7000BB6FBB510F08D8A0B6D0BE6B036ABB5176
:101D8000F2CFC2F0F29EA1DDC2BFF28E000A51E096
:101D9000040EBE6FD890BB35036AF2CFC2F0F29E3C
:101DA000BCDD0900F5CF03F0C2BFF28EBF6F03C0E8
:101DB000C0F0BB51080DF350010F016E040E036E0D
:101DC000D8B0032A01C0E9FF03C0EAFFBFC0EFFF9C
:101DD000BB51080DF350020F016E040E036ED8B014
:101DE000032A01C0E9FF03C0EAFFBDC0ECFFED52CA
:101DF000BCC0EFFFD890BB35036AF2CFC2F0F29EB1
:101E00008CDD0900F5CF03F0C2BFF28EBC27035072
:101E1000BD23880EC16FC0B1C181C0B3C183BB51A6
:101E2000080DF3CF01F0040E01C0E9FFEA6EC1C056
:101E3000EFFF036ABB51F2CFC2F0F29E36DDC2BFA4
:101E4000F28E000A31E0BE83BB51080DF350060F3D
:101E5000016E040E036ED8B0032A01C0E9FF03C06F
:101E6000EAFFBDC0ECFFED52BCC0EFFFD890BB3520
:101E7000036AF2CFC2F0F29E38DD0900F5CF03F01D
:101E8000C2BFF28EBC270350BD23BB51080DF350D7
:101E9000040F016E040E036ED8B0032A01C0E9FFDF
:101EA00003C0EAFF400EEF6EBE51060802E10E0EBF
:101EB000BE6F036ABB51F2CFC2F0F29EF6DCC2BF26
:101EC000F28E020801E0BE89700EBB25016E0F0E76
:101ED000036ED8B0032A01C0E9FF03C0EAFFBEC009
:101EE000EFFFBB2B46D7BEEF0FF0050101510001FC
:101EF0000DE0010A14E0020A1EE0060A27E0030AC8
:101F00002CE00E0A2BE0010A2FE03CD01BC040F56C
:101F10000501416B020E0001BD6F9BDE35D005014E
:101F2000022D06D0010E1B160001BD6B92DE02D001
:101F3000000192DE29D00501022D05D01B8200018F
:101F4000BD6B87DE02D0000187DE1ED0020E196E47
:101F500002C524F0BD6B7DDE17D0C3D61AC040F594
:101F6000010EBD6F76DE10D005010251010808E3B5
:101F700002C51AF002C5BAF00001EED6BD6B69DEEB
:101F8000000102D069DE00D03CEF11F01AC0BAF0B7
:101F900005010151000105E00A0A0BE0010A2BE0EE
:101FA0003CD00501406B416B020E0001BD6F51DE5C
:101FB00036D0BA531EE0010EBA5D036AF2CFBCF010
:101FC000F29EF6DCBCBFF28E016E0501045DD8A066
:101FD00002D000010ED0036A0451280FE96E000EF2
:101FE0000320EA6EEFCF40F5010E0001BD6F31DE38
:101FF00001D032DE14D0BA530EE0036A0501045159
:10200000280FE96E000E0320EA6E02C5EFFF000103
:10201000BD6B1FDE01D020DE02D01EDE00D03CEF03
:1020200011F0BB91BABFBB81BA9FBBA110D0036AAC
:10203000BA51F2CFBCF0F29E38DCBCBFF28E000A7F
:1020400002E1000E01D0010E016E10D00FD0036A24
:10205000BA51F2CFBCF0F29E38DCBCBFF28E000A5F
:1020600002E1000E01D0010E016E00D0A8EF10F0C9
:10207000BB91BABFBB81BA9FBBA110D0BA51080DAA
:10208000F350040F016E040E036ED8B0032A01C092
:10209000E9FF03C0EAFF880EEF6E09D0BA51080DC0
:1020A000F3CF01F0040E01C0E9FFEA6EEF6AB7EF6B
:1020B00010F0BB91BABFBB81BA9FBBA110D0BA517F
:1020C000080DF350040F016E040E036ED8B0032AFE
:1020D00001C0E9FF03C0EAFF840EEF6E0AD0BA51D7
:1020E000080DF3CF01F0040E01C0E9FFEA6E840E83
:1020F000EF6EBDEF10F0BB91BABFBB81BA9FBBA121
:1021000010D0BA51080DF350040F016E040E036E87
:10211000D8B0032A01C0E9FF03C0EAFFEFCFBCF04B
:102120000AD0BA51080DF3CF01F0040E01C0E9FF47
:10213000EA6EEFCFBCF0BCAF02D0BCB502D0000E4F
:1021400001D0010E016EC7EF10F004C5BAF069D7D7
:10215000015229E005010151010A000105E0020ACE
:1021600009E0030A0DE01DD004C5BAF081D7BD6BAC
:1021700070DD19D004C5BAF09CD7BD6B6ADD13D0F1
:102180000501406B416B04C5BAF00001B4D70152A0
:1021900004E0010E0501406F0001020EBD6F59DD24
:1021A00002D05ADD00D03CEF11F0FE0E206E000C84
:1021B0000501042D01D002D0045348E10151000172
:1021C0000BE0010A0DE0210A1CE0010A1FE0030AEE
:1021D0002EE0010A31E037D0010E816FE6DF35D005
:1021E000050EEA6E400EE96EE26A330EE16E080EED
:1021F000016EE6CFEEFF012EFCD706C5BDF029DD4E
:1022000024D0020E816F7B83D0DF1FD0050EEA6ED3
:10221000400EE96EE26A2A0EE16E070E016EE6CF0D
:10222000EEFF012EFCD7070EBD6F13DD0ED002C5E9
:1022300080F0BD6B0EDD09D002C532F003C531F070
:10224000BD6B07DD02D008DD00D0050100013CEFC9
:1022500011F0196A050100517F0B000107E0010A26
:1022600006E0030A05E0230A04E004D03ED68ED639
:102270006CD79ED7F1DC00D021EF13F0BA51080DD6
:10228000F3CF01F0040E01C0E9FFEA6EEFCFBCF01E
:10229000BB51020806E1BCAD02D0BB6B02D0010EFF
:1022A000BB6FBB51030812E1840EBC6FBA51080D1D
:1022B000F350040F016E040E036ED8B0032A01C060
:1022C000E9FF03C0EAFF840EEF6E09D0BB2D03D0F7
:1022D000C80EBC6F04D0BB5302E1880EBC6F036A0A
:1022E000010E026EBA51006E05E0D8900236033638
:1022F000002EFBD70250FF0A006EFF0E031A00509B
:102300001D1603501E16D890BA35036AF2CFBFF0DF
:10231000F29E8DEC0CF00900F5CF03F0BFBFF28EFA
:10232000BD6F03C0BEF0BA51080DF350010F016E2E
:10233000040E036ED8B0032A01C0E9FF03C0EAFF10
:10234000BDC0EFFFBEB1BC81BEB3BC83BA51080DA6
:10235000F3CF01F0040E01C0E9FFEA6EBCC0EFFF4D
:10236000000CC651080DF350040F016E040E036EED
:10237000D8B0032A01C0E9FF03C0EAFFEFCFCAF0DB
:10238000CABF5BD0C651080DF350050F016E040E95
:10239000036ED8B0032A01C0E9FF03C0EAFFC7C03B
:1023A000EFFFC951020816E1C651080DF350040FA2
:1023B000016E040E036ED8B0032A01C0E9FF03C00A
:1023C000EAFFEFCFCAF0CAAD02D0C96B02D0010E4E
:1023D000C96F13D0C951040810E1C651080DF3CFDD
:1023E00001F0040E01C0E9FFEA6EEFCFCAF0CAADFA
:1023F00003D0010EC96F01D0C96BC92D03D0C80E1F
:10240000CA6F04D0C95302E1880ECA6FC8B1CA812D
:10241000C8B3CA83C651080DF350040F016E040EF1
:10242000036ED8B0032A01C0E9FF03C0EAFFCAC0A7
:10243000EFFF010E016E03D000D0000E016E000C04
:102440008151010A03E0030A12E022D0EA6A330E46
:10245000E96E050EE26EE16A080E016EE6CFEEFF50
:10246000012EFCD7BD6B29EC0EF0816B15D0EA6A0A
:102470002A0EE96E050EE26EE16A070E016EE6CFE6
:10248000EEFF012EFCD7816BBD6B29EC0EF004D062
:10249000816BF6EC0DF000D06EEF12F0BB51080D21
:1024A000F350010F016E040E036ED8B0032A01C071
:1024B000E9FF03C0EAFF036AEFCF01F003C002F0B7
:1024C00067EF12F07D817F6B020EBB6FE7D701C013
:1024D0007EF073EF12F0BA5302E1B2D714D0BA51C2
:1024E000020802E1EFD70FD0036A010E026EBA5163
:1024F000006E05E0D89002360336002EFBD702505E
:102500001D1203501E12000CBBC06EFFBB5303E034
:10251000040E1F6E02D0020E1F6E94EF12F01A6AA4
:10252000196A24C0BBF0F0D70BEF13F0BB51080DB4
:10253000F350040F016E040E036ED8B0032A01C0DD
:10254000E9FF03C0EAFFEFCFC3F0C3BF3FD0BB51E9
:10255000080DF350060F016E040E036ED8B0032A67
:1025600001C0E9FF03C0EAFFECCF03F0ED52EFCF6B
:10257000C4F003C0C5F0C26BC16BC251BF5D1AE3AA
:1025800003E1BE51C15D16E2BCC0E9FFBDC0EAFF78
:10259000EFCFC8F0C5C0EAFFC4C0E9FFC8C0EFFF75
:1025A000C42BD8B4C52BBC2BD8B4BD2BC12BD8B4ED
:1025B000C22BE3D7BBC0C6F0BFC0C8F0BEC0C7F0D7
:1025C000C0C0C9F0CEDE015003D000D0000E016EB5
:1025D000000C7C530DE07B91020EBB6FBD6B3B0E7C
:1025E000BC6FBF6B7CC0BEF0020EC06F9FDF7C6B08
:1025F000000C7C5302E0EDDF01D07B8110EF13F083
:10260000BA530AE1192C03D02FEC0EF004D0195064
:10261000020801E184D704D0BA51020801E1E9D7E8
:10262000000C6C30B96FB933B9331F0EB9176C5247
:102630003BE1040100513C0B34081BE1046B000139
:1026400008D6203C05D0BA6B030EBB6F17DE0ED048
:10265000BA6B020EBB6F12DE2050FE0807E0C66B9D
:10266000C86B20C0C7F0040EC96F7BDE6D9819D00F
:10267000040100513C0B040815E10001BA6B2BDF8B
:10268000BA6B020EBB6FFADD2050FE080AE0203C58
:1026900001D007D0C66BC86B20C0C7F0010EC96F50
:1026A00060DE040120D000016C50040812E1FF0E2E
:1026B000206EBA6BA5DF203C01D008D0C66BC86B7A
:1026C00020C0C7F0020EC96F4CDE02D0F6EC0DF050
:1026D00009D06CB404D0B9C0BAF0FDDE03D0B9C0E3
:1026E000BAF08EDF04010001A7EF13F01F5201E1E1
:1026F0002FD068522DE068A404D069A402D0B1EFB5
:102700000DF06DA201D024D068A204D069A202D03D
:10271000B6EF0DF068A004D069A002D005EF0EF06E
:1027200068A804D069A802D01AEF0EF068AC04D0F3
:1027300069AC02D01FEF0EF068AA04D069AA02D0DB
:1027400022EF0EF068A604D069A602D06AD7689678
:10275000A19A32EF0CF09EAAFED7AECFB9F0B953D2
:102760000BE0B93D01D008D094948B74B9C082F0CD
:10277000B9511B08D8B4FF009E9A32EF0CF0EA6AF8
:102780009D0EE96EEF500EE00F0E016E006A002EF6
:10279000FED7012EFBD78F0E006E002EFED7000055
:1027A000EF2EF2D7000C6D6A696A080E6F6E9450B6
:1027B0003009946E1F6A186AF2BE188EF29ECCEC35
:1027C0000DF018BEF28E1E6A1D6A0BEF14F0186A27
:1027D000F2BE188EF29ECCEC0DF018BEF28E6D6A31
:1027E000140E6F6E696A6D86010E1F6EFBEF13F09B
:1027F0006DB601D0ECD71F2C0BD06DBA09D0686A2A
:10280000696AA08AC00EF212110E696E020E1F6E66
:102810000CEF14F0C8D7ECD71F500208FCE148EFCA
:1028200014F0A691F2BEA681F29E7C513F0802E20E
:102830003F0E7C6F7C517C2B036A3B0FE96E000ED0
:102840000320EA6EA5C0EFFFF29EA6B1F28E7BA137
:1028500007D0186AF2BE188EF29EBBDE18BEF28E4A
:1028600042EF14F07C513F080AE27BA107D0186ABE
:10287000F2BE188EF29EADDE18BEF28EF3D7A4C063
:10288000A5F0CFD7000CBAEC0DF094948B84C2D78E
:1028900094948B947BB30AD094948B74020E9C6FA7
:1028A000FA0E9D6F6CDF9C2FFBD7F4D79C6B9C516D
:1028B00015EC0DF09C2B006EA46FD4DF170E9C5D01
:1028C000F6E19CEF14F09B6B9C6B9C512EEC0DF091
:1028D0009C2B006E00509EA8FED7AD6E240E9C5D12
:1028E000F4E19C6B9C514EEC0DF09C2B006E005063
:1028F0009EA8FED7AD6E0F0E9C5DF4E1320E9D6F6B
:102900003EDF9C6B9C5163EC0DF09C2B006E0050E5
:102910009EA8FED7AD6E060E9C5DF4E19C6B9C51AB
:1029200074EC0DF09C2B006E00509EA8FED7AD6E8F
:102930000A0E9C5DF4E1A7D7020E9C6FFA0E9D6F04
:102940001EDF9C2FFBD79B6B9B51090807E39494D8
:102950008B74640E9D6F13DF9B2BF6D79C6B9C5181
:1029600087EC0DF09C2B006E00509EA8FED7AD6E3C
:102970000C0E9C5DF4E1F18EC150C00B0F09C16ECD
:10298000C290F29CF29EF2BEFDD7C69A949E9380AE
:102990009392000EC66EC76E9698D56ACD6ACA6EBF
:1029A000000ECB6EB150480BB16E070EB46E925054
:1029B000270E006E002EFED700D0B450A19CB56A41
:1029C0009D8AC00EF2129DEF16F0080E016E020EE7
:1029D000006E002EFED78A929392020E006E002E99
:1029E000FED79B378A90D8B09380D8A093909382DB
:1029F00081A2FED7012EEBD7020E006E002EFED76D
:102A00008A92939200009380020E006E002EFED7F1
:102A1000020E006E002EFED7938281A2FED7016ABD
:102A2000020E006E002EFED781B001808A92939232
:102A30008A909390000C9380020E006E002EFED7B9
:102A40009382020E006E002EFED78A909390020EA3
:102A5000006E002EFED78A929392A60E9B6FB5DF72
:102A6000FE0E9B6FB2DF040E9B6FAFDF93900000F2
:102A7000938281A2FED7020E006E002EFED700D0F8
:102A800000009380020E006E002EFED79EEF16F01F
:102A90007DB101D0FDD77F517F2B036A880FE96E8E
:102AA000050E0320EA6EEFCF9CF07E517F5D0CE3B4
:102AB0007D91186AF2BE188EF29E020EBA6FBB6F3D
:102AC0003EEC11F018BEF28E9CC001F069EF15F0DB
:102AD000DFD701C09BF09B530BE09B3D01D008D09A
:102AE00094948B749BC082F09B511B08D8B4FF0058
:102AF00097EF15F094948B74825100D04E0EA46F12
:102B0000B1DE520EA46FAEDE3A0EA46FABDE82C011
:102B1000A4F0A8DE0D0EA46FA5DE0A0EA46FA2DE3F
:102B200000D0826B9AEF15F07DA104D0D1D78253EB
:102B300001E0E0D79FEF16F09380020E006E002EAA
:102B4000FED79382020E006E002EFED78A909390DD
:102B5000020E006E002EFED78A929392A40E9B6FF7
:102B600034DF9B6B32DF93900000938281A2FED70B
:102B7000020E006E002EFED700D000009380020EE1
:102B8000006E002EFED7A0EF16F0080E9E6F00C05C
:102B90009FF09380020E006E002EFED7938281A2DA
:102BA000FED781B0D88081A0D8900136020E006E89
:102BB000002EFED793928A929E2FEBD79380020E1F
:102BC000006E002EFED78A909F51D8A493900000EB
:102BD000938281A2FED7020E006E002EFED78A924B
:102BE0009392020E006E002EFED78A909390000CF6
:102BF000EACFA3F0E9CFA2F09CAF08D0A28FA2A9A0
:102C0000A22B9B1F9C1F9B2BD8B49C2B9C39F0099B
:102C10009E6F9E27E20F9F6F320FA16F9C510F0B8B
:102C20009F279F27A127E90FA06FA027A0279B39E7
:102C30000F0BA027A127A037A137A11FA1379B51B8
:102C40000F0BA1279E37070E9D6F0A0EA007A12725
:102C5000FDE39F07A027FDE39E079F27FDE39D0758
:102C60009E27FDE3EA6A9D0EE96E070EA215A29D5E
:102C7000E906A21507E1A2B9E92AA2B903D0200EFC
:102C8000006E1CD0E926A10EE95CD8B4A28DEF50ED
:102C9000006E08E1A2BD06D0A2B91BD0A2B702D037
:102CA000200E0BD0A2AF06D02D0E006EED50A29DCF
:102CB000A29F04D0A287A299300E0026EACF9CF0F2
:102CC000E9CF9BF000C0A4F0CDDD9CC0EAFF9BC023
:102CD000E9FFEE50A2ADD7D7000CF86AD09E0D8E5A
:102CE000EA6AE96AB886E10EAF6E040EB06EA60E0F
:102CF000AC6E900EAB6EC150C00B0F09C16E070ECB
:102D0000B46E1F6A216A040E226E0E0E236E276AAD
:102D10007C6B816B826B836B846B856B866B876B43
:102D2000886B896B8A6B8B6B8C6B8D6B8E6B8F6BEF
:102D3000906B916B926B936BC6D57DD6F5D6FCD616
:102D4000010E9D6F1CDD9380020E006E002EFED7DB
:102D50009382020E006E002EFED78A909390020E90
:102D6000006E002EFED78A929392A50E9B6F2DDEE9
:102D7000946B945104080EE3036A9451950FE96E25
:102D8000000E0320EA6E010E006EFFDE01C0EFFFB1
:102D9000942BEFD7006AF9DE01C09AF093900000FF
:102DA000938281A2FED7020E006E002EFED700D0C5
:102DB00000009380020E006E002EFED79831006E48
:102DC00000323F0E0016005000360036FC0E001692
:102DD00000509525D8808555836F000E8655846FE9
:102DE0009931006E00323F0E00160050003600365A
:102DF000FC0E001600509625D8808D558B6F000E66
:102E00008E558C6F9A31006E00323F0E00160050C6
:102E100000360036FC0E001600509725D8808955E4
:102E2000876F000E8A55886F0D0EA46F1BDD100E84
:102E3000E96E84C09CF083C09BF0DADE200EA46FA4
:102E400011DD100EE96E8CC09CF08BC09BF0D0DEC3
:102E5000200EA46F07DD100EE96E88C09CF087C0BD
:102E60009BF0C6DE0C0E9B6F9B519BEC0DF09B2BD9
:102E7000006EA46FF7DC100E9B5DF6E15FD70300D8
:020000040030CA
:0E00000020C23E1E008381000FC00FE00F40A3
:00000001FF
;PIC18F4550
